:020000040800F2
:1080000000FC0020D9810008818F0008878F0008BC
:108010008F8F0008978F00089F8F000800000000D6
:108020000000000000000000000000004D8100087A
:10803000AD8F000800000000818100080DF20008EB
:10804000F3810008F3810008F381000851CC000897
:10805000F3810008F3810008F3810008F381000830
:10806000F3810008F3810008F3810008F381000820
:10807000F3810008F3810008F3810008F381000810
:10808000F3810008F3810008F3810008F381000800
:10809000F3810008F3810008F3810008F3810008F0
:1080A000F3810008F3810008F3810008F3810008E0
:1080B000F381000869B90008F3810008F381000822
:1080C000F3810008F3810008F3810008F3810008C0
:1080D000F381000837180108CF700108A375010863
:1080E000F3810008F3810008F3810008F3810008A0
:1080F000F3810008F3810008F3810008F381000890
:10810000F3810008F3810008F3810008F38100087F
:10811000F3810008F3810008DBB90008F38100084F
:10812000F3810008F3810008F3810008F38100085F
:10813000DFF80CD01EF0DEF800480047EF8C000896
:1081400000FC002080F30888704700001A4B196873
:108150000868B0E8F00F80F309884FF0000080F362
:1081600011884EF00D0E70470000000003480068B3
:10817000006880F3088862B600DF00BF08ED00E009
:10818000EFF309800C4B1A6820E9F00F106008B576
:108190004FF0000080F3118806F02BFB4FF0000039
:1081A00080F31188BDE8084019680868B0E8F00F4E
:1081B00080F30988704700BF9C00002001B44FF095
:1081C000000080F3118801BC704701B44FF000003B
:1081D00080F3118801BC7047064880470648004775
:1081E000FEE7FEE7FEE7FEE7FEE7FEE7FEE7FEE767
:1081F000FEE7FEE7CD900008318100081DF02DBCA0
:1082000054656D636F50534E4554000000000011DB
:1082100000000000FE4E002786F83C70FDA010F024
:1082200030FB642007F0FAF90EF098F904F0EAFB4D
:1082300096F83C00012838D11E36717C3170B07E32
:108240007072B08B70812E2003F0F9FA717A3B20A6
:1082500003F0F5FA7089010A3C2003F0F0FAB07AD5
:108260001E3EC1B23D2003F0EAFA002574191A340B
:10827000617C2170A07D6071A07E607205F12F008D
:1082800003F0DDFA617905F1330003F0D8FA617A81
:1082900005F1370003F0D3FA6D1CEDB2042DE5D3E0
:1082A000E0490120087086F83C704FF47A7006F0BF
:1082B0002DFAB9E709F0B3FBDB48DC490078087018
:1082C000DBA010F0DEFA642007F0A8F9DB4DDC4CEF
:1082D000287830B1401EC0B22870012801D10CF0BE
:1082E0000FFD207830B12078401E2070207808B92A
:1082F00009F09AFA052006F009FAE9E710B5D14825
:108300000DF0C4FC17F09CFFC1480178407841EAA9
:108310000020CD49486017F09AFF16F005FD4FF098
:10832000FF300DF082FDC94900200870C84908706F
:10833000C8490870C8493820087010BD86B0B44CD0
:10834000002084F83D00FFF7D9FF002018F030FA34
:10835000002019F027F9C1A010F093FA642007F06B
:108360005DF94FF41675A07C68B9009000232A4689
:10837000BD4901A817F03DFF024622B10023BA49CA
:1083800001A819F0E0F8052006F0C0F9EBE72DE9A7
:10839000F041AD48417800290CD1012141704FF4E2
:1083A000FA71083007F054F9A74842F21071103002
:1083B00007F04EF908F0ABFBAC4D288018B34FF432
:1083C000006007F0B0F9AA4CA18988420BD10120C6
:1083D00007F0FEFA288800284BD008F070FABDE8B4
:1083E000F04108F09CBB40F6060007F09CF9A1891B
:1083F00088423ED108F017FA2888002839D0BDE815
:10840000F04108F08CBB9048083007F033F90028A1
:108410002FD08D48083007F022F90024288818B1A1
:1084200008F04DFA08F07BFB641CE4B2142CF5D381
:108430000024904E904F06EB84103860052007F022
:10844000C7FA288818B108F03AFA08F068FB641CEB
:10845000E4B20A2CEFD37C48103007F00BF9002867
:1084600007D07948103007F0FAF8BDE8F04108F07D
:108470005EB9BDE8F081002480A010F002FA64200B
:1084800007F0CCF8674D704EFFF781FF2878012880
:1084900002D0307801281AD1641CE4B20A2C16D11B
:1084A0000024002028703078012814D0002003F028
:1084B0004BFE75A300220621012003F052FE76A395
:1084C00000220321022003F04CFE09F088FB052066
:1084D00006F01CF9D8E7002003F036FE73A3002253
:1084E0000621012003F03DFE6BA3002203210220A0
:1084F00003F037FEE9E701F0B8BA2DE9FC5F03F0BD
:108500006BF90FF0F2FB002003F068F9404F387070
:10851000012003F063F97870022003F05FF9B8706E
:10852000032003F05BF9F870162003F057F9834637
:108530008DF80000172003F051F98DF80100054671
:10854000182003F04BF98DF802008046192003F043
:1085500045F98DF80300032401264FF0040A4FF07B
:108560000209BBF1FF0F1ED1FF2D1CD1B8F1FF0F87
:1085700019D1FF2817D131468DF800608DF8019090
:108580008DF802408DF803A0162003F058F94946F3
:10859000172003F054F92146182003F050F95146F2
:1085A000192003F04CF99DF801109DF800009DF88A
:1085B0000220090400EB006001EB0221084422497B
:1085C00048601121042003F03AF90021052003F04E
:1085D00036F9062003F002F93871FF2800D020B9DF
:1085E000FE213971062003F02AF9072003F0F6F87E
:1085F000B873D62804D0D621B973072003F01FF929
:10860000082003F0EBF8F873FF2856D054E0000080
:10861000C06E0020466C617368205461736B0D0A54
:10862000000000005B0100206401002065010020C3
:10863000434F4D4D205461736B0D0A0062010020C1
:108640006001002072010020000000206003002073
:108650006103002063030020620300204D53545047
:10866000205461736B0D0A001C04002004010020DB
:10867000105900205C640020240100204E65742005
:108680005461736B0D0A00005265737461727469F2
:108690006E672E2E2E000000446F6E277420706FC0
:1086A000776572206F666621000000005570646176
:1086B00074696E672E2E2E0020B90821F9730820E8
:1086C00003F0BDF8102003F089F87873112003F04F
:1086D00085F83874FE4800250570152003F07EF8F3
:1086E0003873042804D931463E73152003F0A7F8E7
:1086F000387BDFF8E08305282CD2DFE800F0030C9C
:10870000141C24004FF41650B86006F01BFE06201F
:1087100088F800001EE04FF49640B86006F012FEA4
:1087200088F8004016E04FF41640B86006F00AFEE4
:1087300088F800900EE04FF46140B86006F002FE49
:1087400088F8006006E04FF4E130B86006F0FAFD0A
:1087500088F80060142003F041F8B874032805D0AD
:1087600020B12146BC74142003F069F80024E846C7
:1087700004F1280003F032F808F80400641CE4B2A5
:10878000062CF5D39DF80000FF283ED19DF801008E
:10879000FF283AD19DF80200FF2836D19DF803004A
:1087A000FF2832D19DF80400FF282ED19DF8050046
:1087B000FF282AD151468DF800A08DF80190352070
:1087C0008DF80200AF208DF803008DF804508DF86D
:1087D0000560282003F033F89DF80110292003F0EC
:1087E0002EF89DF802102A2003F029F89DF80310B6
:1087F0002B2003F024F89DF804102C2003F01FF820
:108800009DF805102D2003F01AF800203A1818F8EA
:1088100000101175401CC0B20628F7D3002404F1E3
:108820002F0002F0DBFF08F80400641CE4B2042C03
:10883000F5D39DF800004FF0C00BFF2828D19DF81C
:108840000100FF2824D19DF80200FF2820D19DF8C7
:108850000300FF281CD159468DF800B0A8208DF8E0
:1088600001008DF80250B7208DF803002F2002F090
:10887000E6FF9DF80110302002F0E1FF9DF80210A4
:10888000312002F0DCFF9DF80310322002F0D7FF08
:1088900000203A1818F80010917682F82B10401C2E
:1088A000C0B20428F5D32E2002F098FF8DF8000006
:1088B000012805D929468DF800502E2002F0BFFF6F
:1088C0009DF80000B87787F82F00002404F13300EA
:1088D00002F084FF08F80400641CE4B2042CF5D311
:1088E0009DF80000FF2820D19DF80100FF281CD131
:1088F0009DF80200FF2818D19DF80300FF2814D12D
:10890000FF218DF80350332002F099FF9DF80110EC
:10891000342002F094FF9DF80210352002F08FFF02
:108920009DF80310362002F08AFF00203A1818F84C
:108930000010D17782F83010401CC0B20428F5D363
:10894000002404F1370002F049FF08F80400641C19
:10895000E4B2042CF5D39DF80000FF2827D19DF840
:108960000100FF2823D19DF80200FF281FD19DF8A8
:108970000300FF281BD159468DF800B0A8208DF8C0
:1089800001008DF802508DF803A0372002F057FF48
:108990009DF80110382002F052FF9DF80210392096
:1089A00002F04DFF9DF803103A2002F048FF00202E
:1089B0003A1818F8001002F8231F5174401CC0B276
:1089C0000428F5D33B2002F009FF8DF80000FF28B2
:1089D00005D129468DF800503B2002F030FF9DF86C
:1089E000000087F8270087F838003C2002F0F6FEE8
:1089F0008DF800003D2002F0F1FE8DF801009DF899
:108A00000010FF2909D1FF2807D14FF4FB703885EA
:108A10008DF80060F6208DF801009DF801009DF8AA
:108A2000001040EA01203885788787F83C50FD74B3
:108A300029480570452002F094FF28490870142445
:108A400000287DD0FF287BD0142800D90C70462048
:108A500002F087FF22490870002872D0FF2870D0EA
:108A6000142800D90C70512002F07BFF04465220DC
:108A700002F077FF44EA00201A4C2081532002F0D4
:108A800070FF0746542002F06CFF47EA002000B256
:108A90006081B4F90810814200DD20815F2002F07E
:108AA00060FF0746602002F05CFF47EA0020A080DC
:108AB000612002F056FF0746622002F052FF47EAAB
:108AC000002000B2E080B4F9041081420DDD0BE01B
:108AD0006601002061010020A9010020AB010020F7
:108AE000AC010020FE010020A080632002F039FFCD
:108AF0000746642002F035FF47EA00202080652009
:108B000002F02FFF0746662002F02BFF47EA002005
:108B100000B26080B4F90010814200DD2080562050
:108B200002F01FFFDC49E8B3FF284DD00E7057203C
:108B300002F017FFD94C2070582002F012FF01E01C
:108B40003CE03EE06070592002F00BFFA0705A201C
:108B500002F007FFE070217830390A290DD26178E0
:108B600039290AD8302908D3A178392905D83029DC
:108B700003D3392801D8302818D23121217032206E
:108B800060703320A0703420E070572002F0E7FEC0
:108B90006178582002F0E3FEA178592002F0DFFE50
:108BA000E17800E010E05A2002F0D9FE5E2002F0E9
:108BB000D8FEBB490870FF2808D009E081F8009072
:108BC00045E781F800904EE70D70B0E71E20087071
:108BD00040F20477384602F0C4FEB24CA076052677
:108BE000FF2804D1A6760521384602F0B8FE40F2EF
:108BF0000377384602F0B5FE6076FF2804D166762A
:108C00000521384602F0ABFE40F20277384602F00A
:108C1000A8FEA5490870FF2804D10E70052138462A
:108C200002F09DFE2561A5601522A04940F2617009
:108C300002F073FE40F2767002F093FE044640F2BA
:108C4000777002F08EFE44EA0020994C20804FF4A9
:108C5000EF6002F086FE054640F2797002F081FE78
:108C600045EA0020608040F27A7002F07AFE054604
:108C700040F27B7002F075FE45EA0020A08040F2D1
:108C80007C7002F06EFE054640F27D7002F069FED7
:108C900045EA0020E08040F27E7002F062FE054668
:108CA00040F27F7002F05DFE45EA002020814FF423
:108CB000F06002F056FE054640F2817002F051FE6F
:108CC00045EA00206081BDE8FC9F10B545F2555093
:108CD00000F0C2FE032000F0C2FE4FF47A6000F004
:108CE000C1FE00F0C7FEBDE8104000F0BEBE2DE999
:108CF000FF414FF40041080300F083FA4FF4407045
:108D000000F04AFA482006F055FCFFF7DEFF01218B
:108D1000142005F0D3FF674C20600121142005F0DA
:108D2000CDFF654E306006F0CEF8644D286006F049
:108D3000CAF863490860216809B33168F9B1296844
:108D4000E9B1E0B103F019FE00225EA3114610461E
:108D500003F007FAFFF7D1FB0DF02AFC02F096FBB7
:108D600000225DA31146012003F0FBF900225DA360
:108D70001146022003F0F5F9FFF7BDFB03E0FEE723
:108D8000642006F04BFC07F04FFE0028F8D1FFF7F7
:108D9000B2FB002256A31146032003F0E2F957A0CC
:108DA0000FF06FFD002258A31146042003F0D9F9FB
:108DB000FFF7A1FB00240125CDE900544FF4C07654
:108DC00002942346324652A15248039405F026FBF2
:108DD000CDE900540294002332464FA15048039439
:108DE00005F01CFB0226CDE90064029400232A0250
:108DF0004CA14E48039405F011FB0527CDE9007402
:108E00000294002380224AA14F48039405F006FBF8
:108E1000CDE900540294002380224CA14F480394D2
:108E200005F0FCFACDE900640294002340F25C6294
:108E30004BA14D48039405F0F1FACDE9005402949A
:108E40000023802249A14B48039405F0E7FACDE9BD
:108E5000007402940023802247A14848039405F03F
:108E6000DDFA06200FF0D6FD05F0B8FD04B00020B5
:108E7000BDE8F081C1B2000A40EA01207047C0F3AA
:108E80000723C0F30741020E000640EA034040EA10
:108E9000012010437047000023030020240300201A
:108EA000280300203C070020190200207201002046
:108EB00008950020E4010020D80100207C02002059
:108EC00030030020496E697469616C697A61746964
:108ED0006F6E2E2E2E0000004545502069732044F1
:108EE0006F6E650052544320697320446F6E6500B5
:108EF0004E657420697320446F6E6500434F325F86
:108F00004E45540A0D000000446F6E6500000000DD
:108F10004E455400778400084D5354500000000023
:108F20003D830008434F4D4D00000000B58200080E
:108F30005570646174655F50726573737572655FB7
:108F40005461736B0000000009DD01087653746101
:108F500072745049445461736B00000069E0010869
:108F6000464C415348000000158200084F7574506C
:108F700075740000797901084B455900C5CD00088A
:108F80000FA00FF07EBC11A00FF07BFCFBE712A03E
:108F90000FF077FCFBE713A00FF073FCFBE714A0C6
:108FA0000FF06FFCFBE716A00FF06BBC16A00FF0E4
:108FB00068BC17A00FF065BC17A00FF062BC0000E2
:108FC0004E4D49206661756C7400000068617264E2
:108FD000206661756C7400004D656D204661756C8E
:108FE00074200000427573204661756C7420000087
:108FF0005573616765204661756C74200000000040
:10900000535643200000000044656275672000004D
:1090100050656E20000000005379735469636B2023
:10902000000000000CB50022019200925248016835
:1090300041F4803101604FF4A063016801F4003114
:1090400000910199491C0191009911B90199994226
:10905000F3D10168890302D50121009100E000925B
:109060000099012930D145490A6842F010020A608E
:109070000A6822F003020A600A6842F002020A60EB
:109080004168416041684160416841F480614160EC
:10909000416821F47C114160416841F4E81141606C
:1090A000016841F08071016001688901FCD5416867
:1090B00021F003014160416841F0020141604168D3
:1090C000C1F381010229FAD10CBDABE710B52A48E2
:1090D000016841F0010101604168294A1140416085
:1090E0000168284A11400160016821F48021016073
:1090F000416821F4FE0141604FF41F018160FFF7D8
:10910000E4FF21494FF00060086010BD10B51A4A15
:10911000506800F00C011D4B1D4800290ED0042999
:109120000ED008290ED003605168194AC1F303110B
:10913000121D515C0268CA40026010BD0360F3E773
:109140000360F1E7516801F47011536803F4803350
:10915000022404EB914133B153689B0307D50D4BB7
:1091600059430160E0E70B4B59430160DCE7074BD3
:1091700059430160D8E7000000100240002002407F
:109180000000FFF8FFFFF6FE08ED00E000127A0095
:109190001800002000093D002A4908432A490860B8
:1091A000704770B50F23C27801260178002A1ED0BF
:1091B000254A126802F4E062C2F5E062120AC2F1C6
:1091C0000404D3404578A54082781A402A4312010E
:1091D00001F1E02181F80024007800F01F018E40A9
:1091E0004009800000F1E020C0F8006170BD01F08E
:1091F0001F0086404809800000F1E020C0F880612F
:1092000070BD124A114001430F48001F01607047B2
:109210000D4A121D002903D01168014311607047E7
:1092200011688143116070474FF0E021042804D099
:10923000086920F0040008617047086940F00400E4
:10924000086170470000FA050CED00E080FFFF1F89
:1092500010B5DB4988420AD144150121204600F0AF
:1092600052FD2046BDE81040002100F04CBDD5491C
:1092700088420AD104150121204600F044FD204611
:10928000BDE81040002100F03EBDCF4988420AD120
:109290000121CC03204600F036FD2046BDE81040F9
:1092A000002100F030BD10BD10B54268C74B1A4018
:1092B0000C790B6842EA0422134343608268C44B72
:1092C0001A40D1E9024323434C7942EA4402134352
:1092D0008360C26A22F47002097C491EC9B242EA64
:1092E0000151C16210BD00210160017141718160B5
:1092F000C160012101747047002904D0816841F0E8
:10930000010181607047816821F00101816070472F
:10931000002904D0816841F48071816070478168C0
:1093200021F4807181607047C9B2002A03D042687D
:109330000A434260704742688A43426070478168CE
:1093400041F00801816070470146002089680907E3
:1093500000D501207047816841F0040181607047A9
:10936000014600208968490700D50120704700297F
:1093700004D0816841F4A00181607047816821F4C4
:10938000A00181607047014600208968490200D52C
:1093900001207047426822F46042491E42EA41318E
:1093A00041607047002904D0416841F40061416088
:1093B0007047416821F400614160704770B507262D
:1093C00009290AD9C568A1F10A0404EB4404A6409E
:1093D000B543A3401D43C56007E0056901EB4104A7
:1093E000A640B543A3401D4305611F23072A09D2A8
:1093F000446B521E02EB820293409C4391400C430B
:10940000446370BD0D2A09D2046BD21F02EB8202A5
:1094100093409C4391400C43046370BDC46A0D3A71
:1094200002EB820293409C4391400C43C46270BDA6
:10943000002904D0816841F48011816070478168FF
:1094400021F4801181607047C06C80B270475C4825
:109450004C3000687047002904D0416841F48061B5
:1094600041607047416821F4806141607047002984
:1094700004D0416841F4805141607047416821F453
:10948000805141607047826822F4E0420A43826062
:109490007047002904D0816841F400418160704721
:1094A000816821F4004181607047002904D08168FF
:1094B00041F4021181607047816821F402118160DA
:1094C0007047014600208968890200D50120704755
:1094D00070B5072609290AD9C568A1F10A0404EB69
:1094E0004404A640B543A3401D43C56007E0056999
:1094F00001EB4104A640B543A3401D430561836BC6
:10950000C3F30154121B921C02EB82021F249440ED
:10951000A34391400B43836370BD826B22F44012DE
:10952000491E42EA01518163704708B500900098D6
:10953000084400900098026008BD08B500900098AB
:109540000844283000900098006880B208BD426846
:10955000204B1A400A434260704741628262704762
:10956000426822F01F020A434260704714490831E2
:10957000002804D0086840F40000086070470868BC
:1095800020F40000086070470246002012680A427A
:1095900000D001207047C9430160704710B50246F2
:1095A00000200B0A5468C9B20C401168194202D05D
:1095B000002C00D0012010BD090AC943016070478A
:1095C0000024014000280140003C0140FFFEF0FF64
:1095D000FDF7F1FFFFFD3FFF01684FF6FE721140FE
:1095E00001600021016041608160C1607249724A7E
:1095F0000839904204D1486840F00F004860704735
:109600006D4A1432904204D1486840F0F00048603E
:109610007047694A2832904204D1486840F470602B
:1096200048607047644A3C32904204D1486840F434
:10963000704048607047604A5032904204D1486898
:1096400040F47020486070475B4A6432904204D115
:10965000486840F4700048607047574A783290423A
:1096600004D1486840F0706048607047534A111F49
:10967000904204D1086840F00F00086070474F4ADC
:109680001432904204D1086840F0F000086070473E
:109690004A4A2832904204D1086840F47060086059
:1096A0007047464A3C32904204D1086840F470400A
:1096B00008607047414A50329042FAD1086840F43D
:1096C00070200860704730B5026847F6F0739A431F
:1096D0000C6A8B682343D1E904452C4323438C69EE
:1096E0002343CC6923434C6A23438C6A23431343AB
:1096F0000360CA6842600A6882604968C16030BD20
:109700000021016041608160C1600161416181614E
:10971000C1610162416281627047002904D0016821
:1097200041F001010160704701684FF6FE7211407F
:1097300001607047002A03D002680A430260704744
:1097400002688A430260704741607047406880B297
:10975000704702460020D10003D51849083909682E
:1097600002E0154908390968114200D0012070470C
:10977000C10003D51149091F086070470E49083917
:109780004860704702460020D10003D50B490839D4
:10979000096802E0084908390968114200D001202F
:1097A0007047C10003D50549091F08607047024989
:1097B0000839486070470000080002400804024071
:1097C00010B59C49884209D10121042000F09BFA80
:1097D0000021BDE81040042000F095BA9649884267
:1097E00009D10121082000F08EFA0021BDE81040C7
:1097F000082000F088BA9149884209D1012110203F
:1098000000F081FA0021BDE81040102000F07BBA82
:109810008B49884209D10121202000F074FA0021EF
:10982000BDE81040202000F06EBA8649884209D178
:109830000121402000F067FA0021BDE810404020DF
:1098400000F061BA8049884209D10121802000F0EE
:109850005AFA0021BDE81040802000F054BA7B493C
:1098600088420AD184150121204600F04CFA204696
:10987000BDE81040002100F046BA10BD10B501212E
:10988000084600F040FA0021BDE81040012000F039
:109890003ABA2DE9F0410022CC7804F00F03E40637
:1098A00001D58C7823430C784FF00F0714F0FF0F8D
:1098B0004FF0010C1CD005680CFA02F40E8826400B
:1098C000A64211D1960007FA06F825EA080503FA20
:1098D00006F848EA0505CE78282E02D0482E02D098
:1098E00002E0446100E00461521C082AE4D30560F0
:1098F0000A88FF2A1ED94568002202F108060CFAE0
:1099000006F40E882640A64210D1960007FA06F803
:1099100025EA080503FA06F848EA0505CE78282E58
:1099200000D14461CE78482E00D10461521C082A2F
:10993000E3D34560BDE8F0814FF6FF71018002215D
:1099400081700421C17070470246002092680A426B
:1099500000D001207047806880B270470246002026
:10996000D2680A4200D001207047C06880B27047B8
:109970000161704741617047002A01D00161704761
:1099800041617047C160704741F4803282618161FA
:10999000826181698069704710B52D4B1A684FF656
:1099A0008074224042EA00100843186010BD294923
:1099B000C8617047F0B5264C002801DAE36900E081
:1099C0006368C0F30346420D120185B2C0F301572C
:1099D0009540032F07D0C2020CD50322B240934317
:1099E00043F0706209E023F07062636823F07063F3
:1099F000636002E0AB4343F0706201B12A43002888
:109A000001DAE261F0BD6260F0BD10B58A07120FA5
:109A10000F23934021F003040D4921448C689C439B
:109A20008C608B68904003438B6010BD0949DC312A
:109A30000860704700080140000C01400010014020
:109A40000014014000180140001C014000200140AA
:109A500000000140000020420D49086070470C4999
:109A6000486070470A498860704709494AF6AA2049
:109A70000860704706494CF6CC40086070470146C4
:109A80000020034AD2680A4200D00120704700003B
:109A900000300040B448016841F0010101604168B4
:109AA000B24A114041600168B14A11400160016849
:109AB00021F480210160416821F4FE0141604FF4EE
:109AC0001F0181607047A8490A6822F480320A6049
:109AD0000A6822F480220A60B0F5803F07D0B0F512
:109AE000802F03D1086840F4A02008607047086800
:109AF00040F48030086070470346002059099A4AB4
:109B000001290AD002290AD0516A03F01F02012359
:109B100093400B4200D0012070471168F5E7116AAD
:109B2000F3E718B5002000904FF4A0643120FFF750
:109B3000E3FF0099491C00910099A14201D000283F
:109B4000F4D03120FFF7D8FF08B1012018BD002064
:109B500018BD854A116821F0F80141EAC000106083
:109B600070478449086070477F4B5A6822F47C1222
:109B700008431043586070477E49086670477A4A28
:109B8000516821F0030101435160704776484068F5
:109B900000F00C007047744A516821F0F001014355
:109BA00051607047704A516821F4E061014351608F
:109BB00070476D4A516821F4605141EAC00050601D
:109BC0007047694A002903D0517A014351727047A6
:109BD000517A8143517270476649D83108607047A5
:109BE000614A516821F440410143516070475E4928
:109BF000002220310A7001F82029012805D004280C
:109C000002D1052081F820007047012081F8200052
:109C1000704759490860704753490A6A02430A620B
:109C20007047554944390860704710B54E4A51682D
:109C300001F00C01514B002927D0042927D0082915
:109C400027D00360516801F0F00109094C4B5C5CBE
:109C50000168E1404160546804F4E064240A1C5D3A
:109C600021FA04F48460546804F46054E40A1B5D2F
:109C7000D940C160526802F44042920B404B1B1F16
:109C80009A5CB1FBF2F1016110BD0360DAE7036099
:109C9000D8E7516801F47011536803F4803302244B
:109CA00004EB914133B153689B0307D5354B5943BE
:109CB0000160C7E7334B59430160C3E72F4B59435A
:109CC0000160BFE7284A002903D05169014351616F
:109CD00070475169814351617047234A002903D07D
:109CE0009169014391617047916981439161704726
:109CF0001D4A002903D0D1690143D1617047D16960
:109D00008143D1617047184A002903D0D1680143CB
:109D1000D1607047D1688143D1607047124A0029F1
:109D200003D01169014311617047116981431161C9
:109D3000704711494039086070470E49C864704740
:109D40000949C87170470848416A41F08071416211
:109D5000704701460020044A92680A4200D0012060
:109D60007047014988727047001002400000FFF8F8
:109D7000FFFFF6FE000042428004424200127A00D9
:109D80003000002000093D00434A002903D011881B
:109D900001431180704711888143118070473E480C
:109DA000001D018841F01001018070473A48001DF4
:109DB000018821F010010180704737481C3000886D
:109DC00035491831098840EA0140704700B502461C
:109DD000FFF7E5FF3049100C18310880081D02809C
:109DE0005DF804EBE2E700B50246FFF7D8FF2A4929
:109DF000C2F3034008310880081D02805DF804EBBF
:109E0000D4E700B50246FFF7CAFF2349100C203102
:109E10000880081D02805DF804EBC7E71E4810307B
:109E200000880007010B1C48143000880843704765
:109E30001948001D01888906FCD570471648001D89
:109E4000018821F00801018001880907FCD57047CD
:109E500001460020104A121D12880A4200D001203B
:109E600070470D49091D0A8882430A8070470A49D4
:109E7000091D0988C2B21140074A1288024202D065
:109E800009B101207047002070470349091D0A8865
:109E900082430A80704700000028004010B5A9499D
:109EA00088420AD1841401212046FFF72CFF204666
:109EB000BDE810400021FFF726BFA34988420AD120
:109EC000041401212046FFF729FF2046BDE8104079
:109ED0000021FFF723BF9D4988420AD1C413012105
:109EE0002046FFF71BFF2046BDE810400021FFF78A
:109EF00015BF10BD30B5028802F441530A884C8862
:109F0000CD8822438C882C4322430C8922434C89E0
:109F100022438C892243CC8922431A430280828BBC
:109F200022F400628283098A018230BDF0B585B0D7
:109F300005460C46022000210126AA8B4FF2400361
:109F40001A40AA8302222A84AF8BA268022A21D057
:109F5000A08800B102266846FFF767FE0098E188F6
:109F6000B1F5007F2CD07101B0FBF1F000EB800067
:109F7000A1684000B0FBF1F0401D80B20A21B0FBA7
:109F8000F1F000F00101401AC0F34F004FF6FF72EC
:109F900002EA0121821EFE2A01D302200021E2886A
:109FA000084302432A8420886188A2890843A18843
:109FB00011430843384340F40060A88305B0F0BD66
:109FC000000A00EB8000A1684000B0FBF1F0401DEA
:109FD00080B2D3E70021018041808180C18001816E
:109FE00041818181C1810721018270470021018067
:109FF00041808180C1800222826081817047002976
:10A0000004D0018841F0400101807047018821F0AF
:10A01000400101807047002904D0818B41F48061A8
:10A0200081837047818B21F48061818370470909A6
:10A0300001238B4099B2002A03D082880A43828090
:10A04000704782888A4382807047002A03D08288C2
:10A050000A438280704782888A4382807047818168
:10A06000704780897047A1F57E42FF3A04D001888D
:10A0700041F4807101807047018821F48071018072
:10A080007047002904D0818841F004018180704725
:10A09000818821F0040181807047028822F40062E7
:10A0A000028002880A4302807047018841F480518F
:10A0B00001807047002904D0018841F400510180DB
:10A0C0007047018821F4005101807047012901D0B7
:10A0D000008B7047808A7047008A7047B1F5804FC7
:10A0E00004D0018821F4804101807047018841F447
:10A0F0008041018070470246002012890A4200D048
:10A1000001207047C9430181704730B502460020E5
:10A1100001F00F03012505FA03F4A3B2090905FABA
:10A1200001F4A4B29188214012891A4202D0002978
:10A1300000D0012030BD01F00F0201219140C94340
:10A14000018170470030014000380040003C004071
:10A1500010B5FE4988420AD1C41401212046FFF7F8
:10A16000D2FD2046BDE810400021FFF7CCBDB0F184
:10A17000804F0CD0F649884213D101210220FFF70D
:10A18000CDFD0021BDE810400220FFF7C7BD012131
:10A190000846FFF7C3FD0021BDE810400120FFF78E
:10A1A000BDBDEC49884209D101210420FFF7B6FD6D
:10A1B0000021BDE810400420FFF7B0BDE649884209
:10A1C00009D101210820FFF7A9FD0021BDE81040B9
:10A1D0000820FFF7A3BDE149884209D101211020E1
:10A1E000FFF79CFD0021BDE810401020FFF796BD51
:10A1F000DB49884209D101212020FFF78FFD002192
:10A20000BDE810402020FFF789BDD64988420AD119
:10A21000441401212046FFF776FD2046BDE810409A
:10A220000021FFF770BDD04988420AD10121CC043A
:10A230002046FFF768FD2046BDE810400021FFF7EB
:10A2400062BDCA4988420AD101210C052046FFF7A8
:10A250005AFD2046BDE810400021FFF754BDC44917
:10A2600088420AD101214C052046FFF74CFD2046CB
:10A27000BDE810400021FFF746BDBE49884209D124
:10A2800001214020FFF74AFD0021BDE81040402099
:10A29000FFF744BDB849884209D101218020FFF76A
:10A2A0003DFD0021BDE810408020FFF737BDB349D8
:10A2B00088420AD1841501212046FFF72FFD204650
:10A2C000BDE810400021FFF729BDAD4988420AD101
:10A2D00001210C042046FFF716FD2046BDE8104082
:10A2E0000021FFF710BDA74988420AD101214C0483
:10A2F0002046FFF708FD2046BDE810400021FFF78B
:10A3000002BDA14988420AD101218C042046FFF7F1
:10A31000FAFC2046BDE810400021FFF7F4BC10BD58
:10A3200030B50288894C8F4DA0420DD0A8420BD089
:10A33000B0F1804F08D0864B984205D0854B9842AB
:10A3400002D0854B984203D122F070034A881A4309
:10A35000824B984206D0824B984203D022F440733D
:10A36000CA881A4302808A8882850A880285A042A8
:10A370000AD0A84208D0824A904205D0814A904231
:10A3800002D0814A904201D1097A0186012181825D
:10A3900030BD30B5028C22F001020284028C838829
:10A3A000048B24F0700424F003050C882C4322F065
:10A3B00002020D8915434A882A43644DA8420BD0F6
:10A3C000684DA84208D06E4DA84205D06D4DA842F8
:10A3D00002D06D4DA8420FD122F008054A892A43C8
:10A3E00022F004058A882A4323F4807323F400733F
:10A3F0008D891D43CB892B4383800483C988818643
:10A40000028430BD70B5028C22F010020284028CEE
:10A410008388048B24F4E04424F440760D884FF6BE
:10A42000FF7404EA0525354322F020020E8904EA70
:10A43000061616434A8804EA02123243434EB042DB
:10A4400002D0484EB04217D122F080024E8904EA71
:10A450000616164326F040068A8804EA02123243A2
:10A4600023F4806323F400638E8904EA86061E4386
:10A47000CB8904EA8303334383800583C98801873A
:10A48000028470BD70B5028C22F480720284028C4A
:10A490008388848B24F0700424F003040D88254302
:10A4A00022F400720E894FF6FF7404EA0626164362
:10A4B0004A8804EA02223243244EB04202D0294E96
:10A4C000B04217D122F400664A8904EA02223243DC
:10A4D00022F480668A8804EA0222324323F48053FD
:10A4E00023F400538E8904EA06161E43CB8904EA3E
:10A4F0000313334383808583C9888187028470BDB9
:10A5000070B5028C22F480520284058C8288838B81
:10A5100023F4E04323F440760C884FF6FF7303EAFC
:10A520000424344325F400550E8903EA06362E43ED
:10A530004D8803EA05353543044EB04202D0094E3A
:10A54000B04226D122F480468A891FE0002C0140C7
:10A550000004004000080040000C004000100040D3
:10A560000014004000340140004C01400050014004
:10A570000054014000180040001C00400020004032
:10A5800000400140004401400048014003EA8212BB
:10A59000324382808483C988A0F84010058470BD4E
:10A5A000828B22F440628283828B4FF6FF7303EA30
:10A5B00001210A4382837047F0B5048C24F480544F
:10A5C0000484868B048C4FF6FF7505EA013726F468
:10A5D000734605EA0222324305EA03331343F74A7E
:10A5E00090420ED0F64A90420BD0B0F1804F08D086
:10A5F000F44A904205D0F44A904202D0F34A904285
:10A6000005D124F40051394341F4805104E024F48D
:10A6100002420A4342F4805183830184F0BD828B5D
:10A6200022F00C028283828B0A4382837047F0B54A
:10A63000048C24F480740484858B048C4FF6FF779B
:10A6400007EA012625F0F30507EA031313432B431A
:10A65000DA4A90420ED0DA4A90420BD0B0F1804FE5
:10A6600008D0D84A904205D0D74A904202D0D74A63
:10A67000904205D124F40071314341F4807104E02B
:10A6800024F420620A4342F4807183830184F0BD84
:10A69000028B22F440620283028B4FF6FF7303EABF
:10A6A00001210A4302837047F0B5048C24F01004A2
:10A6B0000484068B048C4FF6FF7505EA011726F417
:10A6C000734605EA0333334305EA02221A43BB4BC0
:10A6D00098420ED0BA4B98420BD0B0F1804F08D0C0
:10A6E000B84B984205D0B84B984202D0B74B98422D
:10A6F00005D124F02001394341F0100104E024F099
:10A70000A0030B4343F0100102830184F0BD028BD0
:10A7100022F00C020283028B0A430283704770B559
:10A72000048C24F001040484058B048C25F0F305CB
:10A730004FF6FF7606EA031313432B439F4A9042DA
:10A740000ED09F4A90420BD0B0F1804F08D09D4A66
:10A75000904205D09C4A904202D09C4A904205D13A
:10A7600024F002020A4342F0010104E024F00A024C
:10A770000A4342F001010383018470BD70B50546B0
:10A780000C468E48854209D08D48854206D0B5F1E9
:10A79000804F03D08B48854200D08B482088618849
:10A7A000A288238958B1042811D0082817D0284638
:10A7B000FFF702FFE1882846BDE87040F0E6284632
:10A7C000FFF7ADFFE1882846BDE870409FE72846C7
:10A7D000FFF76AFFE1882846BDE8704058E7284641
:10A7E000FFF725FFE1882846BDE8704017E72DE90F
:10A7F000F04107460C46002501266188002900D15A
:10A800000225A288012A00D102262088238988B146
:10A810003846FFF749FFE1883846FFF739FF2389BB
:10A82000324629463846FFF77AFFE1883846BDE8C8
:10A83000F0416CE73846FFF772FFE1883846FFF7D2
:10A8400066FF2389324629463846FFF72DFFE18807
:10A850003846BDE8F0411BE710B50A884B88CC8824
:10A860001A438B8823431A430B891A434B898989DE
:10A870001A430A43A0F8442010BD4FF6FF718180AF
:10A8800000210180C1804180017270470021018058
:10A8900041808180C180018141818181C181704776
:10A8A00000210180418001228280C18001817047A6
:10A8B0000021018041808180C180018141818181AD
:10A8C0007047002904D0018841F0010101807047E0
:10A8D000018821F0010101807047002905D030F87E
:10A8E000441F41F400410180704730F8441FC1F318
:10A8F0000E0101807047002A03D082890A438281B9
:10A90000704782898A4382817047818270471143F0
:10A91000A0F848107047002A03D082890A43828138
:10A92000704782898A4382817047018921F007013B
:10A9300001817047028922F070020A430281704748
:10A9400000B503461846FFF7F5FF188940F00700E9
:10A95000188100BD70B50D4604461146602D0CD01F
:10A9600001222046FFF7DBFE29462046FFF7E2FFE3
:10A97000208940F00700208170BD01222046FFF7AA
:10A9800093FEF1E730B50489E4B24FF6FF7505EAAE
:10A99000032313430B432343038130BD10B5044607
:10A9A0002046FFF7EFFF208920F0070040F0070066
:10A9B00020F0700040F07000208110BD002C01409C
:10A9C000003401400004004000080040000C00403A
:10A9D00010B504462046FFF7D5FF208940F480409B
:10A9E0002081EAE7018582827047028822F07002A6
:10A9F0000A430280704770B50589048B068C25F0E8
:10AA000007050D434FF6FC410C4040F201110C4389
:10AA100026F022064FF6FF7101EA0311114331437C
:10AA200005810483018470BD028B22F070020A4309
:10AA300002837047028B22F4E0424FF6FF7303EA71
:10AA40000121114301837047828B22F070020A4377
:10AA500082837047828B22F4E0424FF6FF7303EA51
:10AA60000121114381837047002904D0018841F0FE
:10AA7000800101807047018821F0800101807047CA
:10AA8000002904D0818841F00401818070478188C9
:10AA900021F0040181807047002904D0818841F0B1
:10AAA000080181807047818821F00801818070470A
:10AAB000002904D0818841F001018180704781889C
:10AAC00021F0010181807047028B22F008020A43C5
:10AAD00002837047028B22F400624FF6FF7303EA91
:10AAE0000121114301837047828B22F008020A433F
:10AAF00082837047828B22F400624FF6FF7303EA71
:10AB00000121114381837047028B22F004020A4322
:10AB100002837047028B22F480624FF6FF7303EAD0
:10AB20000121114301837047828B22F004020A4302
:10AB300082837047828B22F480624FF6FF7303EAB0
:10AB40000121114381837047028B22F080020A4366
:10AB500002837047028BC2F30E024FF6FF7303EAC3
:10AB60000121114301837047828B22F080020A4346
:10AB700082837047828BC2F30E024FF6FF7303EAA3
:10AB80000121114381837047028C22F002020A43A3
:10AB900002847047028C22F008020A430284704744
:10ABA000028C22F020024FF6FF7303EA01111143D9
:10ABB00001847047028C22F080024FF6FF7303EA93
:10ABC0000111114301847047028C22F400724FF688
:10ABD000FF7303EA0121114301847047028C22F4C0
:10ABE00000624FF6FF7303EA0121114301847047AD
:10ABF000028C22F400524FF6FF7303EA0131114335
:10AC00000184704710B501238B40048C9C4304845D
:10AC1000038C8A4013430384CFE610B504238B4092
:10AC2000048C9C430484038C8A4013430384C4E64D
:10AC300030B500F1180301248C40058CA543058430
:10AC4000002911D008290FD0091FC1F34E00184464
:10AC5000016821F4E041016001684FF6FF7303EAE7
:10AC600002221143016030BD03EB5100016821F065
:10AC70007001016001681143016030BD002904D0FA
:10AC8000018841F0020101807047018821F0020132
:10AC900001807047002904D0018841F0040101803F
:10ACA0007047018821F0040101807047002904D019
:10ACB000818841F0800181807047818821F0800186
:10ACC00081807047028822F00802028002880A43CD
:10ACD00002807047828822F07002828082880A4354
:10ACE00082807047028922F00702028102890A43AA
:10ACF00002817047028922F08002028102890A43A0
:10AD000002817047818470478185704781867047D2
:10AD10000187704781877047A0F84010704702880C
:10AD200022F44072028002880A4302807047808EBB
:10AD30007047008F7047808F7047B0F840007047B1
:10AD4000808C7047008D704702460020128A0A42AC
:10AD500000D001207047C94301827047024600209D
:10AD6000138A0B4092890A40002B02D0002A00D09F
:10AD700001207047C94301827047000010B5E149C6
:10AD800088420AD101218C032046FEF7BCFF2046F1
:10AD9000BDE810400021FEF7B6BFDB4988420AD16A
:10ADA00001214C042046FEF7B9FF2046BDE81040C3
:10ADB0000021FEF7B3BFD54988420AD101218C0496
:10ADC0002046FEF7ABFF2046BDE810400021FEF70D
:10ADD000A5BFCF4988420AD10121CC042046FEF705
:10ADE0009DFF2046BDE810400021FEF797BFC949EE
:10ADF00088420AD101210C052046FEF78FFF20462C
:10AE0000BDE810400021FEF789BF10BD30B585B008
:10AE100004460D46208A4CF6FF710840E98801433C
:10AE20002182A0894EF6F3110840A9882A8911438E
:10AE30006A8902431143A181A08A4FF6FF4108406D
:10AE4000A9890143A1826846FEF7EFFEAD4884421E
:10AE500001D1039800E00298A189090408D500EB0C
:10AE6000C00101EB001029684900B0FBF1F007E0D8
:10AE700000EBC00101EB001029688900B0FBF1F084
:10AE80006422B0FBF2F109010B096FF018056B4366
:10AE900000EB8300A3891D044FF0320307D503EBB9
:10AEA000C000B0FBF2F000F00700084306E003EB3F
:10AEB0000010B0FBF2F000F00F000843208105B055
:10AEC00030BD4FF41651016000218180C1800181A5
:10AED0000C2242818181704710B5038A4FF2FF0234
:10AEE00013400A884C8822438C88C9880C4322432B
:10AEF0001A43028210BD0021018041808180C180FF
:10AF00007047002904D0818941F400518181704744
:10AF1000818921F400518181704710B540F66A1390
:10AF2000C1F3421301F01F040121A140012B07D0FE
:10AF3000022B07D014303AB102680A43026010BDF8
:10AF40000C30F8E71030F6E702688A43026010BD63
:10AF5000002A03D0828A0A4382827047828A8A4307
:10AF600082827047028A22F00F020282028A0A431A
:10AF700002827047828922F40062828182890A43B8
:10AF800082817047002904D0818941F002018181CA
:10AF90007047818921F0020181817047028A22F085
:10AFA00020020282028A0A4302827047002904D0EA
:10AFB000018A41F4804101827047018A21F4804175
:10AFC00001827047C1F30801818070478088C0F317
:10AFD00008007047818941F0010181817047028B2F
:10AFE000D2B20283028B42EA012101837047028BB5
:10AFF00002F47F420283028B0A43028370470029D6
:10B0000004D0818A41F0200181827047818A21F039
:10B01000200181827047002904D0818A41F010010B
:10B0200081827047818A21F0100181827047002956
:10B0300004D0818A41F0080181827047818A21F021
:10B04000080181827047002904D0818941F40041C0
:10B05000818170478189C1F30E0181817047002988
:10B0600004D0818A41F4006181827047818A21F491
:10B07000006181827047828A22F004028282828A81
:10B080000A4382827047002904D0818A41F002017C
:10B0900081827047818A21F00201818270470246D5
:10B0A000002012880A4200D0012070478A05C94357
:10B0B0000180704770B5002440F66A12C1F3421354
:10B0C00001F01F05012606FA05F2012B0CD0022B18
:10B0D0000DD0838A1340090A8E40008830400BB19E
:10B0E00000B10124204670BD83891340F3E7038A31
:10B0F0001340F0E740F66A120A0A01219140C94361
:10B100000180704700380140004400400048004082
:10B11000004C00400050004010B50120FEF709FE31
:10B12000BDE810400020FEF704BE204908607047CB
:10B130001E49091F086070471C4984310860704728
:10B140001B4A118821F46071014311807047184A2D
:10B15000118821F07F0101431180704708B5144A1E
:10B160002C3A104400900098016008BD08B51049C1
:10B170002C39084400900098008808BD0B489C308A
:10B180000068C0B270470A480830018841F00101E8
:10B19000018070470548A0300068C0B2704704487D
:10B1A0000830018841F002010180704704860D4299
:10B1B0002C6C004010B501210C072046FEF7AEFDB7
:10B1C0002046BDE810400021FEF7A8BD21490862D5
:10B1D00070472049086170471F4A116821F0E0015B
:10B1E0000143116070471B49A031086070471A4B3A
:10B1F0001A6822F0030202431A601848026842F0FB
:10B2000004020260012905D020BF016821F0040179
:10B210000160704730BFF8E70F48016841F0040152
:10B220000160016841F0020101600C48016841F0D1
:10B230000401016030BF704701460020064A526891
:10B240000A4200D00120704703490A6842EA8000A0
:10B250000860704700000E420070004010ED00E0F2
:10B2600038B50420ADF8000048208DF80300724C7A
:10B2700069462046FEF70DFB04212046FEF778FBC9
:10B2800038BD08B50420ADF8000010208DF803008B
:10B2900003208DF8020069466748FEF7FAFA08BDF8
:10B2A00038B501210420FEF718FD0C20ADF8000090
:10B2B00010208DF8030003208DF802005E4C6946D3
:10B2C0002046FEF7E6FA0C212046FEF751FB38BD7A
:10B2D00070B5FFF7D6FF594C012020606060042054
:10B2E00004F07CF900252560042004F077F96560FE
:10B2F00070BD10B5FFF7C5FF504C002060602060A6
:10B30000042004F06BF9012060602060BDE810406B
:10B31000042004F063B970B50024FFF7A1FF484D85
:10B320000126C5F88861012004F058F9C5F88C6140
:10B33000012004F053F907E0641CE4B2FA2C03D9AD
:10B34000FFF7D7FF012070BDD5F808010028F3D121
:10B35000C5F88C0170BD70B5384C00256560FFF7ED
:10B3600090FF2560022004F039F90120606002207E
:10B3700004F034F9656070BD70B5304C002565602F
:10B38000FFF77FFF01262660022004F027F96660A0
:10B39000022004F023F9656070BD2DE9F0410546F7
:10B3A000FFF76FFF264E4FF00008C6F88C8100248F
:10B3B0000127E809C6F888016806050E022004F096
:10B3C0000DF9C6F88C71022004F008F9C6F88C81DA
:10B3D000022004F003F9641CE4B2082CE9D3BDE8B0
:10B3E000F0812DE9F04781460024FFF739FF002561
:10B3F000134E00274FF00108C6F88C71022004F0AC
:10B40000EDF8C6F88C816006040ED6F8080108B184
:10B41000641CE4B2012004F0E1F86D1CEDB2082DCB
:10B42000EAD3B9F1000F04D0FFF795FF2046BDE83D
:10B43000F087FFF7A1FFF9E70008014088012142EA
:10B440000000214270B505466C4C02212046FEF7F3
:10B4500052FE0028F9D029462046FEF700FE0121C1
:10B460002046FEF748FE0028F9D02046FEF7F9FDF9
:10B47000C0B270BD01466148028822F038020280E5
:10B4800002880A4302800121FEF7B9BD30B587B0BA
:10B49000012141F20800FEF720FC01210846FEF7D9
:10B4A00089FA3824ADF8184018208DF81B000320C5
:10B4B0008DF81A00524D06A92846FEF7EAF9BDF8A4
:10B4C00018102846FEF754FA0020ADF804004FF497
:10B4D0008271ADF80610ADF80800ADF80A00ADF8BD
:10B4E0000C006915ADF80E10ADF81040ADF8120063
:10B4F0000720ADF81400414C01A92046FEF7FAFCE4
:10B5000001212046FEF77BFDFF20FFF79BFF322045
:10B5100004F084F80820FFF7ADFFFF20FFF792FF4B
:10B5200007B030BD01463748028822F03802028059
:10B5300002880A4302800121FEF761BD70B505460D
:10B54000304C02212046FEF7D6FD0028F9D02946CE
:10B550002046FEF784FD01212046FEF7CCFD0028A1
:10B56000F9D02046FEF77DFDC0B270BD70B586B043
:10B5700001210820FEF7B1FB01218803FEF7B8FB8B
:10B580004FF46045ADF8145018248DF8174003208F
:10B590008DF816001A4E05A93046FEF77AF92946AD
:10B5A0003046FEF7E5F90020ADF800004FF4827157
:10B5B000ADF80210ADF804000221ADF8061001212B
:10B5C000ADF808104902ADF80A10ADF80C40ADF81E
:10B5D0000E000720ADF810000A4C69462046FEF721
:10B5E00089FC01212046FEF70AFDFF20FFF7A6FF98
:10B5F0003820FFF797FF06B070BD00000030014013
:10B60000000C01400038004070486F4941607049AB
:10B61000416070476D48016941F0800101617047E8
:10B620006A48C068C10701D001207047410701D5B1
:10B6300002207047C00601D50320704700207047E4
:10B6400070B50446FFF7ECFF0546012D05D103F068
:10B65000C5FF641EA4B2002CF4D104B9FF2528460E
:10B6600070BD70B5054645F6FF763046FFF7E8FF3A
:10B67000002812D1554C206940F00200206165611C
:10B68000206940F0400020613046FFF7D9FF0128D3
:10B6900003D0216921F00201216170BD70B5064619
:10B6A0000D46FF20FFF7CCFF00280ED1474C206944
:10B6B00040F0010020613580FF20FFF7C1FF012825
:10B6C00003D0216921F00101216170BD008870471C
:10B6D000C10703D030F8010C000A70470088C0B2DF
:10B6E00070472DE9F04105460E461746002407E055
:10B6F00036F814102846FFF7D1FFAD1C641CA4B225
:10B70000BC42F5D3BDE8F08110B50446002307E044
:10B710002046FFF7DBFF21F81300A41C5B1C9BB243
:10B720009342F5D310BD30B504460D46002306E024
:10B730002046FFF7CDFFE854641C5B1C9BB293428C
:10B74000F6D330BD70472DE9F047ADF5006D0D46DD
:10B75000904600240746A0F10060B0F5002F23D2E8
:10B7600000264FF48069EA4615E06878000215F873
:10B77000021B08442146641CA4B22AF811004A4660
:10B78000944206D1002469463846FFF7AAFF07F520
:10B790000067B61CB6B24645E7D3002C04D022465B
:10B7A00069463846FFF79DFF0DF5006DBDE8F0874F
:10B7B00010B54168074C21600068FCF7C3FC2068A5
:10B7C000BDE810400047000023016745002002400B
:10B7D000AB89EFCD44000020FFF762BD70B5044691
:10B7E0000025604E691E306803F047FC012824D113
:10B7F000FFF77FFD0A2003F0F1FEFFF769FD200A45
:10B80000A02101EB4000C0B2FFF7C7FDFFF783FDA9
:10B81000E0B2FFF7C2FDFFF77EFDFFF759FDA12063
:10B82000FFF7BBFDFFF777FD0020FFF7DAFD0546C8
:10B83000FFF75FFD306803F068FB284670BD70B508
:10B8400004460E46474D4FF0FF31286803F015FCC3
:10B85000012823D1FFF74DFD012003F0DFFEFFF7A4
:10B8600037FD200AA02101EB4000C0B2FFF795FD93
:10B87000FFF751FDE0B2FFF790FDFFF74CFD3046BA
:10B88000FFF78BFDFFF747FDFFF733FD052003F0C2
:10B89000C5FE2868BDE8704003F037BB70BD2DE9D8
:10B8A000F04106460D461746002409E0E00025FA5F
:10B8B00000F0C1B2301980B2FFF7C1FF641CE4B2DE
:10B8C000BC42F3D3BDE8F0812DE9F04102460E46BB
:10B8D00000200024971908E00502381B401E80B2A2
:10B8E000FFF77CFF2844641CE4B2B442F4D3E9E7D8
:10B8F00010B5FF20FFF772FF55280AD05521FF2011
:10B90000FFF79DFFFF20FFF769FF552803D00120B7
:10B9100010BD002010BD002010BD70B504460E46BD
:10B92000154608E02046641CA4B2FFF757FF06F84E
:10B93000010B6D1EADB2002DF4D170BD70B5064681
:10B940000D46144606E029783046FFF778FF761C4E
:10B95000B6B26D1C641EA4B2F5D270BD6FE76EE77F
:10B960003CE73BE73003002010B5784C012120462E
:10B97000FFF7EAF92046BDE810400121FFF7EBB9D7
:10B980007FB504460D4601210220FEF7B1F9ADF85E
:10B990000840ADF804500024ADF80A40ADF8064068
:10B9A0006A4D01A92846FEF7BBFC1D218DF8001049
:10B9B0008DF8014002218DF8021001218DF803104D
:10B9C0006846FDF7EEFB012211462846FEF793FF7D
:10B9D00001212846FEF775FF7FBD10B5FCF7EEFB91
:10B9E0005B4C01212046FFF7AFF95A4A012802D1EA
:10B9F0005068401C506058490B880020B3F57A7F8E
:10BA000003D20B885B1C0B8000E008801178491C76
:10BA1000C9B211700A2900D1107001212046FFF728
:10BA20009AF9BDE81040FCF7D0BB7FB504460D463F
:10BA300001211020FEF75CF9ADF80840ADF8045084
:10BA40000020ADF80A00ADF80600414C01A92046DF
:10BA5000FEF766FC36218DF8001001218DF80110EB
:10BA600003228DF802208DF803106846FDF799FB3C
:10BA7000012211462046FEF73EFF01212046FEF737
:10BA800020FF7FBD10B588B001210420FEF730F9FA
:10BA900001212120FEF721F901210C032046FDF7A9
:10BAA00089FF4FF4E041ADF81C1018218DF81F10EC
:10BAB00003218DF81E1007A92848FDF7EAFEADF80E
:10BAC00014400020ADF81000ADF81600ADF81200DB
:10BAD000234C04A92046FEF723FC7021ADF800108A
:10BAE0000121ADF802100221ADF808106946204688
:10BAF000FEF74FFC69462046FEF784FC6946204667
:10BB0000FEF7C0FC08212046FEF7DEFF0821204694
:10BB1000FEF7E0FF08212046FEF7E6FF0121204660
:10BB2000FEF7CFFE08B010BD0D4A002806D0012850
:10BB300007D0022808D11046FFF7ECB81046FFF7EF
:10BB4000E5B81046FFF7E4B8704700000004004075
:10BB50000010004048000020A40300200014014011
:10BB60000008004038B501210820FEF7B6F8C020D3
:10BB7000ADF8000010208DF8030003248DF802407A
:10BB8000FE4D69462846FDF784FEA915ADF8001064
:10BB900048218DF803108DF8024069462846FDF7CC
:10BBA00078FE40F2CF216420FFF73FFF8021284636
:10BBB000FDF7E0FE0A2003F031FD80212846FDF765
:10BBC000D7FE0A2003F02AFD80212846FDF7D2FE89
:10BBD0000A2003F023FD80212846FDF7C9FE0A2034
:10BBE00003F01CFD80212846FDF7C4FE0A2003F067
:10BBF00015FD80212846FDF7BBFE0A2003F00EFD4F
:10BC000080212846FDF7B6FE0A2003F007FD8021BB
:10BC10002846FDF7ADFE0A2003F000FD38BD70B5E3
:10BC200004460D46D54E40213046FDF7A3FE05F0F3
:10BC30001F002043FFF706FCFF20FFF703FC04462C
:10BC4000280603D5FF20FFF7FDFB044640213046C0
:10BC5000FDF78EFE204670BD2DE9F04104460D46ED
:10BC60001746C64E40213046FDF784FE05F01F0002
:10BC70002043FFF7E7FB3846FFF7E4FB3046BDE81B
:10BC8000F0414021FDF774BE70B505460C46BB4E31
:10BC900040213046FDF76EFE3A20FFF7D3FB05E06A
:10BCA0006D1E0020FFF7CEFB04F8010B002DF7D12D
:10BCB000002020703046BDE870404021FDF758BE9E
:10BCC00070B504460D46AD4E40213046FDF752FE9C
:10BCD0007A20FFF7B7FB04E0641E2878FFF7B2FB79
:10BCE0006D1C002CF8D13046BDE870404021FDF7B6
:10BCF0003FBE70B50546A24E05F060043078844220
:10BD00000BD003221F21A020FFF7A6FFC5F341128D
:10BD10001F218020FFF7A0FF347070BD10B50446CE
:10BD20002046FFF7E6FF2146BDE81040002076E7F9
:10BD300070B505460C462846FFF7DBFF224629462C
:10BD4000BDE87040402087E770B50D4600240146ED
:10BD5000D420FFF7EDFFE9B2D620FFF7E9FFC5F3E6
:10BD60000721D720FFF7E4FF40F6FF7501E0641CD0
:10BD7000A4B2EA20FFF7D2FFC00701D0AC42F6D34D
:10BD800070BD70B505460024FFF7ECFE4FF4FA765F
:10BD900009E0FF2200211046FFF75EFF641CA4B2F9
:10BDA0000A2003F03BFC1D20FFF7B8FFC00701D1BC
:10BDB000B442EED3B44201D3012070BD70490020DB
:10BDC000486000210820FFF7B3FF00210920FFF79A
:10BDD000AFFF00210C20FFF7ABFF00210D20FFF784
:10BDE000A7FF10210A20FFF7A3FF1A210B20FFF75E
:10BDF0009FFF11210420FFF79BFF1A210520FFF769
:10BE000097FFFF210620FFF793FF1F210720FFF771
:10BE10008FFFA1213820FFF78BFF3F212820FFF75C
:10BE200087FF30212920FFF783FFF9213020FFF71A
:10BE30007FFFF7213120FFF77BFF0D21C020FFF7A7
:10BE400077FF0021C120FFF773FF3322C22180203A
:10BE5000FFF702FF1221C620FFF76AFF0C21C7205F
:10BE6000FFF766FF1521C420FFF762FFEE21CA200D
:10BE7000FFF75EFF0521CB20FFF75AFF2978E4206A
:10BE8000FFF756FF6978E520FFF752FFA978E22017
:10BE9000FFF74EFFE978E320FFF74AFF2979E0201A
:10BEA000FFF746FF6979E120FFF742FF4FF4807406
:10BEB00021460020FFF748FF21461020FFF744FFEE
:10BEC0001F20FFF716FFC0221B218020FFF7C4FEB2
:10BED00004221F218020FFF7BFFEE420FFF71EFF92
:10BEE0002978884201D1002070BD012070BD7220E8
:10BEF00014E770B505460E4611210220FFF718FF22
:10BF00001A210320FFF714FF41F611202C18E1B28B
:10BF10000620FFF70DFFC4F307210720FFF708FFF6
:10BF2000002211467A20FFF797FE31462846FFF798
:10BF3000C7FE08221F218020FFF78EFE1C20FFF77E
:10BF4000EDFE800705D5BDE8704008221F21A02026
:10BF500082E670BD2DE9F04106460F463920FFF715
:10BF6000DDFED8B3064D00202979FFF7E1FEA88851
:10BF7000C0F307210120FFF7DBFE03E0000C0140C6
:10BF80005000002000213A20FFF749FE68600021A0
:10BF90003A20FFF744FE696841EA0020686000210A
:10BFA0003A20FFF73CFE044600213A20FFF737FE17
:10BFB00044EA0024241F00213A20FFF730FE804687
:10BFC00000213A20FFF72BFE48EA0020711E8C4228
:10BFD00000D9741E000605D4002407E0FFE7002006
:10BFE000BDE8F08139462046FFF74EFE29790C2046
:10BFF000FFF79EFEA888C0F307210D20FFF798FEEB
:10C0000040221E218020FFF727FE2046E8E700009F
:10C0100030B5FA4A0024C2F8AC410123C2F8B43169
:10C020000021050602D5C2F8BC3101E0C2F8BC41CE
:10C03000C2F8B841C2F8B8314006000E491CC9B276
:10C040000829EED3C2F8AC3130BD30B5EB4A00233D
:10C05000C2F8AC31C2F8B43100210124050602D582
:10C06000C2F8BC4101E0C2F8BC31C2F8B831C2F834
:10C07000B8414006000E491CC9B20829EED3C2F8E7
:10C08000AC4130BD3830C0B2DFE710B50446002007
:10C09000FFF7F8FF4034E0B2BDE81040D5E710B537
:10C0A00004460020FFF7EEFF04F00F002409E03003
:10C0B000C0B2FFF7CAFFF034E0B2BDE81040C4E7F9
:10C0C0002DE9F04107461E46203AD5B201EB410169
:10C0D000032000EB410808F0FF00FFF7E0FF7806BF
:10C0E000000EFFF7D2FF0024C54905EB450001EB28
:10C0F000800506B3285DC043C0B2FFF789FF641C0A
:10C10000E4B2062CF5D308F0FF00FFF7C8FF0120CA
:10C1100000EB4700C0B2FFF7B8FF00247EB128193A
:10C120008079C043C0B2FFF773FF641CE4B2062CF1
:10C13000F4D3BDE8F081285DFFF76AFFDFE7281937
:10C140008079FFF765FFF0E770B50646002442F6F8
:10C15000A0053046FFF75CFF641CA4B2AC42F8D3E4
:10C1600070BD2DE9F04781460E4690461F460024DB
:10C17000384619F037FAC5B2C6F11500A8420ADAF6
:10C18000C5B208E03019C1B23A5D43464846FFF7F0
:10C1900097FF641CE4B2AC42F4D3BDE8F087002200
:10C1A00098A31146DDE7F0B5002442F21075642330
:10C1B0000A264FF47A77A84221D3B0FBF5F4303445
:10C1C0000C70B0FBF5F405FB1400B0FBF7F4303451
:10C1D0004C70B0FBF7F407FB1400B0FBF3F4303401
:10C1E0008C70B0FBF3F403FB1400B0FBF6F33033B8
:10C1F0000424CB70B0FBF6F306FB13003AE0B84220
:10C2000019D3B0FBF7F430340C70B0FBF7F407FB34
:10C210001400B0FBF3F430344C70B0FBF3F403FBC8
:10C220001400B0FBF6F3303303248B70B0FBF6F34D
:10C2300006FB13001EE0642811D3B0FBF3F4303486
:10C240000C70B0FBF3F403FB1400B0FBF6F33033D7
:10C2500002244B70B0FBF6F306FB13000AE00A2839
:10C2600008D3B0FBF6F3303301240B70B0FBF6F3C8
:10C2700006FB13003030631CDBB208550020C854A5
:10C28000002A1DD09A420DD35B1CDBB206E01C1ABB
:10C29000651815F8015C0D55401CC0B29842F6D3E4
:10C2A000302008700020551C05E01C1A0E5D0C445F
:10C2B0006670401CC0B2A842F7D32E209A1A885448
:10C2C000F0BD2DE9FC471446DDE90AA980460E467B
:10C2D0001A4620B2052A02D90020BDE8FC87B8F131
:10C2E000050F01D8152E01D90020F6E700250028FA
:10C2F00002DA0125404284B269462046FFF753FF27
:10C30000684619F06FF9C4B26F46BAF1000F03D056
:10C31000BAF1010F23D04BE03DB14B462D223146FF
:10C320004046FFF7CDFE012516E0002508E0701914
:10C33000C1B27A5D4B464046FFF7C2FE6D1CEDB2BE
:10C34000A542F4D334E07019C1B27A5D4B46404641
:10C35000FFF7B6FE6D1CEDB2A542F4D328E00DB197
:10C3600000251CE000250BE0601B38444B4610F80C
:10C37000012C701BC1B24046FFF7A2FE6D1CEDB24E
:10C38000A542F1D314E0601B38444B4610F8012C51
:10C39000701BC1B24046FFF793FE6D1CEDB2A54283
:10C3A000F1D3701BC1B24B462D224046FFF788FEE9
:10C3B000204692E710B5194A107901280CD1114690
:10C3C000A2F1100408782379497833B1D278012397
:10C3D000FFF776FE0020207110BD92780123FFF751
:10C3E0006FFE0120207110BD10B50C4C20706170E3
:10C3F000A270E3700120207110BD000000002342F4
:10C400008882020820202020202020202020202098
:10C410002020202020202020200000006800002074
:10C42000F749002008717047F549012010398870DC
:10C430007047F34900201039887070470EB5F148F5
:10C44000417802788379CDE9003202914379B0F8DE
:10C450000320EB48ECA1401D1AF038FB0EBD2DE97E
:10C46000F84FE74D0020103D687005F1150019F0F8
:10C47000B9F8C4B2EB4E68782246304405F1150194
:10C4800019F074F8687820446870E74819F0AAF841
:10C49000C4B2687822463044E34919F067F86878F6
:10C4A00020446870E0480B3019F09CF8C4B26878FA
:10C4B000DD49304422460B3119F058F868782044A1
:10C4C0006870287868B1D94819F08CF8C4B26878D7
:10C4D00022463044D54919F049F8687820446870FC
:10C4E0000EE0D248C01C19F07DF8C4B26878CF497C
:10C4F00030442246C91C19F039F868782044687025
:10C50000C948163019F06EF8C4B26878C64930448C
:10C510002246163119F02AF8687820446870DFF84E
:10C520001083C449C44F98F80000097888420DD19F
:10C53000BE4819F057F8C4B2687822463044BB4967
:10C5400019F014F86878204468703EE0002422E076
:10C5500004EB84003B5CB94803F0070200EBD30016
:10C56000012100789140084213D1ECB3B44AB5A13F
:10C57000B6481AF0ABFAB54819F034F800F0FF09E4
:10C5800068784A463044B14918F0F0FF687848446A
:10C590006870641CE4B298F800008442D8D36878CC
:10C5A000401E6870A14AAAA10832A8481AF08EFA63
:10C5B000A64819F017F8C4B2687822463044A34957
:10C5C00018F0D4FF6878204468700822687896498B
:10C5D00030441F3118F0CAFF6878083068709D48F1
:10C5E000007830F0800000E008E00DD00024DFF893
:10C5F0003892DFF864A209F1280939E0974A98A136
:10C6000092481AF063FAB6E78748283018F0EAFF34
:10C61000C4B26878844930442246283118F0A6FF15
:10C620006878204468702CE004EB84003B5C9CB389
:10C63000601E00EB80000AEB8000807BB0B100EB55
:10C64000C000484400907E4A86A180481AF03EFA15
:10C650007E4818F0C7FF00F0FF0B68785A46304458
:10C660007A4918F083FF687858446870641CE4B213
:10C6700098F800008442D7D368782021304400F82D
:10C68000011C032268787AA1304418F06FFF6878A3
:10C69000C01C6870BDE8F88FFFE776480078012875
:10C6A000E4D175486D4A75A1807B00EBC00000EBBA
:10C6B000090366481AF00AFA644818F093FF00F07C
:10C6C000FF0B68785A463044604918F04FFF68788D
:10C6D00058446870CAE72DE9F0478146DDE908084B
:10C6E0008A4615461F462038C6B2BAF1820F33D2A9
:10C6F0005046FFF7D4FC4FEA4960000EFFF7C5FC37
:10C700002C46604800EB061609E0B8F1000F12D085
:10C71000305DC043C0B2FFF77BFC641CE4B2BC4296
:10C72000F3D35046FFF7BBFC012000EB4900C0B239
:10C73000FFF7ABFC0EE0305DFFF76AFCEDE7B8F108
:10C74000000F0AD07019007AC043C0B2FFF760FC36
:10C750006D1CEDB2BD42F2D31FE57019007AFFF7F0
:10C7600057FCF5E72DE9FC41254E103EB078002836
:10C7700044D0B079DFF8AC80411CC9B218F8002071
:10C780007078B1FBF0F300FB13140027CDE900270C
:10C790000823727939460420FFF79DFF7079072836
:10C7A00072D20125601C18F80420C0B27178B0FB69
:10C7B000F1F301FB1304CDE9002770790823C0EBE6
:10C7C000C500C1B200220420FFF785FF6D1CEDB249
:10C7D000102DE7D3601C18F80410C0B27278B0FBBB
:10C7E000F2F0CDE9001770790022011DCBB2C0EB49
:10C7F000C500C1B20420FFF76EFF71E080E043E0A6
:10C800006800002082000020253034642D2530325D
:10C81000642D2530326420253032643A253032646C
:10C820000000000074060020F88C020878820208DC
:10C83000BE010020C0010020E89300208C9400205D
:10C84000BFA50208257325752C0000003C9500202B
:10C8500025730000A901002010800020B8A502085F
:10C8600025732C00257325753A25732C00000000D4
:10C8700020202000A8010020FC7F002025733A25FD
:10C88000732C0000088702080125601C18F804209A
:10C89000C0B27178B0FBF1F301FB1304CDE90027BE
:10C8A00070790823C0EBC500C1B200220420FFF755
:10C8B00012FF6D1CEDB2112DE7D3601C18F80410A7
:10C8C000C0B27278B0FBF2F0CDE9001770790022A7
:10C8D000811ECBB2C0EBC500C1B20420FFF7FBFE46
:10C8E0007079401CC0B27071082809D37771B07993
:10C8F000401CC0B27178B0FBF1F201FB1200B071C4
:10C90000BDE8FC8110B5434A00211160424CE07043
:10C9100002F087F8A0606FE510B53F4CE078002882
:10C9200011D002F07EF8E060A168411AE07800EBD7
:10C930004002C2EBC010B1EBC00F04D33549012057
:10C9400008600020E07057E538B501214020FDF770
:10C95000C4F94FF47C44ADF8004010208DF803007A
:10C9600003208DF802002D4D69462846FCF791FF03
:10C9700021462846FCF7FCFF38BD10B5FFF7E4FF61
:10C98000244C002008342060322002F047FE0120B1
:10C9900020600A2002F042FE0120FFF773FB0A200C
:10C9A00002F01CFE1120FFF750FB0A2002F016FED9
:10C9B000AE20FFF74AFB0A2002F010FE0820FFF726
:10C9C00044FB0A2002F00AFE0020FFF75BFB0A206E
:10C9D00002F004FE0520FFF738FB0C20FFF735FBC3
:10C9E0000020FFF75CFB0020FFF74FFB0A2002F05E
:10C9F000F5FDBDE810400020FFF7A6BB06490A2060
:10CA00000870704704490878002801D0401E08705B
:10CA100070470000A8012342580000200018014080
:10CA200008B503208DF8000004208DF801008DF872
:10CA3000020001208DF803006846FCF7B2FB08BD38
:10CA4000810701D0002070476421B0FBF1F201FBA7
:10CA5000120109B1012070474FF4C871B0FBF1F227
:10CA600001FB120008B1002070470120704730B56B
:10CA70006423B0FBF3F4E4B2B0FBF3F503FB150061
:10CA8000132C01D96430C0B200EB90030724B3FB30
:10CA9000F4F504FB15337E4D1A440D4415F8015C82
:10CAA0002A4492B2800703D1032901D2521E92B2C6
:10CAB000B2FBF4F004FB102030BD2DE9F047FDF788
:10CAC0007CF90746DFF8CC81B7FBF8F47248061D05
:10CAD0004188A14235D0448040F2B2754FF4B77915
:10CAE0004FF4B67A0FE02846FFF7AAFF38B14C455D
:10CAF00002D3A4F5B77404E06D1CADB205E0A4F256
:10CB00006D146D1CADB25445EDD8A6F80350002548
:10CB1000DFF87C9109F10C090DE0B6F80300FFF78E
:10CB20008FFF08B1012D30D019F80500A04204D8BC
:10CB3000241A6D1CADB21C2CEFD26D1C7571641CD7
:10CB4000B471B7FBF8F008FB10704FF46161B0FBF3
:10CB5000F1F23270B0FBF1F201FB12033C22B3FBA5
:10CB6000F2F37370B0FBF1F301FB1300B0FBF2F1D1
:10CB700002FB1100B070B2797179B6F80300FFF7CB
:10CB800076FFF0710020BDE8F0871D2CD5D31D3C49
:10CB9000CFE710B501214FF0C050FDF7A9F80120F3
:10CBA000FEF714FBFEF7B8FA0120FDF720F83BA0D2
:10CBB0000BF067FE4120FCF79FFF0028FAD03EA053
:10CBC0000BF05FFE4FF48070FDF726F80120FDF7B3
:10CBD00028F8FDF733F9FDF72BF901210846FDF799
:10CBE000D3F8FDF725F947F6FF70FDF7FCF8BDE82F
:10CBF0001040FDF71DB90120704710B5FFF710FF79
:10CC000031A00BF03EFE0420FEF7B0FA4AF2A55424
:10CC1000A0420ED034A00BF034FEFFF7BAFF3AA0CA
:10CC20000BF02FFEFFF7E7FF21460420FEF796FAF0
:10CC30000AE03BA00BF025FEFDF700F901210846B4
:10CC4000FDF7A2F8FDF7F4F8FDF77DF8002010BD20
:10CC500010B50120FDF70BF930B1FFF72EFF0E489C
:10CC6000017889B1002101700220FDF700F910B1AF
:10CC70000220FDF70AF90520FDF707F9FDF7D8F8BE
:10CC8000BDE81040FFF7DABB01210170ECE70000BE
:10CC9000448D0208805101007E0000200D0A2057BB
:10CCA0006169742074696C6C204C53452069732051
:10CCB00072656164790000000D0A204C53452069BB
:10CCC00073207265616479000D0A205468697320CD
:10CCD00069732061205254432064656D6F2E2E2E9F
:10CCE0002E2E2E200D0A00000D0A0A205254432039
:10CCF0006E6F742079657420636F6E6669677572F4
:10CD000065642E2E2E2E00000D0A205254432063FF
:10CD10006F6E666967757265642E2E2E2E00000098
:10CD20000D0A204E6F206E65656420746F20636F5E
:10CD30006E666967757265205254432E2E2E2E0042
:10CD400038B501210420FCF7C8FF01214048FCF759
:10CD500031FE4FF47044ADF8004048208DF80300D8
:10CD600003208DF802003B4D69462846FCF791FDF3
:10CD700021462846FCF7FCFD38BD2DE9F041002492
:10CD8000344F3846FCF7E7FD4FF4704626EA0005BD
:10CD9000142002F043FC3846FCF7DDFD86433540A5
:10CDA000E80400D5BC14A80401D544F40054680478
:10CDB00001D544F48044280401D544F40044200BF8
:10CDC000BDE8F08108B50221052001F077FF224C73
:10CDD0006060FFF7B5FF21A00BF053FD642002F067
:10CDE0001DFCFFF7CAFF0090618888420BD000232A
:10CDF0001A466946606802F003F8BDF800006080DA
:10CE0000002020701FE0F0B12178462903D340F4C0
:10CE1000407000900AE0322903D340F40070009083
:10CE200004E01E2902D340F4807000900A2905D343
:10CE300000231A466946606801F0E2FF2078462820
:10CE400001D2401C2070642001F060FCC9E70000A2
:10CE500000043000000801408C0000204B65792060
:10CE60005461736B0D0A000070B5FEF70AFAFA4CB4
:10CE7000002525601E2002F0B1FB65601E2002F037
:10CE8000ADFB0120206060601E2002F0A7FB256042
:10CE90001E2002F0A3FB656070BD10B5FEF7F1F92E
:10CEA0001E2002F09BFBEC4C0020606020601E20E6
:10CEB00002F094FB01206060206010BD2DE9F0417C
:10CEC00004460825FEF7DDF9E44E4FF0000801277F
:10CED000200602D5C6F8887101E0C6F88881600690
:10CEE000040E1E2002F07AFBC6F88C711E2002F0A0
:10CEF00075FBC6F88C816D1E15F0FF05E8D1BDE805
:10CF0000F0812DE9F0470024FEF7AAF90025D34E61
:10CF100001274FF6FF78A1461E2002F05FFBC6F8FE
:10CF20008C711E2002F05AFBD6F8080118B107EBED
:10CF3000440084B201E008EA4404C6F88C916D1CF8
:10CF4000EDB2102DE8D32046BDE8F08770B500247F
:10CF5000FEF786F90A2002F041FBC04D0026D5F805
:10CF60000801C0B250B1022002F038FB641CE4B2E8
:10CF70000A2CF4D3C5F88C61012070BD0120C5F8DE
:10CF80008C01322002F02AFBC5F88C61002070BDB4
:10CF900070B50024FEF764F9B04D06E0641CE4B2FD
:10CFA000642C19D0012002F019FBD5F808010028E3
:10CFB000F4D0FEF766F91E2002F010FB05F5C475EB
:10CFC00000242C601E2002F009FB01266E601E204A
:10CFD00002F004FB6C602E6070BD70B5A04C0020A8
:10CFE0002070FFF741FFC220FFF768FF1E2002F00C
:10CFF000F5FAFFF7ABFF40B1FFF74FFF20780128AC
:10D0000001D0002070BD012070BD1E2002F0E6FAA4
:10D01000FFF777FF0646FFF7BBFF1E2002F0DEFAA0
:10D02000FFF76FFF0546FFF738FF692D01D1207824
:10D0300008B1002070BDF0B2E070642801D9002072
:10D0400070BD012070BD70472DE9FE4300200090A7
:10D0500001900290DFF8089289F80000FFF704FFC2
:10D06000C120FFF72BFF1E2002F0B8FAFFF76EFF7A
:10D0700020B1FFF712FF0020BDE8FE831E2002F062
:10D08000ADFAFFF73EFF0546ADF80000FFF780FF61
:10D090001E2002F0A3FAFFF734FF0646ADF80200A7
:10D0A000FFF776FF1E2002F099FAFFF72AFF0746E6
:10D0B000ADF80400FFF76CFF1E2002F08FFAFFF7B7
:10D0C00020FF0446ADF80600FFF762FF1E2002F0C5
:10D0D00085FAFFF716FFADF808008046FFF7DDFE82
:10D0E000A8193919084481B2884502D199F800007D
:10D0F00008B10020C0E75B4805804680C7820476FF
:10D100000120B9E770B50446554E00203070FFF796
:10D11000ABFEE520FFF7D2FEE5250A2002F05EFA1D
:10D12000FFF714FF18B1FFF7B8FE002070BDC4F37D
:10D130000720FFF7C3FE05EB242085B21E2002F076
:10D140004DFAFFF703FF18B1FFF7A7FE002070BDEF
:10D15000E0B2FFF7B3FEE0B2284484B21E2002F032
:10D160003DFAFFF7F3FE18B1FFF797FE002070BD00
:10D170001E2002F033FAFFF7C4FEA04208D1FFF7E9
:10D180008CFE3078012801D0012070BD002070BDD8
:10D19000FFF783FE002070BD70B50446304E0020BE
:10D1A0003070FFF761FEE620FFF788FEE6251E20BF
:10D1B00002F014FAFFF7CAFE18B1FFF76EFE002066
:10D1C00070BD200AFFF77AFE05EB142085B21E2001
:10D1D00002F004FAFFF7BAFE18B1FFF75EFE002076
:10D1E00070BDE0B2FFF76AFEE0B2284484B21E20B0
:10D1F00002F0F4F9FFF7AAFE18B1FFF74EFE002087
:10D2000070BD1E2002F0EAF9FFF77BFEA04208D1B4
:10D21000FFF743FE3078012801D0012070BD0020C7
:10D2200070BDFFF73AFE002070BD2DE9F0410446C5
:10D230000D460B4F00203870FFF716FED320FFF786
:10D240003DFED3261E2002F0C9F9FFF77FFE58B13C
:10D25000FFF723FE002052E6880121420000214210
:10D26000940000203C070020200AFFF727FE06EB71
:10D27000142086B21E2002F0B1F9FFF767FE18B144
:10D28000FFF70BFE00203AE6E0B2FFF717FEE0B230
:10D29000304484B21E2002F0A1F9FFF757FE18B106
:10D2A000FFF7FBFD00202AE6280AFFF707FE04EB44
:10D2B000152084B21E2002F091F9FFF747FE18B145
:10D2C000FFF7EBFD00201AE6E8B2FFF7F7FDE8B242
:10D2D000204484B21E2002F081F9FFF737FE18B116
:10D2E000FFF7DBFD00200AE61E2002F077F9FFF7CA
:10D2F00008FEA04208D1FFF7D0FD3878012801D000
:10D300000120FCE50020FAE5FFF7C7FD0020F6E567
:10D3100010B5FD4C00202070FFF7A6FDE420FFF7BC
:10D32000CDFD1E2002F05AF9FFF710FE18B1FFF7ED
:10D33000B4FD002010BD1E2002F050F9FFF7E1FD02
:10D34000E42803D0FFF7A9FD002010BDFFF7A5FDDD
:10D350002078012801D0012010BD002010BD2DE94A
:10D36000FC47044688469146002000900190E64F15
:10D370003870FFF779FDD420FFF7A0FD1E2002F0E2
:10D380002DF9FFF7E3FD20B1FFF787FD0020BDE891
:10D39000FC872046FFF792FD1E2002F01FF9FFF7E1
:10D3A000D5FD18B1FFF779FD0020F0E71E2002F04F
:10D3B00015F9FFF7A6FDADF800000446FFF7E8FDFC
:10D3C0001E2002F00BF9FFF79CFDADF802000546A8
:10D3D000FFF7DEFD1E2002F001F9FFF792FDADF828
:10D3E00004000646FFF7D4FDFFF757FD601981B230
:10D3F0008E4201D1387808B10020C8E7A8F8004073
:10D40000A9F800500120C2E72DE9FC410646FFF7CC
:10D410002BFDEF20FFF752FD1E2002F0DFF8FFF793
:10D4200095FD20B1FFF739FD0020BDE8FC811E20ED
:10D4300002F0D4F8FFF765FDADF800000546FFF7F0
:10D44000A7FD1E2002F0CAF8FFF75BFDADF8020051
:10D450000446FFF79DFD1E2002F0C0F8FFF751FDC6
:10D46000ADF804000746FFF793FD1E2002F0B6F862
:10D47000FFF713FD281981B28F4204D104EB052078
:10D4800030800120D1E70020CFE72DE9FE4304469C
:10D490000D460020009001900290DFF86C9289F810
:10D4A0000000FFF7E1FC2046FFF708FD1E2002F018
:10D4B00095F8FFF74BFD18B1FFF7EFFC0020DBE517
:10D4C0002846FFF7FBFC1E2002F088F8FFF73EFD20
:10D4D00018B1FFF7E2FC0020CEE51E2002F07EF836
:10D4E000FFF70FFD0546ADF80000FFF751FD1E20C8
:10D4F00002F074F8FFF705FD0646ADF80200FFF7ED
:10D5000047FD1E2002F06AF8FFF7FBFC0746ADF866
:10D510000400FFF73DFD1E2002F060F8FFF7F1FC6C
:10D520000446ADF80600FFF733FD1E2002F056F862
:10D53000FFF7E7FCADF808008046FFF7AEFCA8193E
:10D540003919084481B2884502D199F8000008B120
:10D55000002091E56D4805804680C7820476012051
:10D560008AE52DE9FC470446DDF828900D4616466D
:10D570009846002000900190634F3870FFF774FCCC
:10D580002046FFF79BFC1E2002F028F8FFF7DEFC88
:10D5900018B1FFF782FC0020F9E62846FFF78EFC61
:10D5A0001E2002F01BF8FFF7D1FC18B1FFF775FC45
:10D5B0000020ECE63046FFF781FC1E2002F00EF85A
:10D5C000FFF7C4FC18B1FFF768FC0020DFE61E205F
:10D5D00002F004F8FFF795FCADF800000446FFF7F1
:10D5E000D7FC1E2001F0FAFFFFF78BFCADF802001C
:10D5F0000546FFF7CDFC1E2001F0F0FFFFF781FC90
:10D60000ADF804000646FFF7C3FCFFF746FC6019BF
:10D6100081B28E4201D1387808B10020B7E6A8F86F
:10D620000040A9F800500120B1E62DE9FC41074671
:10D630000D461446002000900190334E3070FFF7E5
:10D6400013FC3846FFF73AFC1E2001F0C7FFFFF736
:10D650007DFC28B1FFF721FC0A2020800020E4E6B1
:10D660002846FFF72BFC1E2001F0B8FFFFF76EFCE9
:10D6700028B1FFF712FC0B2020800020D5E6FFF731
:10D6800040FCADF800000546FFF782FC1E2001F0CB
:10D69000A5FFFFF736FCADF802000746FFF778FC60
:10D6A0001E2001F09BFFFFF72CFCADF80400804624
:10D6B000FFF76EFC1E2001F091FFFFF7EEFBE8196B
:10D6C00081B2884501D1307818B10C20208000202B
:10D6D000ABE625800120A8E62DE9F04106460D467F
:10D6E0001446094F00203870FFF7BEFB3046FFF7A5
:10D6F000E5FB1E2001F072FFFFF728FC40B1FFF7A9
:10D70000CCFB0020A7E50000940000203C0700208F
:10D710002846FFF7D3FB1E2001F060FFFFF716FC41
:10D7200018B1FFF7BAFB002095E57019C0B2FFF7FA
:10D73000C5FB1E2001F052FFFFF708FC18B1FFF7F0
:10D74000ACFB002087E5C4F30720FFF7B7FBC4F369
:10D750000F251E2001F042FFFFF7F8FB18B1FFF77D
:10D760009CFB002077E5E0B2FFF7A8FBE0B228447D
:10D7700084B21E2001F032FFFFF7E8FB18B1FFF77B
:10D780008CFB002067E51E2001F028FFFFF7B9FBA6
:10D79000A04208D1FFF781FB3878012801D0012091
:10D7A00059E5002057E5FFF778FB002053E52DE908
:10D7B000F04180460E4615461C46F24F0020387058
:10D7C000FFF752FB4046FFF779FB1E2001F006FFF2
:10D7D000FFF7BCFB18B1FFF760FB00203BE53046CC
:10D7E000FFF76CFB1E2001F0F9FEFFF7AFFB18B14D
:10D7F000FFF753FB00202EE508EB0600C0B2FFF751
:10D800005DFB1E2001F0EAFEFFF7A0FB18B1FFF759
:10D8100044FB00201FE52E0A3046FFF74FFB1E2079
:10D8200001F0DCFEFFF792FB18B1FFF736FB00209A
:10D8300011E5E8B2FFF742FBE8B2304485B21E20A2
:10D8400001F0CCFEFFF782FB18B1FFF726FB0020AA
:10D8500001E5200AFFF732FB05EB142085B21E20FC
:10D8600001F0BCFEFFF772FB18B1FFF716FB0020BA
:10D87000F1E4E0B2FFF722FBE0B2284484B21E20BC
:10D8800001F0ACFEFFF762FB18B1FFF706FB0020CA
:10D89000E1E41E2001F0A2FEFFF733FBA04208D115
:10D8A000FFF7FBFA3878012801D00120D3E40020EB
:10D8B000D1E4FFF7F2FA0020CDE42DE9FE4F044653
:10D8C0000D460020009001900290DFF8B8A28AF87F
:10D8D0000000FFF7C9FA2046FFF7F0FA1E2001F01A
:10D8E0007DFEFFF733FB20B1FFF7D7FA0020BDE83C
:10D8F000FE8F2846FFF7E2FA1E2001F06FFEFFF7C9
:10D9000025FB18B1FFF7C9FA0020F0E7FFF7F9FA95
:10D910000546ADF80000FFF73BFB1E2001F05EFE60
:10D92000FFF7EFFA0646ADF80200FFF731FB1E20C5
:10D9300001F054FEFFF7E5FA0746ADF80400FFF7E3
:10D9400027FB1E2001F04AFEFFF7DBFA0446ADF884
:10D950000600FFF71DFB1E2001F040FEFFF7D1FA85
:10D96000ADF808008046FFF713FB1E2001F036FEDD
:10D97000FFF7C7FAADF80A008146FFF78EFAA8193B
:10D9800039190844404481B2894502D19AF800000F
:10D9900008B10020ABE77C4805804680C78204764A
:10D9A0000120A4E71CB504467648C1786F291AD037
:10D9B0000A2918D0DE2916D07348828804B93AB1F2
:10D9C00001210020CDE900100B460C21FEF779FC67
:10D9D000002C08D002B000232522BDE810400D2104
:10D9E0001846FEF76DBB1CBD6648C078182801D2EA
:10D9F000FFF72ABB04D14FF0C1014FF05A0044E5B4
:10DA0000192801D000207047C1215A2055E75D49EF
:10DA1000C978182901D2FFF775BB192903D8024626
:10DA2000E5215A2058E60020704730B4554AD47892
:10DA3000182C02D230BCFFF7F8BB192C05D80B46C6
:10DA40000246D32130BC5A20B1E630BC00207047DA
:10DA500008B513464B4AD278182A03D21A46BDE8B5
:10DA600008407CE4192A07D800930B460246D421CB
:10DA70005A20FFF776FD08BD002008BD4148C07858
:10DA8000182800D244E4192803D80122E4215A209E
:10DA900022E6002070473B49C978182901D2FFF7D8
:10DAA0007BBB192903D802B2E6215A2014E60020D4
:10DAB00070473449C978182900D2A5E4192903D838
:10DAC0000246EF215A20B0E5002070472D49C97861
:10DAD000182903D90246D5215A20FDE500207047B8
