:020000040800F2
:10800000A8FB0020D9810008A98F0008AF8F0008C5
:10801000B78F0008BF8F0008C78F0008000000005E
:108020000000000000000000000000004D8100087A
:10803000D58F00080000000081810008D1F20008FF
:10804000F3810008F3810008F38100088DCC00085B
:10805000F3810008F3810008F3810008F381000830
:10806000F3810008F3810008F3810008F381000820
:10807000F3810008F3810008F3810008F381000810
:10808000F3810008F3810008F3810008F381000800
:10809000F3810008F3810008F3810008F3810008F0
:1080A000F3810008F3810008F3810008F3810008E0
:1080B000F381000891B90008F3810008F3810008FA
:1080C000F3810008F3810008F3810008F3810008C0
:1080D000F3810008E3180108B77201088B770108E3
:1080E000F3810008F3810008F3810008F3810008A0
:1080F000F3810008F3810008F3810008F381000890
:10810000F3810008F3810008F3810008F38100087F
:10811000F3810008F381000803BA0008F381000826
:10812000F3810008F3810008F3810008F38100085F
:10813000DFF80CD01DF0A0FB00480047178D0008A9
:10814000A8FB002080F30888704700001A4B1968CC
:108150000868B0E8F00F80F309884FF0000080F362
:1081600011884EF00D0E70470000000003480068B3
:10817000006880F3088862B600DF00BF08ED00E009
:10818000EFF309800C4B1A6820E9F00F106008B576
:108190004FF0000080F3118806F08DFB4FF00000D7
:1081A00080F31188BDE8084019680868B0E8F00F4E
:1081B00080F30988704700BF9C00002001B44FF095
:1081C000000080F3118801BC704701B44FF000003B
:1081D00080F3118801BC7047064880470648004775
:1081E000FEE7FEE7FEE7FEE7FEE7FEE7FEE7FEE767
:1081F000FEE7FEE7F5900008318100081CF009BF9A
:1082000054656D636F48554D4E455400000000178E
:1082100000000000FE4E002786F83C70FDA010F024
:10822000EEFC642007F05CFA0EF090FA04F007FC14
:1082300096F83C00012838D11E36717C3170B07E32
:108240007072B08B70812E2003F00DFB717A3B2091
:1082500003F009FB7089010A3C2003F004FBB07AAB
:108260001E3EC1B23D2003F0FEFA002574191A34F7
:10827000617C2170A07D6071A07E607205F12F008D
:1082800003F0F1FA617905F1330003F0ECFA617A59
:1082900005F1370003F0E7FA6D1CEDB2042DE5D3CC
:1082A000E0490120087086F83C704FF47A7006F0BF
:1082B0008FFAB9E709F009FCDB48DC49007808705F
:1082C000DBA010F09CFC642007F00AFADB4DDC4CCC
:1082D000287830B1401EC0B22870012801D10CF0BE
:1082E00016FE207830B12078401E2070207808B922
:1082F00009F0F0FA052006F06BFAE9E710B5D1486D
:108300000DF0BCFD17F078FAC1480178407841EAD9
:108310000020CD49486017F076FA15F0E1FF4FF0E4
:10832000FF300DF07AFEC94900200870C849087076
:10833000C8490870C8493820087010BD86B0B44CD0
:10834000002084F83D00FFF7D9FF002017F00CFD56
:10835000002018F003FCC1A010F051FC642007F0CD
:10836000BFF94FF41675A07C68B9009000232A4627
:10837000BD4901A817F019FA024622B10023BA49F3
:1083800001A818F0BCFB052006F022FAEBE72DE966
:10839000F041AD48417800290CD1012141704FF4E2
:1083A000FA71083007F0B6F9A74842F210711030A0
:1083B00007F0B0F908F00DFCAC4F388018B34FF45B
:1083C000006007F012FAAA4CA18988420BD1012063
:1083D00007F060FB3888002855D008F0D2FABDE8D5
:1083E000F04108F0FEBB40F6060007F0FEF9A18957
:1083F000884248D108F079FA3888002843D0BDE88F
:10840000F04108F0EEBB9048083007F095F90028DD
:1084100039D08D48083007F084F90024954D964EE8
:1084200004EB840005EBC0003060022007F032FB53
:10843000388818B108F0A5FA08F0D3FB641CE4B240
:10844000142CEDD300248D4D8D4E05EB841030603F
:10845000052007F01FFB388818B108F092FA08F0E1
:10846000C0FB641CE4B20A2CEFD37748103007F04D
:1084700063F9002807D07448103007F052F9BDE8BE
:10848000F04108F0B6B9BDE8F08100247DA010F0FD
:10849000B6FB642007F024F9624D6B4EFFF777FFBF
:1084A0002878012802D0307801281AD1641CE4B25F
:1084B0000A2C16D10024002028703078012814D00E
:1084C000002003F055FE72A300220621012003F0D4
:1084D0005CFE73A300220321022003F056FE09F084
:1084E000D4FB052006F074F9D8E7002003F040FE25
:1084F00070A300220621012003F047FE68A300229A
:108500000321022003F041FEE9E701F0C2BA2DE9A0
:10851000FC5F03F075F90FF0EEFC002003F072F938
:108520003B4F3870012003F06DF97870022003F0A2
:1085300069F9B870032003F065F9F870162003F0AC
:1085400061F983468DF80000172003F05BF98DF880
:1085500001000546182003F055F98DF80200804609
:10856000192003F04FF98DF80300032401264FF082
:10857000040A4FF00209BBF1FF0F1ED1FF2D1CD1E1
:10858000B8F1FF0F19D1FF2817D131468DF80060DF
:108590008DF801908DF802408DF803A0162003F0AD
:1085A00062F94946172003F05EF92146182003F0CE
:1085B0005AF95146192003F056F99DF801109DF81B
:1085C00000009DF80220090400EB006001EB02218D
:1085D00008441D4948601721042003F044F9002194
:1085E000052003F040F9062003F00CF93871FF284C
:1085F00000D020B9FE213971062003F034F907209C
:1086000003F000F9B873D4285DD0D421B97357E0D2
:10861000C86E0020466C617368205461736B0D0A4C
:10862000000000005B0100206501002066010020C1
:10863000434F4D4D205461736B0D0A0063010020C0
:108640006101002071010020000000206003002073
:108650006103002063030020620300204D53545047
:10866000205461736B0D0A001C04002004010020DB
:10867000185900201C6100202001002064640020A3
:10868000240100204E6574205461736B0D0A0000B4
:1086900052657374617274696E672E2E2E0000002D
:1086A000446F6E277420706F776572206F66662145
:1086B000000000005570646174696E672E2E2E00F4
:1086C000072003F0D0F8082003F09CF8F873FF2887
:1086D00000D020B90821F973082003F0C4F8102055
:1086E00003F090F87873112003F08CF838744FF48D
:1086F000F56003F087F8FE490870002520B10128D5
:1087000002D0022800D00D70152003F07BF83873DA
:10871000042804D931463E73152003F0A4F8387BB1
:10872000DFF8D08305282CD2DFE800F0030C141CFE
:1087300024004FF41650B86006F066FE062088F854
:1087400000001EE04FF49640B86006F05DFE88F829
:10875000004016E04FF41640B86006F055FE88F869
:1087600000900EE04FF46140B86006F04DFE88F8CE
:10877000006006E04FF4E130B86006F045FE88F88E
:108780000060142003F03EF8B874032805D020B12F
:108790002146BC74142003F066F80024E84604F176
:1087A000280003F02FF808F80400641CE4B2062C3B
:1087B000F5D39DF80000FF283ED19DF80100FF2869
:1087C0003AD19DF80200FF2836D19DF80300FF281A
:1087D00032D19DF80400FF282ED19DF80500FF2816
:1087E0002AD151468DF800A08DF8019035208DF8E2
:1087F0000200AF208DF803008DF804508DF805605D
:10880000282003F030F89DF80110292003F02BF800
:108810009DF802102A2003F026F89DF803102B2063
:1088200003F021F89DF804102C2003F01CF89DF8AB
:1088300005102D2003F017F800203A1818F8001042
:108840001175401CC0B20628F7D3002404F12F0094
:1088500002F0D8FF08F80400641CE4B2042CF5D33D
:108860009DF800004FF0C00BFF2828D19DF80100B3
:10887000FF2824D19DF80200FF2820D19DF8030095
:10888000FF281CD159468DF800B0A8208DF80100B2
:108890008DF80250B7208DF803002F2002F0E3FF7F
:1088A0009DF80110302002F0DEFF9DF8021031200B
:1088B00002F0D9FF9DF80310322002F0D4FF00200F
:1088C0003A1818F80010917682F82B10401CC0B2AC
:1088D0000428F5D32E2002F095FF8DF80000012822
:1088E00005D929468DF800502E2002F0BCFF9DF8D6
:1088F0000000B87787F82F00002404F1330002F05D
:1089000081FF08F80400641CE4B2042CF5D39DF840
:108910000000FF2820D19DF80100FF281CD19DF800
:108920000200FF2818D19DF80300FF2814D1FF2171
:108930008DF80350332002F096FF9DF8011034208B
:1089400002F091FF9DF80210352002F08CFF9DF897
:108950000310362002F087FF00203A1818F80010A4
:10896000D17782F83010401CC0B20428F5D300241F
:1089700004F1370002F046FF08F80400641CE4B27A
:10898000042CF5D39DF80000FF2827D19DF80100A5
:10899000FF2823D19DF80200FF281FD19DF8030076
:1089A000FF281BD159468DF800B0A8208DF8010092
:1089B0008DF802508DF803A0372002F054FF9DF887
:1089C0000110382002F04FFF9DF80210392002F00C
:1089D0004AFF9DF803103A2002F045FF00203A18A4
:1089E00018F8001002F8231F5174401CC0B204286C
:1089F000F5D33B2002F006FF8DF80000FF2805D1DB
:108A000029468DF800503B2002F02DFF9DF8000014
:108A100087F8270087F838003C2002F0F3FE8DF835
:108A200000003D2002F0EEFE8DF801009DF80010E0
:108A3000FF2909D1FF2807D14FF4FB7038858DF845
:108A40000060F6208DF801009DF801009DF80010EF
:108A500040EA01203885788787F83C50FD74264825
:108A60000570452002F091FF244908701424002865
:108A70007ED0FF287CD0142800D90C70462002F04C
:108A800084FF1F490870002873D0FF2871D0142874
:108A900000D90C70512002F078FF0446522002F0F9
:108AA00074FF44EA0020174C2081532002F06DFF30
:108AB0000746542002F069FF47EA002000B26081B7
:108AC000B4F90810814200DD20815F2002F05DFFD3
:108AD0000746602002F059FF47EA0020A08061208D
:108AE00002F053FF0746622002F04FFF0CE0000047
:108AF0006701002062010020A9010020AB010020D5
:108B0000AC010020FE01002047EA002000B2E08016
:108B1000B4F90410814200DDA080632002F035FF2B
:108B20000746642002F031FF47EA002020806520DC
:108B300002F02BFF0746662002F027FF47EA0020DD
:108B400000B26080B4F90010814200DD2080562020
:108B500002F01BFFDA49E8B3FF2855D00E7057200A
:108B600002F013FFD74C2070582002F00EFF01E0F6
:108B700044E046E06070592002F007FFA0705A20E0
:108B800002F003FFE070217830390A290DD26178B4
:108B900039290AD8302908D3A178392905D83029AC
:108BA00003D3392801D8302818D23121217032203E
:108BB00060703320A0703420E070572002F0E3FE94
:108BC0006178582002F0DFFEA178592002F0DBFE28
:108BD000E17800E018E05A2002F0D5FE5E2002F0B5
:108BE000D4FEB949087040F20477384602F0CDFE51
:108BF000B64CA0760526FF2808D00CE081F800903E
:108C00003CE781F8009045E70D70A8E7A6760521BE
:108C1000384602F0B8FE40F20377384602F0B5FE5F
:108C20006076FF2804D166760521384602F0ABFE57
:108C300040F20277384602F0A8FEA5490870FF28E6
:108C400004D10E700521384602F09DFE2561A56015
:108C50001522A04940F2617002F073FE40F2767076
:108C600002F093FE044640F2777002F08EFE44EA72
:108C70000020994C20804FF4EF6002F086FE0546FC
:108C800040F2797002F081FE45EA0020608040F2F7
:108C90007A7002F07AFE054640F27B7002F075FEB3
:108CA00045EA0020A08040F27C7002F06EFE05468E
:108CB00040F27D7002F069FE45EA0020E08040F25B
:108CC0007E7002F062FE054640F27F7002F05DFEAB
:108CD00045EA002020814FF4F06002F056FE054680
:108CE00040F2817002F051FE45EA00206081BDE84B
:108CF000FC9F10B545F2555000F0C2FE052000F073
:108D0000C2FE4FF47A6000F0C1FE00F0C7FEBDE87D
:108D1000104000F0BEBE2DE9FF414FF4407000F05E
:108D20004FFA482006F0A8FCFFF7E3FF01211420CA
:108D300006F026F8694C20600121142006F020F886
:108D4000674E306006F021F9664D286006F01DF987
:108D500065490860216829B3316819B3296809B3E6
:108D600000B303F027FE002260A31146104603F073
:108D70000CFAFFF7CCFB5448007803F0D7FD0DF058
:108D80000DFD02F097FB00225DA31146012003F0C8
:108D9000FCF900225DA31146022003F0F6F9FFF76B
:108DA000B4FB03E0FEE7642006F09AFC07F09EFEA9
:108DB0000028F8D1002258A31146032003F0E5F95A
:108DC00058A00FF01CFF002259A31146042003F005
:108DD000DCF9642006F084FCFFF797FB00240125F2
:108DE000CDE900544FF4C07602942346324652A196
:108DF0005248039405F074FBCDE90054029400231B
:108E000032464FA15048039405F06AFB0226CDE993
:108E10000064029400232A024CA14E48039405F0FA
:108E20005FFB0527CDE900740294002380224AA14C
:108E30004F48039405F054FBCDE9005402940023FD
:108E400080224CA14F48039405F04AFBCDE9006411
:108E50000294002340F25C624BA14D48039405F05C
:108E60003FFBCDE9005402940023802249A14B48E6
:108E7000039405F035FBCDE90074029400238022B1
:108E800047A14848039405F02BFB06200FF082FF12
:108E900005F006FE04B00020BDE8F081C1B2000A72
:108EA00040EA01207047C0F30723C0F30741020ED8
:108EB000000640EA034040EA0120104370470000EA
:108EC0002303002024030020280300203C07002067
:108ED000190200207101002010950020E4010020FB
:108EE000D80100207C02002030030020496E697404
:108EF00069616C697A6174696F6E2E2E2E000000B4
:108F000045455020697320446F6E650052544320DC
:108F1000697320446F6E65004E6574206973204448
:108F20006F6E6500434F325F4E45540A0D000000DE
:108F3000446F6E65000000004E4554008B840008AD
:108F40004D535450000000003D830008434F4D4DE9
:108F500000000000B58200085570646174655F54BC
:108F6000656D70657261747572655F5461736B00D5
:108F7000EF870108765374617274504944546173E9
:108F80006B00000035D60108464C415348000000F4
:108F9000158200084F75745075740000737B0108CA
:108FA0004B45590001CE00080FA00FF028BE11A0BC
:108FB0000FF025FEFBE712A00FF021FEFBE713A048
:108FC0000FF01DFEFBE714A00FF019FEFBE716A043
:108FD0000FF015BE16A00FF012BE17A00FF00FBEB7
:108FE00017A00FF00CBE00004E4D49206661756C55
:108FF0007400000068617264206661756C74000022
:109000004D656D204661756C7420000042757320BB
:109010004661756C74200000557361676520466178
:10902000756C7420000000005356432000000000BF
:10903000446562756720000050656E2000000000E6
:109040005379735469636B20000000000CB5002253
:10905000019200925148016841F4803101604FF45F
:10906000A063016801F4003100910199491C01914C
:10907000009911B901999942F3D10168890302D588
:109080000121009100E000920099012930D144496A
:109090000A6842F010020A600A6822F003020A60BD
:1090A0000A6842F002020A6041684160416841601A
:1090B000416841F480614160416821F47C11416064
:1090C000416841F4E8114160016841F0807101603C
:1090D00001688901FCD5416821F0030141604168C4
:1090E00041F0020141604168C1F381010229FAD1D6
:1090F0000CBDABE710B52948016841F001010160E2
:109100004168284A114041600168274A11400160C6
:10911000016821F480210160416821F4FE01416071
:109120004FF41F018160FFF7E4FF21491F480860E9
:1091300010BD10B5194A506800F00C011D4B1E48B7
:1091400000290ED004290ED008290ED003605168E2
:10915000194AC1F30311121D515C0268CA40026032
:1091600010BD0360F3E70360F1E7516801F470118B
:10917000536803F48033022404EB914133B1536804
:109180009B0307D50D4B59430160E0E70B4B594357
:109190000160DCE7074B59430160D8E7001002404B
:1091A000002002400000FFF8FFFFF6FE00800008EC
:1091B00008ED00E000127A001800002000093D00D0
:1091C0002A4908432A490860704770B50F23C278BE
:1091D00001260178002A1ED0254A126802F4E062B6
:1091E000C2F5E062120AC2F10404D3404578A540FA
:1091F00082781A402A43120101F1E02181F800240B
:10920000007800F01F018E404009800000F1E0204E
:10921000C0F8006170BD01F01F0086404809800061
:1092200000F1E020C0F8806170BD124A1140014396
:109230000F48001F016070470D4A121D002903D01E
:1092400011680143116070471168814311607047D4
:109250004FF0E021042804D0086920F004000861E0
:109260007047086940F00400086170470000FA0583
:109270000CED00E080FFFF1F10B5DB4988420AD1EA
:1092800044150121204600F052FD2046BDE8104063
:10929000002100F04CBDD54988420AD104150121B6
:1092A000204600F044FD2046BDE81040002100F0BB
:1092B0003EBDCF4988420AD10121CC03204600F0AF
:1092C00036FD2046BDE81040002100F030BD10BD45
:1092D00010B54268C74B1A400C790B6842EA042269
:1092E000134343608268C44B1A40D1E902432343CD
:1092F0004C7942EA440213438360C26A22F470024A
:10930000097C491EC9B242EA0151C16210BD002167
:109310000160017141718160C16001210174704778
:10932000002904D0816841F00101816070478168A3
:1093300021F0010181607047002904D0816841F467
:10934000807181607047816821F48071816070470D
:10935000C9B2002A03D042680A434260704742689B
:109360008A4342607047816841F00801816070471C
:10937000014600208968090700D5012070478168EF
:1093800041F0040181607047014600208968490767
:1093900000D501207047002904D0816841F4A00164
:1093A00081607047816821F4A001816070470146A7
:1093B00000208968490200D501207047426822F4E4
:1093C0006042491E42EA413141607047002904D0A1
:1093D000416841F4006141607047416821F40061D7
:1093E0004160704770B5072609290AD9C568A1F1FF
:1093F0000A0404EB4404A640B543A3401D43C560E2
:1094000007E0056901EB4104A640B543A3401D43B5
:1094100005611F23072A09D2446B521E02EB820208
:1094200093409C4391400C43446370BD0D2A09D284
:10943000046BD21F02EB820293409C4391400C4389
:10944000046370BDC46A0D3A02EB820293409C43F0
:1094500091400C43C46270BD002904D0816841F47E
:10946000801181607047816821F4801181607047AC
:10947000C06C80B270475C484C300068704700296F
:1094800004D0416841F4806141607047416821F433
:10949000806141607047002904D0416841F48051E7
:1094A00041607047416821F4805141607047826893
:1094B00022F4E0420A4382607047002904D08168A8
:1094C00041F4004181607047816821F4004181606E
:1094D0007047002904D0816841F40211816070470F
:1094E000816821F40211816070470146002089687B
:1094F000890200D50120704770B5072609290AD9CD
:10950000C568A1F10A0404EB4404A640B543A34096
:109510001D43C56007E0056901EB4104A640B54362
:10952000A3401D430561836BC3F30154121B921CBE
:1095300002EB82021F249440A34391400B438363B8
:1095400070BD826B22F44012491E42EA01518163D0
:10955000704708B500900098084400900098026099
:1095600008BD08B500900098084428300090009885
:10957000006880B208BD4268204B1A400A4342602E
:109580007047416282627047426822F01F020A43BC
:109590004260704714490831002804D0086840F43C
:1095A000000008607047086820F4000008607047F9
:1095B0000246002012680A4200D001207047C943C9
:1095C0000160704710B5024600200B0A5468C9B20A
:1095D0000C401168194202D0002C00D0012010BDAF
:1095E000090AC94301607047002401400028014076
:1095F000003C0140FFFEF0FFFDF7F1FFFFFD3FFFE4
:1096000001684FF6FE721140016000210160416067
:109610008160C1607249724A0839904204D1486839
:1096200040F00F00486070476D4A1432904204D1F8
:10963000486840F0F00048607047694A283290421C
:1096400004D1486840F4706048607047644A3C3216
:10965000904204D1486840F4704048607047604AC6
:109660005032904204D1486840F4702048607047FE
:109670005B4A6432904204D1486840F4700048600C
:109680007047574A7832904204D1486840F0706081
:1096900048607047534A111F904204D1086840F057
:1096A0000F00086070474F4A1432904204D1086896
:1096B00040F0F000086070474A4A2832904204D1D6
:1096C000086840F4706008607047464A3C32904237
:1096D00004D1086840F4704008607047414A503235
:1096E0009042FAD1086840F470200860704730B5A5
:1096F000026847F6F0739A430C6A8B682343D1E9FA
:1097000004452C4323438C692343CC6923434C6A8F
:1097100023438C6A234313430360CA6842600A6888
:1097200082604968C16030BD002101604160816094
:10973000C160016141618161C16101624162816217
:109740007047002904D0016841F0010101607047B1
:1097500001684FF6FE72114001607047002A03D085
:1097600002680A430260704702688A4302607047D9
:1097700041607047406880B2704702460020D100C7
:1097800003D518490839096802E0154908390968FC
:10979000114200D001207047C10003D51149091FB3
:1097A000086070470E49083948607047024600203B
:1097B000D10003D50B490839096802E00849083986
:1097C0000968114200D001207047C10003D5054946
:1097D000091F086070470249083948607047000057
:1097E000080002400804024010B59C49884209D193
:1097F0000121042000F09BFA0021BDE81040042064
:1098000000F095BA9649884209D10121082000F05C
:109810008EFA0021BDE81040082000F088BA914976
:10982000884209D10121102000F081FA0021BDE811
:109830001040102000F07BBA8B49884209D10121E9
:10984000202000F074FA0021BDE81040202000F034
:109850006EBA8649884209D10121402000F067FA9A
:109860000021BDE81040402000F061BA80498842E4
:1098700009D10121802000F05AFA0021BDE81040F2
:10988000802000F054BA7B4988420AD18415012116
:10989000204600F04CFA2046BDE81040002100F0C0
:1098A00046BA10BD10B50121084600F040FA00216B
:1098B000BDE81040012000F03ABA2DE9F041002245
:1098C000CC7804F00F03E40601D58C7823430C78A0
:1098D0004FF00F0714F0FF0F4FF0010C1CD005687C
:1098E0000CFA02F40E882640A64211D1960007FA1F
:1098F00006F825EA080503FA06F848EA0505CE78D1
:10990000282E02D0482E02D002E0446100E004611B
:10991000521C082AE4D305600A88FF2A1ED945682C
:10992000002202F108060CFA06F40E882640A64230
:1099300010D1960007FA06F825EA080503FA06F89A
:1099400048EA0505CE78282E00D14461CE78482E0D
:1099500000D10461521C082AE3D34560BDE8F081C0
:109960004FF6FF710180022181700421C1707047A0
:109970000246002092680A4200D0012070478068A9
:1099800080B2704702460020D2680A4200D001200F
:109990007047C06880B2704701617047416170478D
:1099A000002A01D00161704741617047C160704772
:1099B00041F480328261816182618169806970478E
:1099C00010B52D4B1A684FF68074224042EA001001
:1099D0000843186010BD2949C8617047F0B5264C8E
:1099E000002801DAE36900E06368C0F30346420D32
:1099F000120185B2C0F301579540032F07D0C20270
:109A00000CD50322B240934343F0706209E023F087
:109A10007062636823F07063636002E0AB4343F0FD
:109A2000706201B12A43002801DAE261F0BD626090
:109A3000F0BD10B58A07120F0F23934021F00304E5
:109A40000D4921448C689C438C608B689040034393
:109A50008B6010BD0949DC31086070470008014087
:109A6000000C0140001001400014014000180140AA
:109A7000001C014000200140000001400000204285
:109A80000D49086070470C49486070470A49886072
:109A9000704709494AF6AA200860704706494CF603
:109AA000CC400860704701460020034AD2680A4251
:109AB00000D001207047000000300040B448016829
:109AC00041F0010101604168B24A11404160016802
:109AD000B14A11400160016821F4802101604168B0
:109AE00021F4FE0141604FF41F0181607047A849D5
:109AF0000A6822F480320A600A6822F480220A602E
:109B0000B0F5803F07D0B0F5802F03D1086840F44E
:109B1000A02008607047086840F4803008607047F3
:109B20000346002059099A4A01290AD002290AD07D
:109B3000516A03F01F02012393400B4200D0012021
:109B400070471168F5E7116AF3E718B50020009037
:109B50004FF4A0643120FFF7E3FF0099491C009106
:109B60000099A14201D00028F4D03120FFF7D8FF9E
:109B700008B1012018BD002018BD854A116821F0E8
:109B8000F80141EAC00010607047844908607047DE
:109B90007F4B5A6822F47C12084310435860704788
:109BA0007E49086670477A4A516821F003010143F3
:109BB000516070477648406800F00C007047744A66
:109BC000516821F0F001014351607047704A5168BB
:109BD00021F4E0610143516070476D4A516821F4FE
:109BE000605141EAC00050607047694A002903D0C3
:109BF000517A014351727047517A814351727047D3
:109C00006649D83108607047614A516821F4404183
:109C10000143516070475E49002220310A7001F80B
:109C20002029012805D0042802D1052081F8200030
:109C30007047012081F8200070475949086070473B
:109C400053490A6A02430A62704755494439086019
:109C5000704710B54E4A516801F00C01514B002974
:109C600027D0042927D0082927D00360516801F0A4
:109C7000F00109094C4B5C5C0168E14041605468AB
:109C800004F4E064240A1C5D21FA04F4846054683E
:109C900004F46054E40A1B5DD940C160526802F4C8
:109CA0004042920B404B1B1F9A5CB1FBF2F10161E9
:109CB00010BD0360DAE70360D8E7516801F4701162
:109CC000536803F48033022404EB914133B15368A9
:109CD0009B0307D5354B59430160C7E7334B5943C5
:109CE0000160C3E72F4B59430160BFE7284A0029B1
:109CF00003D05169014351617047516981435161FA
:109D00007047234A002903D091690143916170474C
:109D100091698143916170471D4A002903D0D1693F
:109D20000143D1617047D1698143D1617047184ABD
:109D3000002903D0D1680143D1607047D1688143C5
:109D4000D1607047124A002903D0116901431161A3
:109D500070471169814311617047114940390860AA
:109D600070470E49C86470470949C8717047084870
:109D7000416A41F080714162704701460020044A07
:109D800092680A4200D001207047014988727047EA
:109D9000001002400000FFF8FFFFF6FE0000424204
:109DA0008004424200127A003000002000093D0089
:109DB000434A002903D0118801431180704711885C
:109DC0008143118070473E48001D018841F0100119
:109DD000018070473A48001D018821F01001018080
:109DE000704737481C30008835491831098840EAE7
:109DF0000140704700B50246FFF7E5FF3049100CFF
:109E000018310880081D02805DF804EBE2E700B518
:109E10000246FFF7D8FF2A49C2F303400831088001
:109E2000081D02805DF804EBD4E700B50246FFF799
:109E3000CAFF2349100C20310880081D02805DF8FC
:109E400004EBC7E71E48103000880007010B1C48D0
:109E500014300088084370471948001D018889069E
:109E6000FCD570471648001D018821F008010180CB
:109E700001880907FCD5704701460020104A121DD1
:109E800012880A4200D0012070470D49091D0A8836
:109E900082430A8070470A49091D0988C2B21140ED
:109EA000074A1288024202D009B1012070470020FF
:109EB00070470349091D0A8882430A8070470000E1
:109EC0000028004010B5A94988420AD18414012114
:109ED0002046FFF72CFF2046BDE810400021FFF789
:109EE00026BFA34988420AD1041401212046FFF766
:109EF00029FF2046BDE810400021FFF723BF9D4900
:109F000088420AD1C41301212046FFF71BFF2046D7
:109F1000BDE810400021FFF715BF10BD30B5028825
:109F200002F441530A884C88CD8822438C882C4304
:109F300022430C8922434C8922438C892243CC89B9
:109F400022431A430280828B22F400628283098AB0
:109F5000018230BDF0B585B005460C4602200021D7
:109F60000126AA8B4FF240031A40AA8302222A84B8
:109F7000AF8BA268022A21D0A08800B102266846D1
:109F8000FFF767FE0098E188B1F5007F2CD07101E2
:109F9000B0FBF1F000EB8000A1684000B0FBF1F0F5
:109FA000401D80B20A21B0FBF1F000F00101401A1F
:109FB000C0F34F004FF6FF7202EA0121821EFE2A13
:109FC00001D302200021E288084302432A8420882A
:109FD0006188A2890843A18811430843384340F4AB
:109FE0000060A88305B0F0BD000A00EB8000A16806
:109FF0004000B0FBF1F0401D80B2D3E700210180AA
:10A0000041808180C180018141818181C18107219D
:10A01000018270470021018041808180C18002223D
:10A02000826081817047002904D0018841F040019D
:10A0300001807047018821F04001018070470029AC
:10A0400004D0818B41F4806181837047818B21F43E
:10A05000806181837047090901238B4099B2002AEE
:10A0600003D082880A438280704782888A43828034
:10A070007047002A03D082880A4382807047828812
:10A080008A43828070478181704780897047A1F53B
:10A090007E42FF3A04D0018841F48071018070470C
:10A0A000018821F4807101807047002904D08188E3
:10A0B00041F0040181807047818821F00401818092
:10A0C0007047028822F40062028002880A430280FC
:10A0D0007047018841F4805101807047002904D005
:10A0E000018841F4005101807047018821F400513A
:10A0F00001807047012901D0008B7047808A70472A
:10A10000008A7047B1F5804F04D0018821F4804166
:10A1100001807047018841F4804101807047024608
:10A12000002012890A4200D001207047C9430181F2
:10A13000704730B50246002001F00F03012505FAF3
:10A1400003F4A3B2090905FA01F4A4B291882140ED
:10A1500012891A4202D0002900D0012030BD01F03E
:10A160000F0201219140C943018170470030014035
:10A1700000380040003C004010B5FE4988420AD13A
:10A18000C41401212046FFF7D2FD2046BDE810404F
:10A190000021FFF7CCBDB0F1804F0CD0F6498842CA
:10A1A00013D101210220FFF7CDFD0021BDE81040B1
:10A1B0000220FFF7C7BD01210846FFF7C3FD0021BC
:10A1C000BDE810400120FFF7BDBDEC49884209D130
:10A1D00001210420FFF7B6FD0021BDE81040042056
:10A1E000FFF7B0BDE649884209D101210820FFF7F9
:10A1F000A9FD0021BDE810400820FFF7A3BDE149FB
:10A20000884209D101211020FFF79CFD0021BDE803
:10A2100010401020FFF796BDDB49884209D101218B
:10A220002020FFF78FFD0021BDE810402020FFF720
:10A2300089BDD64988420AD1441401212046FFF73E
:10A2400076FD2046BDE810400021FFF770BDD049E3
:10A2500088420AD10121CC042046FFF768FD204640
:10A26000BDE810400021FFF762BDCA4988420AD10B
:10A2700001210C052046FFF75AFD2046BDE810409D
:10A280000021FFF754BDC44988420AD101214C0581
:10A290002046FFF74CFD2046BDE810400021FFF7A7
:10A2A00046BDBE49884209D101214020FFF74AFD41
:10A2B0000021BDE810404020FFF744BDB849884266
:10A2C00009D101218020FFF73DFD0021BDE81040AC
:10A2D0008020FFF737BDB34988420AD18415012198
:10A2E0002046FFF72FFD2046BDE810400021FFF774
:10A2F00029BDAD4988420AD101210C042046FFF74F
:10A3000016FD2046BDE810400021FFF710BDA7490B
:10A3100088420AD101214C042046FFF708FD20465F
:10A32000BDE810400021FFF702BDA14988420AD1D3
:10A3300001218C042046FFF7FAFC2046BDE81040BE
:10A340000021FFF7F4BC10BD30B50288894C8F4D59
:10A35000A0420DD0A8420BD0B0F1804F08D0864B60
:10A36000984205D0854B984202D0854B984203D144
:10A3700022F070034A881A43824B984206D0824BDF
:10A38000984203D022F44073CA881A4302808A8814
:10A3900082850A880285A0420AD0A84208D0824A53
:10A3A000904205D0814A904202D0814A904201D128
:10A3B000097A01860121818230BD30B5028C22F0FC
:10A3C00001020284028C8388048B24F0700424F040
:10A3D00003050C882C4322F002020D8915434A889C
:10A3E0002A43644DA8420BD0684DA84208D06E4D58
:10A3F000A84205D06D4DA84202D06D4DA8420FD1A4
:10A4000022F008054A892A4322F004058A882A4353
:10A4100023F4807323F400738D891D43CB892B4370
:10A4200083800483C9888186028430BD70B5028C24
:10A4300022F010020284028C8388048B24F4E0440E
:10A4400024F440760D884FF6FF7404EA0525354361
:10A4500022F020020E8904EA061616434A8804EA0E
:10A4600002123243434EB04202D0484EB04217D19E
:10A4700022F080024E8904EA0616164326F04006B2
:10A480008A8804EA0212324323F4806323F40063CF
:10A490008E8904EA86061E43CB8904EA830333438C
:10A4A00083800583C9880187028470BD70B5028CE2
:10A4B00022F480720284028C8388848B24F07004DE
:10A4C00024F003040D88254322F400720E894FF610
:10A4D000FF7404EA062616434A8804EA022232433D
:10A4E000244EB04202D0294EB04217D122F4006669
:10A4F0004A8904EA0222324322F480668A8804EA06
:10A500000222324323F4805323F400538E8904EA59
:10A5100006161E43CB8904EA0313334383808583E5
:10A52000C9888187028470BD70B5028C22F4805284
:10A530000284058C8288838B23F4E04323F44076E5
:10A540000C884FF6FF7303EA0424344325F40055C6
:10A550000E8903EA06362E434D8803EA0535354356
:10A56000044EB04202D0094EB04226D122F48046B9
:10A570008A891FE0002C01400004004000080040D0
:10A58000000C004000100040001400400034014066
:10A59000004C0140005001400054014000180040B0
:10A5A000001C0040002000400040014000440140E9
:10A5B0000048014003EA8212324382808483C988C2
:10A5C000A0F84010058470BD828B22F44062828323
:10A5D000828B4FF6FF7303EA01210A43828370479F
:10A5E000F0B5048C24F480540484868B048C4FF6DC
:10A5F000FF7505EA013726F4734605EA0222324365
:10A6000005EA03331343F74A90420ED0F64A9042CC
:10A610000BD0B0F1804F08D0F44A904205D0F44AF4
:10A62000904202D0F34A904205D124F400513943BC
:10A6300041F4805104E024F402420A4342F4805180
:10A6400083830184F0BD828B22F00C028283828B93
:10A650000A4382837047F0B5048C24F48074048428
:10A66000858B048C4FF6FF7707EA012625F0F3056A
:10A6700007EA031313432B43DA4A90420ED0DA4A17
:10A6800090420BD0B0F1804F08D0D84A904205D00C
:10A69000D74A904202D0D74A904205D124F40071A3
:10A6A000314341F4807104E024F420620A4342F40F
:10A6B000807183830184F0BD028B22F440620283A7
:10A6C000028B4FF6FF7303EA01210A4302837047AE
:10A6D000F0B5048C24F010040484068B048C4FF62F
:10A6E000FF7505EA011726F4734605EA0333334381
:10A6F00005EA02221A43BB4B98420ED0BA4B98424D
:10A700000BD0B0F1804F08D0B84B984205D0B84B71
:10A71000984202D0B74B984205D124F0200139432A
:10A7200041F0100104E024F0A0030B4343F01001BA
:10A7300002830184F0BD028B22F00C020283028BA3
:10A740000A430283704770B5048C24F0010404842A
:10A75000058B048C25F0F3054FF6FF7606EA03130C
:10A7600013432B439F4A90420ED09F4A90420BD0F6
:10A77000B0F1804F08D09D4A904205D09C4A90424B
:10A7800002D09C4A904205D124F002020A4342F0D2
:10A79000010104E024F00A020A4342F001010383AC
:10A7A000018470BD70B505460C468E48854209D0BF
:10A7B0008D48854206D0B5F1804F03D08B48854245
:10A7C00000D08B4820886188A288238958B104284A
:10A7D00011D0082817D02846FFF702FFE188284645
:10A7E000BDE87040F0E62846FFF7ADFFE188284657
:10A7F000BDE870409FE72846FFF76AFFE1882846DA
:10A80000BDE8704058E72846FFF725FFE188284655
:10A81000BDE8704017E72DE9F04107460C460025DA
:10A8200001266188002900D10225A288012A00D1D1
:10A8300002262088238988B13846FFF749FFE1883E
:10A840003846FFF739FF2389324629463846FFF755
:10A850007AFFE1883846BDE8F0416CE73846FFF7FB
:10A8600072FFE1883846FFF766FF238932462946A2
:10A870003846FFF72DFFE1883846BDE8F0411BE779
:10A8800010B50A884B88CC881A438B8823431A4317
:10A890000B891A434B8989891A430A43A0F844203B
:10A8A00010BD4FF6FF71818000210180C180418081
:10A8B000017270470021018041808180C180018147
:10A8C00041818181C1817047002101804180012245
:10A8D0008280C18001817047002101804180818098
:10A8E000C1800181418181817047002904D00188A4
:10A8F00041F0010101807047018821F001010180D0
:10A900007047002905D030F8441F41F40041018010
:10A91000704730F8441FC1F30E0101807047002AD0
:10A9200003D082890A438281704782898A43828167
:10A930007047818270471143A0F848107047002A81
:10A9400003D082890A438281704782898A43828147
:10A950007047018921F0070101817047028922F0C7
:10A9600070020A430281704700B503461846FFF79C
:10A97000F5FF188940F00700188100BD70B50D463D
:10A9800004461146602D0CD001222046FFF7DBFE65
:10A9900029462046FFF7E2FF208940F0070020818A
:10A9A00070BD01222046FFF793FEF1E730B5048920
:10A9B000E4B24FF6FF7505EA032313430B43234329
:10A9C000038130BD10B504462046FFF7EFFF208914
:10A9D00020F0070040F0070020F0700040F0700009
:10A9E000208110BD002C01400034014000040040D3
:10A9F00000080040000C004010B504462046FFF758
:10AA0000D5FF208940F480402081EAE701858282D9
:10AA10007047028822F070020A430280704770B5C6
:10AA20000589048B068C25F007050D434FF6FC4184
:10AA30000C4040F201110C4326F022064FF6FF7144
:10AA400001EA03111143314305810483018470BD80
:10AA5000028B22F070020A4302837047028B22F4B9
:10AA6000E0424FF6FF7303EA01211143018370476F
:10AA7000828B22F070020A4382837047828B22F419
:10AA8000E0424FF6FF7303EA0121114381837047CF
:10AA9000002904D0018841F08001018070470188BD
:10AAA00021F0800101807047002904D0818841F0A5
:10AAB000040181807047818821F004018180704702
:10AAC000002904D0818841F0080181807047818885
:10AAD00021F0080181807047002904D0818841F06D
:10AAE000010181807047818821F0010181807047D8
:10AAF000028B22F008020A4302837047028B22F481
:10AB000000624FF6FF7303EA01211143018370478E
:10AB1000828B22F008020A4382837047828B22F4E0
:10AB200000624FF6FF7303EA0121114381837047EE
:10AB3000028B22F004020A4302837047028B22F444
:10AB400080624FF6FF7303EA0121114301837047CE
:10AB5000828B22F004020A4382837047828B22F4A4
:10AB600080624FF6FF7303EA01211143818370472E
:10AB7000028B22F080020A4302837047028BC2F3E9
:10AB80000E024FF6FF7303EA012111430183704760
:10AB9000828B22F080020A4382837047828BC2F349
:10ABA0000E024FF6FF7303EA0121114381837047C0
:10ABB000028C22F002020A4302847047028C22F0C7
:10ABC00008020A4302847047028C22F020024FF6EA
:10ABD000FF7303EA0111114301847047028C22F0D4
:10ABE00080024FF6FF7303EA01111143018470479D
:10ABF000028C22F400724FF6FF7303EA0121114325
:10AC000001847047028C22F400624FF6FF7303EA5E
:10AC10000121114301847047028C22F400524FF647
:10AC2000FF7303EA013111430184704710B501231A
:10AC30008B40048C9C430484038C8A40134303841C
:10AC4000CFE610B504238B40048C9C430484038C12
:10AC50008A4013430384C4E630B500F1180301248D
:10AC60008C40058CA5430584002911D008290FD0FC
:10AC7000091FC1F34E001844016821F4E04101604E
:10AC800001684FF6FF7303EA02221143016030BDF1
:10AC900003EB5100016821F070010160016811436C
:10ACA000016030BD002904D0018841F0020101801B
:10ACB0007047018821F0020101807047002904D00B
:10ACC000018841F0040101807047018821F00401EE
:10ACD00001807047002904D0818841F08001818083
:10ACE0007047818821F0800181807047028822F0BE
:10ACF0000802028002880A4302807047828822F09C
:10AD00007002828082880A4382807047028922F022
:10AD10000702028102890A4302817047028922F0F8
:10AD20008002028102890A43028170478184704750
:10AD3000818570478186704701877047818770479A
:10AD4000A0F840107047028822F440720280028806
:10AD50000A4302807047808E7047008F7047808F53
:10AD60007047B0F840007047808C7047008D704786
:10AD700002460020128A0A4200D001207047C943CF
:10AD80000182704702460020138A0B4092890A40D4
:10AD9000002B02D0002A00D001207047C943018255
:10ADA0007047000010B5E14988420AD101218C03A7
:10ADB0002046FEF7BCFF2046BDE810400021FEF70C
:10ADC000B6BFDB4988420AD101214C042046FEF778
:10ADD000B9FF2046BDE810400021FEF7B3BFD549BA
:10ADE00088420AD101218C042046FEF7ABFF2046A1
:10ADF000BDE810400021FEF7A5BFCF4988420AD127
:10AE00000121CC042046FEF79DFF2046BDE81040FE
:10AE10000021FEF797BFC94988420AD101210C05DC
:10AE20002046FEF78FFF2046BDE810400021FEF7C8
:10AE300089BF10BD30B585B004460D46208A4CF65A
:10AE4000FF710840E98801432182A0894EF6F31181
:10AE50000840A9882A8911436A8902431143A181C4
:10AE6000A08A4FF6FF410840A9890143A1826846A4
:10AE7000FEF7EFFEAD48844201D1039800E002984E
:10AE8000A189090408D500EBC00101EB0010296875
:10AE90004900B0FBF1F007E000EBC00101EB00104E
:10AEA00029688900B0FBF1F06422B0FBF2F10901DE
:10AEB0000B096FF018056B4300EB8300A3891D0499
:10AEC0004FF0320307D503EBC000B0FBF2F000F007
:10AED0000700084306E003EB0010B0FBF2F000F0BF
:10AEE0000F000843208105B030BD4FF416510160BA
:10AEF00000218180C18001810C22428181817047C3
:10AF000010B5038A4FF2FF0213400A884C8822438F
:10AF10008C88C9880C4322431A43028210BD002149
:10AF2000018041808180C1807047002904D08189DF
:10AF300041F4005181817047818921F40051818160
:10AF4000704710B540F66A13C1F3421301F01F04B5
:10AF50000121A140012B07D0022B07D014303AB1B8
:10AF600002680A43026010BD0C30F8E71030F6E7C3
:10AF700002688A43026010BD002A03D0828A0A4315
:10AF800082827047828A8A4382827047028A22F0D4
:10AF90000F020282028A0A4302827047828922F4E7
:10AFA0000062828182890A4382817047002904D02D
:10AFB000818941F0020181817047818921F002017C
:10AFC00081817047028A22F020020282028A0A43AB
:10AFD00002827047002904D0018A41F48041018235
:10AFE0007047018A21F4804101827047C1F3080152
:10AFF000818070478088C0F308007047818941F0E4
:10B00000010181817047028BD2B20283028B42EA36
:10B01000012101837047028B02F47F420283028B7D
:10B020000A4302837047002904D0818A41F020013D
:10B0300081827047818A21F0200181827047002936
:10B0400004D0818A41F0100181827047818A21F009
:10B05000100181827047002904D0818A41F00801E3
:10B0600081827047818A21F008018182704700291E
:10B0700004D0818941F40041818170478189C1F305
:10B080000E0181817047002904D0818A41F400615A
:10B0900081827047818A21F4006181827047828AAF
:10B0A00022F004028282828A0A4382827047002947
:10B0B00004D0818A41F0020181827047818A21F0A7
:10B0C0000201818270470246002012880A4200D0A5
:10B0D000012070478A05C9430180704770B500247C
:10B0E00040F66A12C1F3421301F01F05012606FA69
:10B0F00005F2012B0CD0022B0DD0838A1340090AD4
:10B100008E40008830400BB100B10124204670BD54
:10B1100083891340F3E7038A1340F0E740F66A128D
:10B120000A0A01219140C94301807047003801405B
:10B130000044004000480040004C004000500040E7
:10B1400010B50120FEF709FEBDE810400020FEF713
:10B1500004BE2049086070471E49091F08607047F7
:10B160001C498431086070471B4A118821F46071C2
:10B17000014311807047184A118821F07F01014373
:10B180001180704708B5144A2C3A1044009000987A
:10B19000016008BD08B510492C390844009000989A
:10B1A000008808BD0B489C300068C0B270470A4850
:10B1B0000830018841F00101018070470548A03046
:10B1C0000068C0B2704704480830018841F00201AD
:10B1D0000180704704860D422C6C004010B501219F
:10B1E0000C072046FEF7AEFD2046BDE810400021CA
:10B1F000FEF7A8BD214908627047204908617047E1
:10B200001F4A116821F0E0010143116070471B499A
:10B21000A031086070471A4B1A6822F003020243FB
:10B220001A601848026842F004020260012905D041
:10B2300020BF016821F004010160704730BFF8E7CA
:10B240000F48016841F004010160016841F002010A
:10B2500001600C48016841F00401016030BF704793
:10B2600001460020064A52680A4200D00120704779
:10B2700003490A6842EA80000860704700000E42F5
:10B280000070004010ED00E038B50420ADF800007B
:10B2900048208DF80300724C69462046FEF70DFBEE
:10B2A00004212046FEF778FB38BD08B50420ADF830
:10B2B000000010208DF8030003208DF8020069467D
:10B2C0006748FEF7FAFA08BD38B501210420FEF7F9
:10B2D00018FD0C20ADF8000010208DF803000320AD
:10B2E0008DF802005E4C69462046FEF7E6FA0C2116
:10B2F0002046FEF751FB38BD70B5FFF7D6FF594C1D
:10B30000012020606060042004F0CAF90025256057
:10B31000042004F0C5F9656070BD10B5FFF7C5FFE6
:10B32000504C002060602060042004F0B9F9012036
:10B3300060602060BDE81040042004F0B1B970B531
:10B340000024FFF7A1FF484D0126C5F888610120C0
:10B3500004F0A6F9C5F88C61012004F0A1F907E01A
:10B36000641CE4B2FA2C03D9FFF7D7FF012070BDAB
:10B37000D5F808010028F3D1C5F88C0170BD70B56F
:10B38000384C00256560FFF790FF2560022004F02F
:10B3900087F901206060022004F082F9656070BDC9
:10B3A00070B5304C00256560FFF77FFF01262660F1
:10B3B000022004F075F96660022004F071F96560FE
:10B3C00070BD2DE9F0410546FFF76FFF264E4FF0A7
:10B3D0000008C6F88C8100240127E809C6F8880116
:10B3E0006806050E022004F05BF9C6F88C71022095
:10B3F00004F056F9C6F88C81022004F051F9641C5F
:10B40000E4B2082CE9D3BDE8F0812DE9F04781468C
:10B410000024FFF739FF0025134E00274FF00108E5
:10B42000C6F88C71022004F03BF9C6F88C816006E6
:10B43000040ED6F8080108B1641CE4B2012004F03F
:10B440002FF96D1CEDB2082DEAD3B9F1000F04D02D
:10B45000FFF795FF2046BDE8F087FFF7A1FFF9E76A
:10B4600000080140880121420000214270B50546D4
:10B470006C4C02212046FEF752FE0028F9D02946E6
:10B480002046FEF700FE01212046FEF748FE002878
:10B49000F9D02046FEF7F9FDC0B270BD0146614803
:10B4A000028822F03802028002880A4302800121C9
:10B4B000FEF7B9BD30B587B0012141F20800FEF7B3
:10B4C00020FC01210846FEF789FA3824ADF818401F
:10B4D00018208DF81B0003208DF81A00524D06A984
:10B4E0002846FEF7EAF9BDF818102846FEF754FA88
:10B4F0000020ADF804004FF48271ADF80610ADF8ED
:10B500000800ADF80A00ADF80C006915ADF80E1092
:10B51000ADF81040ADF812000720ADF81400414C12
:10B5200001A92046FEF7FAFC01212046FEF77BFD2B
:10B53000FF20FFF79BFF322004F0D2F80820FFF72E
:10B54000ADFFFF20FFF792FF07B030BD014637483F
:10B55000028822F03802028002880A430280012118
:10B56000FEF761BD70B50546304C02212046FEF75E
:10B57000D6FD0028F9D029462046FEF784FD01219A
:10B580002046FEF7CCFD0028F9D02046FEF77DFDD1
:10B59000C0B270BD70B586B001210820FEF7B1FBC6
:10B5A00001218803FEF7B8FB4FF46045ADF8145055
:10B5B00018248DF8174003208DF816001A4E05A99F
:10B5C0003046FEF77AF929463046FEF7E5F90020C5
:10B5D000ADF800004FF48271ADF80210ADF8040030
:10B5E0000221ADF806100121ADF808104902ADF8AE
:10B5F0000A10ADF80C40ADF80E000720ADF81000B1
:10B600000A4C69462046FEF789FC01212046FEF7D8
:10B610000AFDFF20FFF7A6FF3820FFF797FF06B0CF
:10B6200070BD000000300140000C014000380040B7
:10B6300070486F4941607049416070476D480169C9
:10B6400041F08001016170476A48C068C10701D0BC
:10B6500001207047410701D502207047C00601D57F
:10B66000032070470020704770B50446FFF7ECFFD9
:10B670000546012D05D104F013F8641EA4B2002C78
:10B68000F4D104B9FF25284670BD70B5054645F6CE
:10B69000FF763046FFF7E8FF002812D1554C2069AD
:10B6A00040F0020020616561206940F040002061A7
:10B6B0003046FFF7D9FF012803D0216921F00201AC
:10B6C000216170BD70B506460D46FF20FFF7CCFF27
:10B6D00000280ED1474C206940F0010020613580E0
:10B6E000FF20FFF7C1FF012803D0216921F00101EC
:10B6F000216170BD00887047C10703D030F8010C8C
:10B70000000A70470088C0B270472DE9F041054635
:10B710000E461746002407E036F814102846FFF7B7
:10B72000D1FFAD1C641CA4B2BC42F5D3BDE8F081CE
:10B7300010B50446002307E02046FFF7DBFF21F8A1
:10B740001300A41C5B1C9BB29342F5D310BD30B513
:10B7500004460D46002306E02046FFF7CDFFE854DF
:10B76000641C5B1C9BB29342F6D330BD70472DE93D
:10B77000F047ADF5006D0D46904600240746A0F158
:10B780000060B0F5002F23D200264FF48069EA460E
:10B7900015E06878000215F8021B08442146641C75
:10B7A000A4B22AF811004A46944206D10024694600
:10B7B0003846FFF7AAFF07F50067B61CB6B2464544
:10B7C000E7D3002C04D0224669463846FFF79DFF98
:10B7D0000DF5006DBDE8F08710B54168074C21609C
:10B7E0000068FCF7AFFC2068BDE81040004700008F
:10B7F0002301674500200240AB89EFCD44000020C3
:10B80000FFF762BD70B504460025604E691E3068C2
:10B8100003F095FC012824D1FFF77FFD0A2003F0F7
:10B820003FFFFFF769FD200AA02101EB4000C0B2F5
:10B83000FFF7C7FDFFF783FDE0B2FFF7C2FDFFF79B
:10B840007EFDFFF759FDA120FFF7BBFDFFF777FD58
:10B850000020FFF7DAFD0546FFF75FFD306803F0D3
:10B86000B6FB284670BD70B504460E46474D4FF0F6
:10B87000FF31286803F063FC012823D1FFF74DFD59
:10B88000012003F02DFFFFF737FD200AA02101EB77
:10B890004000C0B2FFF795FDFFF751FDE0B2FFF7A2
:10B8A00090FDFFF74CFD3046FFF78BFDFFF747FD9E
:10B8B000FFF733FD052003F013FF2868BDE8704053
:10B8C00003F085BB70BD2DE9F04106460D461746D5
:10B8D000002409E0E00025FA00F0C1B2301980B27E
:10B8E000FFF7C1FF641CE4B2BC42F3D3BDE8F081B2
:10B8F0002DE9F04102460E4600200024971908E089
:10B900000502381B401E80B2FFF77CFF2844641CF0
:10B91000E4B2B442F4D3E9E710B5FF20FFF772FFB9
:10B9200055280AD05521FF20FFF79DFFFF20FFF784
:10B9300069FF552803D0012010BD002010BD002054
:10B9400010BD70B504460E46154608E02046641C3E
:10B95000A4B2FFF757FF06F8010B6D1EADB2002D24
:10B96000F4D170BD70B506460D46144606E0297840
:10B970003046FFF778FF761CB6B26D1C641EA4B289
:10B98000F5D270BD6FE76EE73CE73BE73003002080
:10B9900010B5784C01212046FFF7EAF92046BDE8B2
:10B9A00010400121FFF7EBB97FB504460D46012198
:10B9B0000220FEF7B1F9ADF80840ADF804500024BC
:10B9C000ADF80A40ADF806406A4D01A92846FEF7D9
:10B9D000BBFC1D218DF800108DF8014002218DF86F
:10B9E000021001218DF803106846FDF7EEFB0122DD
:10B9F00011462846FEF793FF01212846FEF775FF02
:10BA00007FBD10B5FCF7DAFB5B4C01212046FFF748
:10BA1000AFF95A4A012802D15068401C5060584979
:10BA20000B880020B3F57A7F03D20B885B1C0B8058
:10BA300000E008801178491CC9B211700A2900D1B0
:10BA4000107001212046FFF79AF9BDE81040FCF77D
:10BA5000BCBB7FB504460D4601211020FEF75CF902
:10BA6000ADF80840ADF804500020ADF80A00ADF87C
:10BA70000600414C01A92046FEF766FC36218DF8F0
:10BA8000001001218DF8011003228DF802208DF89D
:10BA900003106846FDF799FB012211462046FEF788
:10BAA0003EFF01212046FEF720FF7FBD10B588B084
:10BAB00001210420FEF730F901212120FEF721F9B0
:10BAC00001210C032046FDF789FF4FF4E041ADF85A
:10BAD0001C1018218DF81F1003218DF81E1007A9C6
:10BAE0002848FDF7EAFEADF814400020ADF810003C
:10BAF000ADF81600ADF81200234C04A92046FEF75D
:10BB000023FC7021ADF800100121ADF802100221D4
:10BB1000ADF8081069462046FEF74FFC69462046FE
:10BB2000FEF784FC69462046FEF7C0FC082120464B
:10BB3000FEF7DEFF08212046FEF7E0FF0821204641
:10BB4000FEF7E6FF01212046FEF7CFFE08B010BD4C
:10BB50000D4A002806D0012807D0022808D1104637
:10BB6000FFF7ECB81046FFF7E5B81046FFF7E4B86A
:10BB70007047000000040040001000404800002012
:10BB8000A4030020001401400008004038B5012142
:10BB90000820FEF7B6F8C020ADF8000010208DF8A0
:10BBA000030003248DF80240FE4D69462846FDF748
:10BBB00084FEA915ADF8001048218DF803108DF80A
:10BBC000024069462846FDF778FE40F2CF21642006
:10BBD000FFF73FFF80212846FDF7E0FE0A2003F033
:10BBE0007FFD80212846FDF7D7FE0A2003F078FD6F
:10BBF00080212846FDF7D2FE0A2003F071FD802146
:10BC00002846FDF7C9FE0A2003F06AFD8021284678
:10BC1000FDF7C4FE0A2003F063FD80212846FDF7EE
:10BC2000BBFE0A2003F05CFD80212846FDF7B6FE2E
:10BC30000A2003F055FD80212846FDF7ADFE0A20BD
:10BC400003F04EFD38BD70B504460D46D54E40217B
:10BC50003046FDF7A3FE05F01F002043FFF706FC6A
:10BC6000FF20FFF703FC0446280603D5FF20FFF75B
:10BC7000FDFB044640213046FDF78EFE204670BD98
:10BC80002DE9F04104460D461746C64E4021304688
:10BC9000FDF784FE05F01F002043FFF7E7FB384661
:10BCA000FFF7E4FB3046BDE8F0414021FDF774BEEC
:10BCB00070B505460C46BB4E40213046FDF76EFE82
:10BCC0003A20FFF7D3FB05E06D1E0020FFF7CEFB07
:10BCD00004F8010B002DF7D1002020703046BDE89C
:10BCE00070404021FDF758BE70B504460D46AD4E7C
:10BCF00040213046FDF752FE7A20FFF7B7FB04E003
:10BD0000641E2878FFF7B2FB6D1C002CF8D130467A
:10BD1000BDE870404021FDF73FBE70B50546A24E1C
:10BD200005F06004307884420BD003221F21A0204C
:10BD3000FFF7A6FFC5F341121F218020FFF7A0FFE8
:10BD4000347070BD10B504462046FFF7E6FF21466B
:10BD5000BDE81040002076E770B505460C46284641
:10BD6000FFF7DBFF22462946BDE87040402087E709
:10BD700070B50D4600240146D420FFF7EDFFE9B26F
:10BD8000D620FFF7E9FFC5F30721D720FFF7E4FF2F
:10BD900040F6FF7501E0641CA4B2EA20FFF7D2FF71
:10BDA000C00701D0AC42F6D370BD70B50546002483
:10BDB000FFF7ECFE4FF4FA7609E0FF22002110466F
:10BDC000FFF75EFF641CA4B20A2003F089FC1D206B
:10BDD000FFF7B8FFC00701D1B442EED3B44201D39C
:10BDE000012070BD70490020486000210820FFF745
:10BDF000B3FF00210920FFF7AFFF00210C20FFF760
:10BE0000ABFF00210D20FFF7A7FF10210A20FFF74D
:10BE1000A3FF1A210B20FFF79FFF11210420FFF73A
:10BE20009BFF1A210520FFF797FFFF210620FFF750
:10BE300093FF1F210720FFF78FFFA1213820FFF775
:10BE40008BFF3F212820FFF787FF30212920FFF7B4
:10BE500083FFF9213020FFF77FFFF7213120FFF723
:10BE60007BFF0D21C020FFF777FF0021C120FFF7E6
:10BE700073FF3322C2218020FFF702FF1221C62068
:10BE8000FFF76AFF0C21C720FFF766FF1521C420CA
:10BE9000FFF762FFEE21CA20FFF75EFF0521CB20EE
:10BEA000FFF75AFF2978E420FFF756FF6978E5206D
:10BEB000FFF752FFA978E220FFF74EFFE978E32071
:10BEC000FFF74AFF2979E020FFF746FF6979E12073
:10BED000FFF742FF4FF4807421460020FFF748FF30
:10BEE00021461020FFF744FF1F20FFF716FFC02256
:10BEF0001B218020FFF7C4FE04221F218020FFF7B2
:10BF0000BFFEE420FFF71EFF2978884201D1002000
:10BF100070BD012070BD722014E770B505460E4655
:10BF200011210220FFF718FF1A210320FFF714FF49
:10BF300041F611202C18E1B20620FFF70DFFC4F3E3
:10BF400007210720FFF708FF002211467A20FFF79C
:10BF500097FE31462846FFF7C7FE08221F218020A2
:10BF6000FFF78EFE1C20FFF7EDFE800705D5BDE82C
:10BF7000704008221F21A02082E670BD2DE9F0410B
:10BF800006460F463920FFF7DDFED8B3064D0020E8
:10BF90002979FFF7E1FEA888C0F307210120FFF708
:10BFA000DBFE03E0000C01405000002000213A209D
:10BFB000FFF749FE686000213A20FFF744FE6968F8
:10BFC00041EA0020686000213A20FFF73CFE044669
:10BFD00000213A20FFF737FE44EA0024241F002105
:10BFE0003A20FFF730FE804600213A20FFF72BFE73
:10BFF00048EA0020711E8C4200D9741E000605D448
:10C00000002407E0FFE70020BDE8F0813946204624
:10C01000FFF74EFE29790C20FFF79EFEA888C0F39B
:10C0200007210D20FFF798FE40221E218020FFF7F8
:10C0300027FE2046E8E7000030B5FA4A0024C2F89F
:10C04000AC410123C2F8B4310021050602D5C2F883
:10C05000BC3101E0C2F8BC41C2F8B841C2F8B83105
:10C060004006000E491CC9B20829EED3C2F8AC3113
:10C0700030BD30B5EB4A0023C2F8AC31C2F8B43160
:10C0800000210124050602D5C2F8BC4101E0C2F836
:10C09000BC31C2F8B831C2F8B8414006000E491CA4
:10C0A000C9B20829EED3C2F8AC4130BD3830C0B2B5
:10C0B000DFE710B504460020FFF7F8FF4034E0B298
:10C0C000BDE81040D5E710B504460020FFF7EEFFAD
:10C0D00004F00F002409E030C0B2FFF7CAFFF034CB
:10C0E000E0B2BDE81040C4E72DE9F04107461E4626
:10C0F000203AD5B201EB4101032000EB410808F0E2
:10C10000FF00FFF7E0FF7806000EFFF7D2FF0024E4
:10C11000C54905EB450001EB800506B3285DC0432A
:10C12000C0B2FFF789FF641CE4B2062CF5D308F017
:10C13000FF00FFF7C8FF012000EB4700C0B2FFF788
:10C14000B8FF00247EB128198079C043C0B2FFF740
:10C1500073FF641CE4B2062CF4D3BDE8F081285DC3
:10C16000FFF76AFFDFE728198079FFF765FFF0E73F
:10C1700070B50646002442F6A0053046FFF75CFF86
:10C18000641CA4B2AC42F8D370BD2DE9F0478146DF
:10C190000E4690461F460024384618F0FFFCC5B2F4
:10C1A000C6F11500A8420ADAC5B208E03019C1B2DA
:10C1B0003A5D43464846FFF797FF641CE4B2AC4241
:10C1C000F4D3BDE8F087002298A31146DDE7F0B56F
:10C1D000002442F2107564230A264FF47A77A842AD
:10C1E00021D3B0FBF5F430340C70B0FBF5F405FB53
:10C1F0001400B0FBF7F430344C70B0FBF7F407FBDD
:10C200001400B0FBF3F430348C70B0FBF3F403FB98
:10C210001400B0FBF6F330330424CB70B0FBF6F31C
:10C2200006FB13003AE0B84219D3B0FBF7F4303400
:10C230000C70B0FBF7F407FB1400B0FBF3F43034E0
:10C240004C70B0FBF3F403FB1400B0FBF6F3303397
:10C2500003248B70B0FBF6F306FB13001EE064288A
:10C2600011D3B0FBF3F430340C70B0FBF3F403FBE8
:10C270001400B0FBF6F3303302244B70B0FBF6F33E
:10C2800006FB13000AE00A2808D3B0FBF6F33033AC
:10C2900001240B70B0FBF6F306FB13003030631C77
:10C2A000DBB208550020C854002A1DD09A420DD395
:10C2B0005B1CDBB206E01C1A651815F8015C0D5515
:10C2C000401CC0B29842F6D3302008700020551CA4
:10C2D00005E01C1A0E5D0C446670401CC0B2A842FA
:10C2E000F7D32E209A1A8854F0BD2DE9FC47144646
:10C2F000DDE90AA980460E461A4620B2052A02D96F
:10C300000020BDE8FC87B8F1050F01D8152E01D932
:10C310000020F6E70025002802DA0125404284B219
:10C3200069462046FFF753FF684618F037FCC4B251
:10C330006F46BAF1000F03D0BAF1010F23D04BE0E2
:10C340003DB14B462D2231464046FFF7CDFE01253B
:10C3500016E0002508E07019C1B27A5D4B464046F0
:10C36000FFF7C2FE6D1CEDB2A542F4D334E07019A4
:10C37000C1B27A5D4B464046FFF7B6FE6D1CEDB28A
:10C38000A542F4D328E00DB100251CE000250BE008
:10C39000601B38444B4610F8012C701BC1B240465C
:10C3A000FFF7A2FE6D1CEDB2A542F1D314E0601BB5
:10C3B00038444B4610F8012C701BC1B24046FFF7C1
:10C3C00093FE6D1CEDB2A542F1D3701BC1B24B467A
:10C3D0002D224046FFF788FE204692E710B5194A05
:10C3E000107901280CD11146A2F1100408782379A4
:10C3F000497833B1D2780123FFF776FE002020710F
:10C4000010BD92780123FFF76FFE0120207110BD4F
:10C4100010B50C4C20706170A270E3700120207187
:10C4200010BD000000002342DC7302082020202001
:10C4300020202020202020202020202020202020FC
:10C440002000000068000020F749002008717047B4
:10C45000F5490120103988707047F34900201039E0
:10C46000887070470EB5F148417802788379CDE93C
:10C47000003202914379B0F80320EB48ECA1401D53
:10C4800019F0E6FD0EBD2DE9F84FE74D0020103DF7
:10C49000687005F1150018F081FBC4B2EB4E6878A6
:10C4A0002246304405F1150118F03CFB6878204421
:10C4B0006870E74818F072FBC4B2687822463044CE
:10C4C000E34918F02FFB687820446870E0480B308F
:10C4D00018F064FBC4B26878DD49304422460B3161
:10C4E00018F020FB687820446870287868B1D94833
:10C4F00018F054FBC4B2687822463044D54918F08D
:10C5000011FB6878204468700EE0D248C01C18F017
:10C5100045FBC4B26878CF4930442246C91C18F0A4
:10C5200001FB687820446870C948163018F036FB63
:10C53000C4B26878C64930442246163118F0F2FA7F
:10C54000687820446870DFF81083C449C44F98F8B5
:10C550000000097888420DD1BE4818F01FFBC4B214
:10C56000687822463044BB4918F0DCFA68782044E9
:10C5700068703EE0002422E004EB84003B5CB94894
:10C5800003F0070200EBD30001210078914008423C
:10C5900013D1ECB3B44AB5A1B64819F059FDB5486A
:10C5A00018F0FCFA00F0FF0968784A463044B149B7
:10C5B00018F0B8FA687848446870641CE4B298F8D7
:10C5C00000008442D8D36878401E6870A14AAAA1AE
:10C5D0000832A84819F03CFDA64818F0DFFAC4B2AA
:10C5E000687822463044A34918F09CFA68782044C1
:10C5F000687008226878964930441F3118F092FA22
:10C600006878083068709D48007830F0800000E05D
:10C6100008E00DD00024DFF83892DFF864A209F1B9
:10C62000280939E0974A98A1924819F011FDB6E718
:10C630008748283018F0B2FAC4B268788449304488
:10C640002246283118F06EFA6878204468702CE091
:10C6500004EB84003B5C9CB3601E00EB80000AEBA3
:10C660008000807BB0B100EBC000484400907E4A5F
:10C6700086A1804819F0ECFC7E4818F08FFA00F093
:10C68000FF0B68785A4630447A4918F04BFA6878BC
:10C6900058446870641CE4B298F800008442D7D310
:10C6A00068782021304400F8011C032268787AA1C0
:10C6B000304418F037FA6878C01C6870BDE8F88F0D
:10C6C000FFE7764800780128E4D175486D4A75A1E6
:10C6D000807B00EBC00000EB0903664819F0B8FC52
:10C6E000644818F05BFA00F0FF0B68785A46304453
:10C6F000604918F017FA687858446870CAE72DE95D
:10C70000F0478146DDE908088A4615461F4620386D
:10C71000C6B2BAF1820F33D25046FFF7D4FC4FEACB
:10C720004960000EFFF7C5FC2C46604800EB06167A
:10C7300009E0B8F1000F12D0305DC043C0B2FFF77E
:10C740007BFC641CE4B2BC42F3D35046FFF7BBFC55
:10C75000012000EB4900C0B2FFF7ABFC0EE0305DFA
:10C76000FFF76AFCEDE7B8F1000F0AD07019007A04
:10C77000C043C0B2FFF760FC6D1CEDB2BD42F2D306
:10C780001FE57019007AFFF757FCF5E72DE9FC412A
:10C79000254E103EB078002844D0B079DFF8AC8048
:10C7A000411CC9B218F800207078B1FBF0F300FB0F
:10C7B00013140027CDE90027082372793946042095
:10C7C000FFF79DFF7079072872D20125601C18F8C9
:10C7D0000420C0B27178B0FBF1F301FB1304CDE982
:10C7E000002770790823C0EBC500C1B200220420E5
:10C7F000FFF785FF6D1CEDB2102DE7D3601C18F814
:10C800000410C0B27278B0FBF2F0CDE90017707975
:10C810000022011DCBB2C0EBC500C1B20420FFF75E
:10C820006EFF71E080E043E068000020820000209D
:10C83000253034642D253032642D25303264202596
:10C840003032643A25303264000000007406002063
:10C850004C7E0208CC730208BE010020C0010020FB
:10C86000F0930020949400201397020825732575F7
:10C870002C0000007095002025730000A901002005
:10C88000188000200C97020825732C00257325754D
:10C890003A25732C0000000020202000A801002071
:10C8A0000480002025733A25732C00005C78020870
:10C8B0000125601C18F80420C0B27178B0FBF1F3B8
:10C8C00001FB1304CDE9002770790823C0EBC500F4
:10C8D000C1B200220420FFF712FF6D1CEDB2112D32
:10C8E000E7D3601C18F80410C0B27278B0FBF2F005
:10C8F000CDE9001770790022811ECBB2C0EBC500D4
:10C90000C1B20420FFF7FBFE7079401CC0B2707109
:10C91000082809D37771B079401CC0B27178B0FB98
:10C92000F1F201FB1200B071BDE8FC8110B547497E
:10C93000002808D00022C1F8A821454CE07002F080
:10C94000D2F8A0606CE50122C1F8A821F5E710B586
:10C950003F4CE078002813D0FF2811D002F0C3F834
:10C96000E060A168411AE07800EB4002C2EBC01021
:10C97000B1EBC00F04D33749012008600020E070FC
:10C980004EE538B501214020FDF7BBF94FF47C445A
:10C99000ADF8004010208DF8030003208DF8020050
:10C9A0002D4D69462846FCF788FF21462846FCF7AE
:10C9B000F3FF38BD10B5FFF7E4FF264C0020083424
:10C9C0002060322002F08CFE012020600A2002F05C
:10C9D00087FE0120FFF76AFB0A2002F061FE1120AA
:10C9E000FFF747FB0A2002F05BFEAE20FFF741FB9A
:10C9F0000A2002F055FE0820FFF73BFB0A2002F058
:10CA00004FFE0020FFF752FB0A2002F049FE0520EE
:10CA1000FFF72FFB0C20FFF72CFB0020FFF753FB49
:10CA20000020FFF746FB0A2002F03AFEBDE8104066
:10CA30000020FFF79DBB06490A2008707047044993
:10CA40000878002801D0401E08707047000023427B
:10CA500058000020A80123420018014008B5032017
:10CA60008DF8000004208DF801008DF802000120EF
:10CA70008DF803006846FCF7A8FB08BD810701D0CC
:10CA8000002070476421B0FBF1F201FB120109B1F3
:10CA9000012070474FF4C871B0FBF1F201FB1200A6
:10CAA00008B1002070470120704730B56423B0FB07
:10CAB000F3F4E4B2B0FBF3F503FB1500132C01D93A
:10CAC0006430C0B200EB90030724B3FBF4F504FB21
:10CAD00015337E4D1A440D4415F8015C2A4492B278
:10CAE000800703D1032901D2521E92B2B2FBF4F0A7
:10CAF00004FB102030BD2DE9F047FDF772F9074621
:10CB0000DFF8CC81B7FBF8F47248061D4188A142DA
:10CB100035D0448040F2B2754FF4B7794FF4B67A0D
:10CB20000FE02846FFF7AAFF38B14C4502D3A4F521
:10CB3000B77404E06D1CADB205E0A4F26D146D1C79
:10CB4000ADB25445EDD8A6F803500025DFF87C912E
:10CB500009F10C090DE0B6F80300FFF78FFF08B1EB
:10CB6000012D30D019F80500A04204D8241A6D1CFC
:10CB7000ADB21C2CEFD26D1C7571641CB471B7FB87
:10CB8000F8F008FB10704FF46161B0FBF1F2327005
:10CB9000B0FBF1F201FB12033C22B3FBF2F3737022
:10CBA000B0FBF1F301FB1300B0FBF2F102FB11004B
:10CBB000B070B2797179B6F80300FFF776FFF071C3
:10CBC0000020BDE8F0871D2CD5D31D3CCFE710B564
:10CBD00001214FF0C050FDF79FF80120FEF70AFB3E
:10CBE000FEF7AEFA0120FDF716F83BA00CF007F8AF
:10CBF0004120FCF795FF0028FAD03EA00BF0FFFF84
:10CC00004FF48070FDF71CF80120FDF71EF8FDF7CA
:10CC100029F9FDF721F901210846FDF7C9F8FDF7CB
:10CC20001BF947F6FF70FDF7F2F8BDE81040FDF77D
:10CC300013B90120704710B5FFF710FF31A00BF0BA
:10CC4000DEFF0420FEF7A6FA4AF2A554A0420ED059
:10CC500034A00BF0D4FFFFF7BAFF3AA00BF0CFFFE0
:10CC6000FFF7E7FF21460420FEF78CFA0AE03BA01D
:10CC70000BF0C5FFFDF7F6F801210846FDF798F81F
:10CC8000FDF7EAF8FDF773F8002010BD10B501209C
:10CC9000FDF701F930B1FFF72EFF0E48017889B199
:10CCA000002101700220FDF7F6F810B10220FDF717
:10CCB00000F90520FDF7FDF8FDF7CEF8BDE81040BE
:10CCC000FFF7D0BB01210170ECE70000987E02085D
:10CCD000805101007E0000200D0A205761697420F8
:10CCE00074696C6C204C53452069732072656164D3
:10CCF000790000000D0A204C5345206973207265AD
:10CD0000616479000D0A2054686973206973206199
:10CD1000205254432064656D6F2E2E2E2E2E2E2011
:10CD20000D0A00000D0A0A20525443206E6F742031
:10CD300079657420636F6E666967757265642E2EFF
:10CD40002E2E00000D0A2052544320636F6E666938
:10CD500067757265642E2E2E2E0000000D0A204E7F
:10CD60006F206E65656420746F20636F6E666967FF
:10CD7000757265205254432E2E2E2E0038B5012197
:10CD80000420FCF7BEFF01214048FCF727FE4FF4CA
:10CD90007044ADF8004048208DF8030003208DF862
:10CDA00002003B4D69462846FCF787FD2146284690
:10CDB000FCF7F2FD38BD2DE9F0410024344F384630
:10CDC000FCF7DDFD4FF4704626EA0005142002F062
:10CDD00087FC3846FCF7D3FD86433540E80400D590
:10CDE000BC14A80401D544F40054680401D544F4EB
:10CDF0008044280401D544F40044200BBDE8F081B0
:10CE000008B50221052001F0BBFF224C6060FFF74E
:10CE1000B5FF21A00BF0F3FE642002F061FCFFF7E8
:10CE2000CAFF0090618888420BD000231A466946E9
:10CE3000606802F047F8BDF80000608000202070B4
:10CE40001FE0F0B12178462903D340F440700090F0
:10CE50000AE0322903D340F40070009004E01E2958
:10CE600002D340F4807000900A2905D300231A46AB
:10CE70006946606802F026F82078462801D2401CF6
:10CE80002070642001F0A4FCC9E700000004300019
:10CE9000000801408C0000204B6579205461736BC1
:10CEA0000D0A000070B5FEF700FAFC4C0025256065
:10CEB0001E2002F0F5FB65601E2002F0F1FB012050
:10CEC000206060601E2002F0EBFB25601E2002F057
:10CED000E7FB656070BD10B5FEF7E7F91E2002F0B4
:10CEE000DFFBEE4C0020606020601E2002F0D8FBCB
:10CEF00001206060206010BD2DE9F0410446082546
:10CF0000FEF7D3F9E64E4FF000080127200602D5C0
:10CF1000C6F8887101E0C6F888816006040E1E20FC
:10CF200002F0BEFBC6F88C711E2002F0B9FBC6F8F9
:10CF30008C816D1E15F0FF05E8D1BDE8F0812DE96B
:10CF4000F0470024FEF7A0F90025D54E01274FF643
:10CF5000FF78A1461E2002F0A3FBC6F88C711E20AC
:10CF600002F09EFBD6F8080118B107EB440084B22A
:10CF700001E008EA4404C6F88C916D1CEDB2102D56
:10CF8000E8D32046BDE8F08770B50024FEF77CF9B1
:10CF90000A2002F085FBC24D0026D5F80801C0B278
:10CFA00050B1022002F07CFB641CE4B20A2CF4D3E2
:10CFB000C5F88C61012070BD0120C5F88C013220BC
:10CFC00002F06EFBC5F88C61002070BD70B50024C6
:10CFD000FEF75AF9B24D06E0641CE4B2642C19D095
:10CFE000012002F05DFBD5F808010028F4D0FEF71F
:10CFF0005CF91E2002F054FB05F5C47500242C607A
:10D000001E2002F04DFB01266E601E2002F048FB40
:10D010006C602E6070BD70B5A24C00202070FFF7D0
:10D0200041FFC220FFF768FF1E2002F039FBFFF727
:10D03000ABFF40B1FFF74FFF2078012801D000205F
:10D0400070BD012070BD1E2002F02AFBFFF777FFA4
:10D050000646FFF7BBFF1E2002F022FBFFF76FFF23
:10D060000546FFF738FF692D01D1207808B100206F
:10D0700070BDF0B22071642801D9002070BD01207C
:10D0800070BD70472DE9FE43002000900190029092
:10D09000DFF8108288F80000FFF704FFC120FFF7D7
:10D0A0002BFF1E2002F0FCFAFFF76EFF20B1FFF706
:10D0B00012FF0020BDE8FE831E2002F0F1FAFFF708
:10D0C0003EFF0646ADF80000FFF780FF1E2002F08D
:10D0D000E7FAFFF734FFADF802000746FFF776FFE7
:10D0E0001E2002F0DDFAFFF72AFFADF80400054626
:10D0F000FFF76CFF1E2002F0D3FAFFF720FFADF818
:10D1000006000446FFF762FF1E2002F0C9FAFFF78F
:10D1100016FFADF808008146FFF7DDFEF01929196A
:10D12000084481B2894502D198F8000008B1002076
:10D13000C0E75D48BDF800100180BDF802104180D5
:10D14000C58204760120B5E770B50446554E00202F
:10D150003070FFF7A7FEE520FFF7CEFEE5250A2099
:10D1600002F09EFAFFF710FF18B1FFF7B4FE00209F
:10D1700070BDC4F30720FFF7BFFE05EB242085B286
:10D180001E2002F08DFAFFF7FFFE18B1FFF7A3FE95
:10D19000002070BDE0B2FFF7AFFEE0B2284484B2D9
:10D1A0001E2002F07DFAFFF7EFFE18B1FFF793FEA5
:10D1B000002070BD1E2002F073FAFFF7C0FEA042EF
:10D1C00008D1FFF788FE3078012801D0012070BD1A
:10D1D000002070BDFFF77FFE002070BD70B50446D3
:10D1E000304E00203070FFF75DFEE620FFF784FE32
:10D1F000E6251E2002F054FAFFF7C6FE18B1FFF72D
:10D200006AFE002070BD200AFFF776FE05EB1420B1
:10D2100085B21E2002F044FAFFF7B6FE18B1FFF700
:10D220005AFE002070BDE0B2FFF766FEE0B228446F
:10D2300084B21E2002F034FAFFF7A6FE18B1FFF701
:10D240004AFE002070BD1E2002F02AFAFFF777FE8A
:10D25000A04208D1FFF73FFE3078012801D001201D
:10D2600070BD002070BDFFF736FE002070BD2DE9B7
:10D27000F04104460D460B4F00203870FFF712FEB8
:10D28000D320FFF739FED3261E2002F009FAFFF75C
:10D290007BFE58B1FFF71FFE00204EE688012142B9
:10D2A00000002142940000203C070020200AFFF7E4
:10D2B00023FE06EB142086B21E2002F0F1F9FFF7E0
:10D2C00063FE18B1FFF707FE002036E6E0B2FFF775
:10D2D00013FEE0B2304484B21E2002F0E1F9FFF701
:10D2E00053FE18B1FFF7F7FD002026E6280AFFF7E6
:10D2F00003FE04EB152084B21E2002F0D1F9FFF7E3
:10D3000043FE18B1FFF7E7FD002016E6E8B2FFF78D
:10D31000F3FDE8B2204484B21E2002F0C1F9FFF709
:10D3200033FE18B1FFF7D7FD002006E61E2002F0FD
:10D33000B7F9FFF704FEA04208D1FFF7CCFD38781B
:10D34000012801D00120F8E50020F6E5FFF7C3FD34
:10D350000020F2E510B5FF4C00202070FFF7A2FD81
:10D36000E420FFF7C9FD1E2002F09AF9FFF70CFE3A
:10D3700018B1FFF7B0FD002010BD1E2002F090F99B
:10D38000FFF7DDFDE42803D0FFF7A5FD002010BD69
:10D39000FFF7A1FD2078012801D0012010BD002059
:10D3A00010BD2DE9FC4704468846914600200090B8
:10D3B0000190E84F3870FFF775FDD420FFF79CFD12
:10D3C0001E2002F06DF9FFF7DFFD20B1FFF783FDAE
:10D3D0000020BDE8FC872046FFF78EFD1E2002F0EE
:10D3E0005FF9FFF7D1FD18B1FFF775FD0020F0E7F9
:10D3F0001E2002F055F9FFF7A2FDADF8000004462B
:10D40000FFF7E4FD1E2002F04BF9FFF798FDADF8A1
:10D4100002000546FFF7DAFD1E2002F041F9FFF792
:10D420008EFDADF804000646FFF7D0FDFFF753FD73
:10D43000601981B28E4201D1387808B10020C8E766
:10D44000A8F80040A9F800500120C2E72DE9FC41EE
:10D450000646FFF727FDEF20FFF74EFD1E2002F0E6
:10D460001FF9FFF791FD20B1FFF735FD0020BDE862
:10D47000FC811E2002F014F9FFF761FDADF80000F9
:10D480000546FFF7A3FD1E2002F00AF9FFF757FD3E
:10D49000ADF802000446FFF799FD1E2002F000F9E6
:10D4A000FFF74DFDADF804000746FFF78FFD1E2086
:10D4B00002F0F6F8FFF70FFD281981B28F4204D170
:10D4C00004EB052030800120D1E70020CFE72DE9D3
:10D4D000FE4304460D460020009001900290DFF8C4
:10D4E000748288F80000FFF7DDFC2046FFF704FD9A
:10D4F0001E2002F0D5F8FFF747FD18B1FFF7EBFC4F
:10D500000020D7E52846FFF7F7FC1E2002F0C8F8F8
:10D51000FFF73AFD18B1FFF7DEFC0020CAE51E2038
:10D5200002F0BEF8FFF70BFD0646ADF80000FFF76E
:10D530004DFD1E2002F0B4F8FFF701FDADF802002A
:10D540000746FFF743FD1E2002F0AAF8FFF7F7FC9D
:10D55000ADF804000546FFF739FD1E2002F0A0F8E3
:10D56000FFF7EDFCADF806000446FFF72FFD1E2087
:10D5700002F096F8FFF7E3FCADF808008146FFF7EC
:10D58000AAFCF0192919084481B2894502D198F8FA
:10D59000000008B100208DE56F48BDF80010018043
:10D5A000BDF802104180C5820476012082E52DE994
:10D5B000FC470446DDF828900D46164698460020A4
:10D5C00000900190634F3870FFF76CFC2046FFF726
:10D5D00093FC1E2002F064F8FFF7D6FC18B1FFF7A9
:10D5E0007AFC0020F5E62846FFF786FC1E2002F0B4
:10D5F00057F8FFF7C9FC18B1FFF76DFC0020E8E60B
:10D600003046FFF779FC1E2002F04AF8FFF7BCFC19
:10D6100018B1FFF760FC0020DBE61E2002F040F8A6
:10D62000FFF78DFCADF800000446FFF7CFFC1E208D
:10D6300002F036F8FFF783FCADF802000546FFF76D
:10D64000C5FC1E2002F02CF8FFF779FCADF80400B1
:10D650000646FFF7BBFCFFF73EFC601981B28E4225
:10D6600001D1387808B10020B3E6A8F80040A9F845
:10D6700000500120ADE62DE9FC4107460D46144659
:10D68000002000900190334E3070FFF70BFC3846BD
:10D69000FFF732FC1E2002F003F8FFF775FC28B1FB
:10D6A000FFF719FC0A2020800020E0E62846FFF75B
:10D6B00023FC1E2001F0F4FFFFF766FC28B1FFF702
:10D6C0000AFC0B2020800020D1E6FFF738FCADF8E3
:10D6D00000000546FFF77AFC1E2001F0E1FFFFF78E
:10D6E0002EFCADF802000746FFF770FC1E2001F08B
:10D6F000D7FFFFF724FCADF804008046FFF766FC77
:10D700001E2001F0CDFFFFF7E6FBE81981B2884546
:10D7100001D1307818B10C2020800020A7E62580A8
:10D720000120A4E62DE9F04106460D461446094FB6
:10D7300000203870FFF7B6FB3046FFF7DDFB1E20F8
:10D7400001F0AEFFFFF720FC40B1FFF7C4FB002063
:10D75000A3E50000940000203C0700202846FFF7C6
:10D76000CBFB1E2001F09CFFFFF70EFC18B1FFF76A
:10D77000B2FB002091E57019C0B2FFF7BDFB1E207F
:10D7800001F08EFFFFF700FC18B1FFF7A4FB0020AB
:10D7900083E5C4F30720FFF7AFFBC4F30F251E207A
:10D7A00001F07EFFFFF7F0FB18B1FFF794FB0020BC
:10D7B00073E5E0B2FFF7A0FBE0B2284484B21E207C
:10D7C00001F06EFFFFF7E0FB18B1FFF784FB0020CC
:10D7D00063E51E2001F064FFFFF7B1FBA04208D112
:10D7E000FFF779FB3878012801D0012055E50020AA
:10D7F00053E5FFF770FB00204FE52DE9F04180462F
:10D800000E4615461C46F94F00203870FFF74AFBBC
:10D810004046FFF771FB1E2001F042FFFFF7B4FB0B
:10D8200018B1FFF758FB002037E53046FFF764FBDF
:10D830001E2001F035FFFFF7A7FB18B1FFF74BFBE8
:10D8400000202AE508EB0600C0B2FFF755FB1E20BA
:10D8500001F026FFFFF798FB18B1FFF73CFB002013
:10D860001BE52E0A3046FFF747FB1E2001F018FF8C
:10D87000FFF78AFB18B1FFF72EFB00200DE5E8B299
:10D88000FFF73AFBE8B2304485B21E2001F008FFF2
:10D89000FFF77AFB18B1FFF71EFB0020FDE4200A1A
:10D8A000FFF72AFB05EB142085B21E2001F0F8FEDD
:10D8B000FFF76AFB18B1FFF70EFB0020EDE4E0B2C2
:10D8C000FFF71AFBE0B2284484B21E2001F0E8FE04
:10D8D000FFF75AFB18B1FFF7FEFA0020DDE41E2027
:10D8E00001F0DEFEFFF72BFBA04208D1FFF7F3FAB1
:10D8F0003878012801D00120CFE40020CDE4FFF7E3
:10D90000EAFA0020C9E42DE9FE4F04460D46002046
:10D91000009001900290DFF8D4A28AF80000FFF78F
:10D92000C1FA2046FFF7E8FA1E2001F0B9FEFFF722
:10D930002BFB20B1FFF7CFFA0020BDE8FE8F284671
:10D94000FFF7DAFA1E2001F0ABFEFFF71DFB18B15E
:10D95000FFF7C1FA0020F0E7FFF7F1FA0646ADF84D
:10D960000000FFF733FB1E2001F09AFEFFF7E7FAF5
:10D97000ADF802000746FFF729FB1E2001F090FEDC
:10D98000FFF7DDFA0446ADF80400FFF71FFB1E2089
:10D9900001F086FEFFF7D3FAADF806000546FFF763
:10D9A00015FB1E2001F07CFEFFF7C9FAADF8080058
:10D9B0008046FFF70BFB1E2001F072FEFFF7BFFA57
:10D9C000ADF80A008146FFF786FAF019611908449C
:10D9D000404481B2894502D19AF8000008B1002084
:10D9E000ABE78348BDF800100180BDF8021041800C
:10D9F000C48205760120A0E71CB504467B48017966
:10DA00006F291AD00A2918D0DE2916D078488288C2
:10DA100004B93AB101210020CDE900100B460C21D8
:10DA2000FEF763FC002C08D002B000232522BDE8DD
:10DA300010400D211846FEF757BB1CBD6B480079FE
:10DA4000182801D2FFF71EBB04D14FF0C1014FF0DF
:10DA50005A003CE5C1215A2055E764490979182943
:10DA600001D2FFF771BB0246E5215A205AE65F4A10
:10DA70001279182A01D2FFF7FABB0B460246D321CE
:10DA80005A20BAE608B5594B1B79182B02D2BDE8CB
:10DA9000084086E400920B460246D4215A20FFF744
:10DAA00086FD08BD51480079182800D252E40122B1
:10DAB000E4215A2036E64D490979182901D2FFF7A9
:10DAC0008DBB02B2E6215A202CE648490979182973
:10DAD00000D2BBE40246EF215A20CCE54349097944
