:020000040800F2
:10800000B8F60020D9810008959200089F920008D8
:10801000A9920008B3920008BD9200080000000079
:108020000000000000000000000000004D8100087A
:10803000D19200080000000081810008FB070108C0
:10804000F3810008F3810008F3810008A9DB000830
:10805000F3810008F3810008F3810008F381000830
:10806000F3810008F3810008F3810008F381000820
:10807000F3810008F3810008F3810008F381000810
:10808000F3810008F3810008F3810008F381000800
:10809000F3810008F3810008F3810008F3810008F0
:1080A000F3810008F3810008F3810008F3810008E0
:1080B000F381000855C40008F3810008F38100082B
:1080C000F3810008F3810008F3810008F3810008C0
:1080D000F3810008053D010881AE01087DB5010866
:1080E000F3810008F3810008F3810008F3810008A0
:1080F000F3810008F3810008F3810008F381000890
:10810000F3810008F3810008F3810008F38100087F
:10811000F3810008F3810008C3C40008F38100085C
:10812000F3810008F3810008F3810008F38100085F
:10813000DFF80CD022F0D0FF00480047D38F0008B2
:10814000B8F6002080F30888704700001A4B1968C1
:108150000868B0E8F00F80F309884FF0000080F362
:1081600011884EF00D0E70470000000003480068B3
:10817000006880F3088862B600DF00BF08ED00E009
:10818000EFF309800C4B1A6820E9F00F106008B576
:108190004FF0000080F3118807F061FD4FF0000000
:1081A00080F31188BDE8084019680868B0E8F00F4E
:1081B00080F30988704700BFB000002001B44FF081
:1081C000000080F3118801BC704701B44FF000003B
:1081D00080F3118801BC7047064880470648004775
:1081E000FEE7FEE7FEE7FEE7FEE7FEE7FEE7FEE767
:1081F000FEE7FEE7339400083181000822F04DBB12
:1082000054656D636F48554D4E4554000000000F96
:108210000000000010B501210D2002F087F80121B7
:10822000FE4801F078FE10BD0020FD4981F83C00B9
:10823000FCA014F0A1FD642008F02DFD00BF11F09A
:1082400009FE05F0B1FAF64890F83C00012852D139
:10825000F34890F82F00F2498877084690F83800E4
:1082600081F827000846408F08850846817F2E2028
:1082700004F034F8EA4890F827103B2004F02EF878
:10828000E748008D01123C2004F028F8E44890F8FB
:1082900028103D2004F022F8002423E0E0482B3091
:1082A000015D113801551630015D11380155153049
:1082B000015D11380155A0F10902115D04F12F0093
:1082C00004F00CF8D64A1F32115D04F1330004F0BB
:1082D00005F8D34A2332115D04F1370003F0FEFFA5
:1082E000601CC4B2042CD9DB0120D24908700020E4
:1082F000CB4981F83C004FF47A7007F039FC9EE7D7
:108300000BF023FECC480078CC490870CCA014F0C8
:1083100033FD642008F0BFFC00BFCC48007850B1AA
:10832000CA480078401EC9490870084600780128EC
:1083300001D10FF0A8FDC6480078002809DDC44827
:108340000078401EC24908700846007808B90BF052
:10835000D1FC052007F00CFCDFE710B5BD4811F09B
:108360002CF81CF08DFEAE484078AD49097840EA03
:108370000120B9490860084600681CF088FE1BF01F
:10838000F3FB4FF0FF3011F013F90020B3490870F0
:10839000B3490870B34908704020B349087010BD54
:1083A00086B0002400209E4981F83D00FFF7D5FFEC
:1083B00000201DF01DF900201EF014F8ABA014F0F1
:1083C000DBFC642008F067FC00BF954890F83D0096
:1083D000012828D1A848008828B1A7480088401E55
:1083E000A54908801FE000208D4981F83D004FF429
:1083F0001670A1490880002509E000229F490878ED
:10840000411C9E4B19709E490A54681CC5B2C82D68
:10841000F3DB0BF06FFC00208149887400211420ED
:1084200003F05CFF00BF7E48807C88B97C48807C7C
:1084300000234FF416729349009001A81CF0F9FD37
:1084400004462CB1002322468E4901A81DF09BFF53
:10845000052007F08DFBB8E710B58B48007860B9B0
:108460000120894908704FF4FA71884808F036FCF9
:1084700042F21071864808F031FC0AF05CFB854935
:10848000088008460088002824DD4FF4006008F0CA
:10849000A0FC8149898988420BD1012008F070FE37
:1084A0007C48008800284BDD0AF05FF90AF04BFB9E
:1084B00046E040F6060008F08CFC7749898988423E
:1084C0003ED10AF0E6F873480088002838DD0AF04B
:1084D0003AFB35E06D4808F014FC88B36B4808F0AF
:1084E00005FC002409E06B480088002803DD0AF041
:1084F0003CF90AF028FB601CC4B2142CF3DB002406
:1085000013E000BF654800EB841065490860052052
:1085100008F036FE00BF5F480088002803DD0AF03F
:1085200024F90AF010FB601CC4B20A2CE9DB58489D
:1085300008F0E7FB20B1564808F0D8FB09F0FBFF34
:1085400010BD002457A014F017FC642008F0A3FB12
:1085500000BFFFF781FF37480078012803D0544857
:10856000007801282CD1601CC4B20A2C28D1002428
:108570000020304908704E48007801280FD10020B3
:1085800004F0B9FB4BA300220621012004F0C1FB3B
:108590004BA300220321022004F0BBFB0EE00020CD
:1085A00004F0A9FB4BA300220621012004F0B1FB3B
:1085B00043A300220321022004F0ABFB0BF028FEB2
:1085C000052007F0D5FAC4E710B501F02AFD10BD6B
:1085D0007CB503F043FE13F028FC002003F042FEBC
:1085E0000F490870012003F03DFE0D49487002203C
:1085F00003F038FE0A498870032003F033FE08496F
:10860000C870162003F02EFE8DF80000172003F02E
:1086100029FE8DF80100182064E0000000023000FF
:10862000246E0020466C617368205461736B0D0AE0
:10863000000000007A0100208B0100208C01002046
:10864000434F4D4D205461736B0D0A008201002091
:10865000800100209401002004000020B8030020C5
:10866000B9030020BB030020BA0300204D5354502F
:10867000205461736B0D0A00080000207E01002069
:108680005C6C0020700400201C0000200C00002006
:10869000140000203401002060590020AC64002048
:1086A000400100204E6574205461736B0D0A000078
:1086B000000000205570646174696E672E2E2E00D4
:1086C000446F6E277420706F776572206F66662125
:1086D0000000000052657374617274696E672E2E1B
:1086E0002E00000003F0BEFD8DF80200192003F0FB
:1086F000B9FD8DF803009DF80000FF282BD19DF8EF
:108700000100FF2827D19DF80200FF2823D19DF802
:108710000300FF281FD101208DF8000002208DF8F2
:10872000010003208DF8020004208DF803009DF85D
:108730000010162003F0D2FD9DF80110172003F061
:10874000CDFD9DF80210182003F0C8FD9DF8031020
:10875000192003F0C3FD9DF8000000069DF80110EC
:1087600000EB01409DF8021000EB01209DF8001085
:108770000844FE4908600F21042003F0AFFD0021EA
:10878000052003F0ABFD062003F06CFDF8490871ED
:1087900008460079FF2802D00846007938B9FE2043
:1087A000F349087108460179062003F097FD072078
:1087B00003F058FDEE4988730846807BD42806D024
:1087C000D42088730846817B072003F087FD0820AA
:1087D00003F048FDE649C8730846C07BFF2802D075
:1087E0000846C07B38B90820E149C8730846C17BF8
:1087F000082003F073FD102003F034FDDC494873BA
:10880000112003F02FFDDA4908744FF4F56003F0EE
:1088100029FDD84908700846007848B10846007814
:10882000012805D008460078022801D000200870F1
:10883000152003F017FDCE4908730846007B042875
:1088400006DD012008730846017B152003F046FD74
:10885000C748007B052836D2DFE800F0030D17215A
:108860002B004FF41650C249886008F08AF80620A1
:10887000C149087028E04FF49640BD49886008F06F
:1088800080F80320BC4908701EE04FF41640B84938
:10889000886008F076F80220B749087014E04FF4B9
:1088A0006140B349886008F06CF80120B249087053
:1088B0000AE04FF4E130AE49886008F062F8012028
:1088C000AD49087000E000BF00BF142003F0CAFCEF
:1088D000A74988740846807C032809D00846807C14
:1088E00030B1032088740846817C142003F0F6FC24
:1088F000002407E004F1280003F0B4FC0DF80400A4
:10890000601CC4B2062CF5DB9DF80000FF2843D1A3
:108910009DF80100FF283FD19DF80200FF283BD1C0
:108920009DF80300FF2837D19DF80400FF2833D1BC
:108930009DF80500FF282FD104208DF800000220AB
:108940008DF8010035208DF80200AF208DF803006E
:1089500000208DF8040001208DF805009DF800101E
:10896000282003F0BBFC9DF80110292003F0B6FC81
:108970009DF802102A2003F0B1FC9DF803102B2073
:1089800003F0ACFC9DF804102C2003F0A7FC9DF82C
:1089900005102D2003F0A2FC002406E01DF80410B1
:1089A000734814300155601CC4B2062CF6DB002459
:1089B00007E004F12F0003F055FC0DF80400601CE3
:1089C000C4B2042CF5DB9DF80000FF282BD19DF8E4
:1089D0000100FF2827D19DF80200FF2823D19DF830
:1089E0000300FF281FD1C0208DF80000A8208DF8BB
:1089F000010000208DF80200B7208DF803009DF8DB
:108A000000102F2003F06AFC9DF80110302003F0C5
:108A100065FC9DF80210312003F060FC9DF8031006
:108A2000322003F05BFC002409E01DF804105048DC
:108A30001A300155015D11300155601CC4B2042C7F
:108A4000F3DB2E2003F00EFC8DF800009DF80000F3
:108A5000012807DD00208DF800009DF800102E2071
:108A600003F03CFC9DF80000414988770846807F70
:108A700081F82F00002407E004F1330003F0F2FB3B
:108A80000DF80400601CC4B2042CF5DB9DF8000056
:108A9000FF2828D19DF80100FF2824D19DF802006D
:108AA000FF2820D19DF80300FF281CD18DF800007D
:108AB0008DF801008DF8020000208DF803009DF86C
:108AC0000010332003F00AFC9DF80110342003F05D
:108AD00005FC9DF80210352003F000FC9DF8031002
:108AE000362003F0FBFB002409E01DF804102048A9
:108AF0001F300155015D11300155601CC4B2042CBA
:108B0000F3DB002407E004F1370003F0ABFB0DF8C2
:108B10000400601CC4B2042CF5DB9DF80000FF28A3
:108B200034D19DF80100FF2830D19DF80200FF28C4
:108B30002CD19DF80300FF2828D1C0208DF800001B
:108B4000A8208DF8010000208DF8020004208DF887
:108B500003009DF80010372003F0C0FB9DF80110C2
:108B6000382003F0BBFB9DF8021007E00400002052
:108B7000246E00208D01002081010020392003F0A7
:108B8000ADFB9DF803103A2003F0A8FB002408E099
:108B90001DF80410FA480155015D11300155601CA3
:108BA000C4B2042CF4DB3B2003F05CFB8DF8000026
:108BB0009DF80000FF2807D100208DF800009DF8E7
:108BC00000103B2003F08AFB9DF80000EC4923399C
:108BD00081F82700084690F8270081F838003C20EB
:108BE00003F040FB8DF800003D2003F03BFB8DF8C7
:108BF00001009DF80000FF2812D19DF80100FF2818
:108C00000ED14FF4FB70DE49233908850846008DEC
:108C1000000A8DF80000084690F828008DF8010041
:108C20009DF801009DF8001040EA0120D449233945
:108C300008850846008D4887002081F83C00C874EC
:108C4000D0490870452003F0FDFBCF490870084665
:108C5000007818B108460078FF2803D10220CA49DD
:108C6000087006E0C8480078142802DD1420C649C0
:108C70000870462003F0E6FBC449087008460078F7
:108C800018B108460078FF2803D10220BF490870B8
:108C900006E0BE480078142802DD1420BB490870A5
:108CA000512003F0CFFB0646522003F0CBFB46EAEF
:108CB000002005B2B6480581532003F0C3FB0646E9
:108CC000542003F0BFFB46EA002005B2B0484581BE
:108CD000B0F90810B0F90A00814207DDAC48B0F9DC
:108CE0000A504089AA490881084645815F2003F05F
:108CF000A9FB0646602003F0A5FB46EA002005B26A
:108D0000A3488580612003F09DFB0646622003F0A6
:108D100099FB46EA002005B29D48C580B0F90410D1
:108D2000B0F90600814207DD9948B0F90650C088C5
:108D3000974988800846C580632003F083FB064678
:108D4000642003F07FFB46EA002005B290480580CE
:108D5000652003F077FB0646662003F073FB46EAC6
:108D6000002005B28A484580B0F900008849B1F971
:108D70000210884207DD8648B0F9025040888449D5
:108D8000088008464580562003F05CFB05460DB17F
:108D9000FF2D03D100207F49087002E001207D49AA
:108DA0000870572003F04EFB7B490870582003F0F1
:108DB00049FB79494870592003F044FB7649887093
:108DC0005A2003F03FFB7449C870084600783928E0
:108DD0001BDC08460078302817DB08464078392825
:108DE00013DC0846407830280FDB084680783928A5
:108DF0000BDC08468078302807DB0846C078392825
:108E000003DC0846C07830281CDA3120624908703B
:108E100032204870332088703420C87008460178AA
:108E2000572003F001FB5C484178582003F0FCFA1E
:108E300059488178592003F0F7FA5748C1785A20E9
:108E400003F0F2FA5E2003F0FDFA54490870084678
:108E50000078FF2801D11E20087040F2047003F052
:108E6000F1FA4F4988740846807CFF2806D1052016
:108E70008874052140F2047003F0D6FA40F20370C2
:108E800003F0E0FA464948740846407CFF2806D1C2
:108E900005204874052140F2037003F0C5FA40F242
:108EA000027003F0CFFA3F49087008460078FF28A7
:108EB00006D105200870052140F2027003F0B4FAD3
:108EC000002037494881C8801522374940F2617037
:108ED00003F07FFA40F2767003F0B4FA064640F2EF
:108EE000777003F0AFFA46EA002000B22F490880FD
:108EF0004FF4EF6003F0A6FA064640F2797003F0F3
:108F0000A1FA46EA002000B22849488040F27A706F
:108F100003F098FA064640F27B7003F093FA46EAB3
:108F2000002000B22149888040F27C7003F08AFA68
:108F3000064640F27D7003F085FA46EA002000B252
:108F40001A49C88040F27E7003F07CFA064640F26F
:108F50007F7003F077FA46EA002001B213480181DE
:108F60004FF4F06003F06EFA064640F2817003F0B1
:108F700069FA46EA002001B20C4841817CBD00003C
:108F8000476E0020D1010020D3010020D401002031
:108F900048020020CE020020D3020020E10200207F
:108FA000900700206C020020940100204A900020CD
:108FB00010B545F2555001F02BF8032001F02BF8C5
:108FC0004FF47A6001F02AF801F030F801F029F846
:108FD00010BD1FB57549080300F0E3FAFFF71AF951
:108FE0004FF4407000F0A6FA482007F00BFEFFF7A0
:108FF000DFFF0121142007F00FF96D4908600121FE
:10900000142007F009F96B49086007F027FA6A494C
:10901000086007F023FA694908606548006840B1B4
:109020006448006828B16448006810B108460068C8
:1090300008B900BFFEE704F071FB61A300221146EE
:10904000104603F066FEFFF7C3FA10F02FFF02F0A0
:109050001FFF60A300221146012003F05AFE60A307
:1090600000221146022003F054FEFFF7ADFA02E0A1
:10907000322007F010FE09F053FC0028F8D15BA065
:1090800022F006FCFFF7A0FA5EA30022114603209F
:1090900003F03FFE5EA013F06FFE60A300221146B6
:1090A000042003F036FEFFF78FFA00200123CDE9FC
:1090B0000030029003464FF4C0725AA103905A4800
:1090C00006F05BFB00200123CDE90030029003464F
:1090D0004FF4C07255A10390564806F04EFB002095
:1090E0000223CDE90030029003464FF4807252A172
:1090F0000390534806F041FB00200523CDE90030E2
:109100000290034680224FA10390544806F035FB9D
:1091100000200123CDE9003002900346802250A1B7
:109120000390534806F029FB00200223CDE90030CC
:109130000290034640F25C624EA103904F4806F055
:109140001CFB00200123CDE9003002900346802261
:109150004BA103904C4806F010FB00200523CDE9FD
:10916000003002900346802248A10390484806F050
:1091700004FB062013F0D6FE06F087FE002004B0A4
:1091800010BD0146CAB20B0A43EA0220704730B54F
:109190000146CAB2C1F30723C1F307440D0E1006FE
:1091A00040EA034040EA0420284330BD0080000824
:1091B0001C02002010020020E4020020E80200202F
:1091C000496E697469616C697A6174696F6E2E2E7B
:1091D0002E00000045455020697320446F6E6500E5
:1091E00052544320697320446F6E6500454E4332EC
:1091F000384A363020496E697420446F6E65210DFF
:109200000A0000004E657420697320446F6E65008B
:10921000434F325F4E45540A0D000000446F6E65A7
:10922000000000004E455400438500084D53545043
:1092300000000000A1830008434F4D4D00000000D6
:10924000018300085570646174655F54656D7065D5
:109250007261747572655F5461736B0001C90108B6
:109260007653746172745049445461736B0000000A
:10927000272F0208464C415348000000298200086D
:109280004F7574507574000039BA01084B45590088
:1092900049DD000810B516A022F0FAFA10BD02E070
:1092A00016A022F0F5FAFBE702E017A022F0F0FA90
:1092B000FBE702E017A022F0EBFAFBE702E018A0C0
:1092C00022F0E6FAFBE710B519A022F0E1FA10BD92
:1092D00010B519A022F0DCFA10BD10B518A022F0CC
:1092E000D7FA10BD10B518A022F0D2FA10BD0000B8
:1092F0004E4D49206661756C7400000068617264AF
:10930000206661756C7400004D656D204661756C5A
:1093100074200000427573204661756C7420000053
:109320005573616765204661756C7420000000000C
:10933000535643200000000044656275672000001A
:1093400050656E20000000005379735469636B20F0
:10935000000000000CB50020019000906C480068EF
:1093600040F480306A49086000BF6948006800F432
:10937000003000900198401C0190009818B90198A5
:10938000B0F5A06FF1D16248006800F4003010B170
:109390000120009001E0002000900098012843D1B6
:1093A0005C48006840F010005A49086008460068B0
:1093B00020F0030008600846006840F002000860E2
:1093C000534840685249486008464068486008462B
:1093D000406840F4806048600846406820F47C1093
:1093E00048600846406840F4E81048600846006855
:1093F00040F08070086000BF4548006800F00070D1
:109400000028F9D04248406820F0030040494860F5
:109410000846406840F00200486000BF3C48406891
:1094200000F00C000828F9D10CBD10B5FFF792FF31
:1094300010BD10B53648006840F00100344908609E
:109440000846406834490840314948600846006889
:10945000324908402E4908600846006820F4802000
:1094600008600846406820F4FE0048604FF41F0082
:109470008860FFF7DAFF4FF000602949086010BDEF
:1094800010B5002100200022214B5B6803F00C0185
:1094900021B1042906D0082928D107E0214B224C0C
:1094A000236027E01F4B204C236023E0184B5B68B0
:1094B00003F47010164B5B6803F48032022303EB55
:1094C000904022B9194B4343174C23600DE0104BD9
:1094D0005B6803F4003323B1144B4343124C236005
:1094E00003E0104B4343104C236003E00D4B0E4C44
:1094F000236000BF00BF064B5B68C3F303130C4C33
:10950000E15C094B1B68CB40074C236010BD000099
:1095100000100240002002400000FFF8FFFFF6FEAE
:1095200008ED00E000127A002000002000093D0054
:109530002400002031490143314A1160704770B561
:10954000002100230F22C47804B32D4C246804F4B6
:10955000E064C4F5E064210AC1F10403CA40447820
:1095600004FA03F18478144021430901254C06785C
:10957000A155047804F01F050124AC4005786D1155
:10958000AD0005F1E025C5F8004109E0047804F0DC
:109590001F050124AC401C4D0678761145F8264085
:1095A00070BD1A4A0A400243154B1B1F1A607047D0
:1095B00039B1134A121D12680243114B1B1D1A6068
:1095C00006E00F4A121D126882430D4B1B1D1A60E4
:1095D0007047042808D14FF0E021096941F00401E7
:1095E0004FF0E022116107E04FF0E021096921F01E
:1095F00004014FF0E0221161704700000000FA05FD
:109600000CED00E000E400E080E100E080FFFF1FDF
:1096100010B50446FA48844208D10121401500F0F3
:109620009FFE0021601500F09BFE17E0F548844284
:1096300008D10121001500F093FE0021201500F053
:109640008FFE0BE0F048844208D10121C80300F0EE
:1096500087FE00214FF4004000F082FE10BD30B5BF
:109660000246002000235068E84C20400D790C6829
:1096700044EA0524204350609068E54C2040D1E93D
:1096800002542C434D7944EA450420439060D06A4B
:1096900020F470000C7C641EE4B2234340EA0350C3
:1096A000D06230BD00210160017141718160C160F3
:1096B00001210174704721B1826842F00102826089
:1096C00003E0826822F001028260704721B1826863
:1096D00042F48072826003E0826822F480728260C9
:1096E000704710B50023CBB21AB144681C434460E4
:1096F00002E044689C43446010BD816841F0080169
:1097000081607047014600208A6802F008020AB1B1
:10971000012000E000207047816841F00401816071
:109720007047014600208A6802F004020AB1012055
:1097300000E00020704721B1826842F4A0028260FC
:1097400003E0826822F4A002826070470146002094
:109750008A6802F480020AB1012000E0002070470C
:1097600010B50A4600210023416821F46041531ED0
:1097700041EA4331416010BD21B1426842F40062C8
:10978000426003E0426822F4006242607047F0B534
:1097900004460D4600200021092D11DDE068A5F1E9
:1097A0000A0606EB4607072606FA07F18843A5F1E5
:1097B0000A0606EB460603FA06F10843E0600CE0F1
:1097C000206905EB4507072606FA07F1884305EBF4
:1097D000450603FA06F108432061072A0FDA606B99
:1097E000561E06EB86071F2606FA07F18843561E0B
:1097F00006EB860605FA06F10843606322E00D2AAF
:109800000FDA206BD61F06EB86071F2606FA07F134
:109810008843D61F06EB860605FA06F10843206347
:1098200010E0E06AA2F10D0606EB86071F2606FA95
:1098300007F18843A2F10D0606EB860605FA06F14C
:109840000843E062F0BD21B1826842F48012826078
:1098500003E0826822F48012826070470146C86C7F
:1098600080B2704766484C300068704721B142684A
:1098700042F48062426003E0426822F48062426007
:10988000704721B1426842F48052426003E042686E
:1098900022F48052426070470A460021816821F418
:1098A000E04111438160704721B1826842F4004277
:1098B000826003E0826822F400428260704721B136
:1098C000826842F40212826003E0826822F402128B
:1098D00082607047014600208A6802F400120AB1D3
:1098E000012000E000207047F0B504461546002036
:1098F00000220026092911DDE068A1F10A0707EB23
:10990000470C072707FA0CF29043A1F10A0707EB6F
:10991000470703FA07F21043E0600CE0206901EB0F
:10992000410C072707FA0CF2904301EB410703FAB9
:1099300007F210432061A06BC0F30156EF1C06F143
:10994000010CA7EB0C0707EB870C1F2707FA0CF29B
:109950009043EF1C06F1010CA7EB0C0707EB870700
:1099600001FA07F21043A063F0BD10B50A460021CA
:109970000023816B21F44011531E41EA035181639E
:1099800010BD08B5002300930090009B0B4400938A
:10999000009B1A6008BD08B50246002000900092A6
:1099A00001F12800009B184400900098006880B2E4
:1099B00008BD0A4600214168164B19401143416019
:1099C00070474162826270470A460021416821F077
:1099D0001F0111434160704740B1094908310968CE
:1099E00041F40001064A0832116007E004490831D9
:1099F000096821F40001024A083211607047000032
:109A00000024014000280140003C0140FFFEF0FF1F
:109A1000FDF7F1FFFFFD3FFF0246002013680B40FA
:109A20000BB1012000E000207047CA43026070477C
:109A300070B502460020002300240B125568CEB2F8
:109A400005EA060415681D4015B10CB1012000E0BF
:109A5000002070BD00220A12D3430360704700004B
:109A600001684FF6FE721140016000210160416003
:109A70008160C1608D49884208D18C4908394968A4
:109A800041F00F01894A083A51608AE08749143150
:109A9000884208D185490839496841F0F001834A74
:109AA000083A51607DE081492831884208D17F49D8
:109AB0000839496841F470617C4A083A516070E0A5
:109AC0007A493C31884208D178490839496841F4DB
:109AD0007041764A083A516063E0744950318842D7
:109AE00008D172490839496841F470216F4A083A2F
:109AF000516056E06D496431884208D16B4908399C
:109B0000496841F47001694A083A516049E067497F
:109B10007831884208D165490839496841F0706157
:109B2000624A083A51603CE06149884206D1011F0F
:109B3000096841F00F01021F116032E05C491431E5
:109B4000884208D15A49091F096841F0F001584A72
:109B5000121F116025E056492831884208D1544926
:109B6000091F096841F47061514A121F116018E021
:109B70004F493C31884208D14D49091F096841F4D9
:109B800070414B4A121F11600BE049495031884225
:109B900007D14749091F096841F47021444A121F3F
:109BA0001160704710B50022026847F6F0739A43BF
:109BB0000C6A8B6823430C6923434C6923438C69EB
:109BC0002343CC6923434C6A23438C6A23431A43BF
:109BD0000260CB6843600B6883604B68C36010BD54
:109BE0000021016041608160C1600161416181616A
:109BF000C161016241628162704721B1026842F035
:109C00000102026004E002684FF6FE731A4002602F
:109C100070471AB103680B43036002E003688B438B
:109C200003607047416070470146486880B27047E2
:109C300001460020002201F080531BB11C4B083B61
:109C40001A6802E0194B083B1A6802EA01030BB1DB
:109C5000012000E00020704700F0805119B1144944
:109C6000091F086002E01149083948607047014641
:109C70000020002201F080531BB10D4B083B1A68F5
:109C800002E00A4B083B1A6802EA01030BB101200B
:109C900000E00020704700F0805119B10449091F0D
:109CA000086002E001490839486070470800024036
:109CB0000804024010B50446CC48844208D1012172
:109CC000042000F04DFB0021042000F049FB46E099
:109CD000C748844208D10121082000F041FB00213F
:109CE000082000F03DFB3AE0C248844208D101213F
:109CF000102000F035FB0021102000F031FB2EE099
:109D0000BD48844208D10121202000F029FB002118
:109D1000202000F025FB22E0B848844208D1012130
:109D2000402000F01DFB0021402000F019FB16E050
:109D3000B348844208D10121802000F011FB0021AA
:109D4000802000F00DFB0AE0AE48844207D10121DB
:109D5000801500F005FB0021A01500F001FB10BDEF
:109D600010B50121084600F0FBFA0021012000F0A7
:109D7000F7FA10BD2DE9F04102460025002600202B
:109D800000230024002791F803C00CF00F0591F880
:109D900003C00CF0100CBCF1000F03D091F802C00E
:109DA0004CEA050591F800C0BCF1000F31D01468F1
:109DB00000202BE04FF0010C0CFA00F3B1F800C0CA
:109DC0000CEA03069E4220D183004FF00F0C0CFAE0
:109DD00003F7BC4305FA03FC4CEA040491F803C002
:109DE000BCF1280F06D14FF0010C0CFA00FCC2F8B0
:109DF00014C00AE091F803C0BCF1480F05D14FF040
:109E0000010C0CFA00FCC2F810C0401C0828D1D389
:109E10001460B1F800C0BCF1FF0F34DD54680020BD
:109E20002EE000F1080C4FF0010808FA0CF3B1F82D
:109E300000C00CEA03069E4221D183004FF00F0CB4
:109E40000CFA03F7BC4305FA03FC4CEA040491F84E
:109E500003C0BCF1280F05D100F1080C08FA0CF87A
:109E6000C2F8148091F803C0BCF1480F07D100F18B
:109E7000080C4FF0010808FA0CF8C2F81080401CDA
:109E80000828CED35460BDE8F0814FF6FF71018001
:109E9000022181700421C17070470246002093683E
:109EA0000B400BB1012000E000207047014688689C
:109EB00080B2704702460020D3680B400BB10120EE
:109EC00000E0002070470146C86880B27047016119
:109ED0007047416170470AB1016100E0416170471C
:109EE000C16070474FF480320A43826181618261B0
:109EF00082698269704702460020434B18684FF61A
:109F00008073184040EA021008433F4B18607047C6
:109F10003E49C8617047F0B50A460023002400217D
:109F2000002500F00046B6F1004F02D1364EF1692F
:109F300001E0354E7168C0F3034583B200F440166A
:109F4000B6F5401F08D121F070612F4E766826F0DB
:109F500070662D4F7E6012E000F48016B6F5801F0B
:109F600006D1032606FA05F4A14341F0706106E02C
:109F7000460D360103FA06F6B14341F0706122B195
:109F8000460D360103FA06F6314300F00046B6F1FD
:109F9000004F02D11C4EF16101E01B4E7160F0BD1B
:109FA00030B500228B071C0F0F2303FA04F2164B67
:109FB00008338C1053F824309343134C08348D101D
:109FC00044F8253023468C1053F824308C07240F96
:109FD00000FA04F423430C4C08348D1044F8253067
:109FE00030BD0A49DC3108607047000000080140BC
:109FF000000C014000100140001401400018014015
:10A00000001C0140002001400000014000002042EF
:10A010000E49086070470D49486070470B498860D9
:10A0200070474AF6AA200949086070474CF6CC40B0
:10A0300006490860704701460020044AD2680A4079
:10A040000AB1012000E0002070470000003000400D
:10A05000DF48006840F00100DD49086008464068BC
:10A06000DC490840DA49486008460068DA49084097
:10A07000D74908600846006820F480200860084638
:10A08000406820F4FE0048604FF41F00886070476D
:10A09000CF49096821F48031CD4A11601146096821
:10A0A00021F480211160B0F5803F03D0B0F5802FFE
:10A0B0000ED106E0C649096841F48031C44A1160F6
:10A0C00007E0C349096841F4A021C14A116000E0DA
:10A0D00000BF00BF704710B50146002200230020DA
:10A0E0004A11012A02D1BA4C236806E0022A02D1A1
:10A0F000B74C236A01E0B64C636A01F01F020124E9
:10A1000094401C400CB1012000E0002010BD38B587
:10A11000002000900024002500BF3120FFF7DBFF66
:10A1200005460098401C00900098B0F5A06F01D043
:10A13000002DF2D03120FFF7CEFF08B1012400E05E
:10A140000024204638BD01460020A14A106820F0B6
:10A15000F80040EAC10010607047A04908607047ED
:10A16000024600209A4B586820F47C1042EA010312
:10A170001843974B586070479849086670470146E6
:10A180000020934A506820F0030008435060704755
:10A190008F48406800F00C007047014600208C4A50
:10A1A000506820F0F00008435060704701460020DE
:10A1B000874A506820F4E0600843506070470146C9
:10A1C0000020834A506820F4605040EAC10050608B
:10A1D000704729B17E4A527A02437D4B5A7204E09D
:10A1E0007B4A527A82437A4B5A7270477B49D83104
:10A1F0000860704701460020754A506820F44040CE
:10A200000843506070470021714A20321170704A33
:10A2100082F82010012802D004280AD104E001218C
:10A220006B4A2032117005E00521694A2032117015
:10A2300000E000BF00BF704769490860704764498B
:10A24000096A0143624A11627047654944390860EE
:10A25000704730B500210022002400235C4D6D685A
:10A2600005F00C0121B1042905D0082923D105E00E
:10A270005C4D056022E05B4D05601FE0544D6D684C
:10A2800005F47012524D6D6805F48034022505EB1B
:10A2900092421CB9544D554305600BE04C4D6D681E
:10A2A00005F400351DB1504D5543056002E04D4D9C
:10A2B0005543056002E04B4D056000BF00BF444DB3
:10A2C0006D6805F0F0010909484D6B5C0568DD40DB
:10A2D00045603F4D6D6805F4E061090A434D6B5CD4
:10A2E0004568DD4085603A4D6D6805F46051C90AE6
:10A2F0003E4D6B5C4568DD40C560354D6D6805F4CD
:10A300004041890B3A4D6B5CC568B5FBF3F50561BF
:10A3100030BD29B12E4A526902432D4B5A6104E0E7
:10A320002B4A526982432A4B5A61704729B1284A05
:10A3300092690243264B9A6104E0254A926982435E
:10A34000234B9A61704729B1214AD2690243204BBD
:10A35000DA6104E01E4AD26982431D4BDA6170471C
:10A3600029B11B4AD2680243194BDA6004E0184A4B
:10A37000D2688243164BDA60704729B1144A1269D9
:10A380000243134B1A6104E0114A12698243104BD5
:10A390001A61704712494039086070470F49C86414
:10A3A00070470B49C87170470948406A40F0807097
:10A3B00007494862704701460020054A92680A40F2
:10A3C0000AB1012000E000207047014988727047FF
:10A3D000001002400000FFF8FFFFF6FE00004242BE
:10A3E0008004424200127A0000093D00340000203F
:10A3F0004400002029B1504A128802434E4B1A8073
:10A4000004E04D4A128882434B4B1A8070474A48F9
:10A41000001D008840F010004749091D0880704762
:10A420004548001D00884FF6EF7108404249091D5C
:10A4300008807047002140481C300188001F0088B8
:10A4400041EA0040704700B50246FFF7E0FF100CFC
:10A45000394918310880091D0A80FFF7E1FF00BD66
:10A4600000B50246FFF7D3FFC2F30340324908317B
:10A470000880091D0A80FFF7D3FF00BD00B5024622
:10A48000FFF7C5FF100C2C4920310880091D0A80F8
:10A49000FFF7C6FF00BD00202749103109880907D2
:10A4A000080B2549143109880843704700BF22482A
:10A4B000001D008800F020000028F8D070471E48DA
:10A4C000001D00884FF6F77108401B49091D0880E0
:10A4D00000BF1948001D008800F008000028F8D0CF
:10A4E000704701460020144A121D12880A400AB122
:10A4F000012000E0002070470F49091D09888143B1
:10A500000D4A121D11807047014600200A4A121D93
:10A5100012880A40D0B2084A12880A4012B108B123
:10A52000012000E0002070470349091D098881438C
:10A53000014A121D118070470028004010B50446E2
:10A54000BE48844208D101218014FFF709FF002191
:10A55000A014FFF705FF16E0B948844208D1012195
:10A560000014FFF70AFF00212014FFF706FF0AE09E
:10A57000B448844207D10121C013FFF7FEFE002139
:10A58000E013FFF7FAFE10BD10B50022028802F4B6
:10A5900041520B884C8823438C882343CC88234327
:10A5A0000C8923434C8923438C892343CC8923433F
:10A5B0001A430280838B4FF2FF74234083830B8AFC
:10A5C000038210BD2DE9F04F85B005460C464FF0D3
:10A5D000000902274FF000084FF0010B0026B24699
:10A5E000A88B4FF240010840A88302202884B5F8C8
:10A5F0001C90A068022801D100BF38E0A08810B9E3
:10A600004FF0010B01E04FF0020B8D48854200D165
:10A6100000E000BF6846FFF71CFEDDF800A0E08800
:10A62000B0F5007F0AD14FEA1A2000EB800040000D
:10A63000A168B0FBF1F0401D86B20BE04FEA4B1071
:10A64000BAFBF0F000EB80004000A168B0FBF1F035
:10A65000401D86B20A20B6FBF0F606F00108A6EB14
:10A660000800C0F34F074FF6FF7000EA0828022FDA
:10A6700001DBFF2F02DD02274FF00008E08840EAEF
:10A68000080038432884A088A189084361880843CA
:10A690002188084340F4006040EA0909A5F81C90AD
:10A6A00005B0BDE8F08F0021018041808180C1802C
:10A6B000018141818181C18107210182704700218F
:10A6C000018041808180C1800221816000218181DF
:10A6D000704721B1028842F04002028004E0028803
:10A6E0004FF6BF731A400280704721B1828B42F44B
:10A6F0008062828304E0828B4FF6FF331A408283AC
:10A70000704730B5002400230C110125A540ABB2E1
:10A710001AB185881D43858002E085889D43858028
:10A7200030BD1AB183880B43838002E083888B435A
:10A7300083807047818170470146888970474FF652
:10A74000FF62914204D0028842F48072028004E0E9
:10A7500002884FF6FF631A400280704721B1828859
:10A7600042F00402828004E082884FF6FB731A40B4
:10A770008280704702884FF2FF731A40028002887D
:10A780000A4302807047018841F48051018070477C
:10A7900021B1028842F40052028004E002884DF6A2
:10A7A000FF731A400280704702460020012901D041
:10A7B000108B00E0908A70470146088A7047B1F517
:10A7C000804F04D1028842F48042028004E0028873
:10A7D0004BF6FF731A40028070470246002013892F
:10A7E0000B400BB1012000E000207047CA430281FA
:10A7F0007047F0B50246002000240023002501F038
:10A800000F070126BE40B4B20B1101269E40B3B221
:10A81000968806EA03051689264016B10DB1012077
:10A8200000E00020F0BD10B5002201F00F0401236C
:10A83000A3409AB2D343038110BD00000030014011
:10A8400000380040003C004010B50446FE488442F9
:10A8500008D10121C014FFF783FD0021E014FFF7A8
:10A860007FFDC4E0B4F1804F08D101210846FFF715
:10A8700084FD00210120FFF780FDB8E0F348844209
:10A8800008D101210220FFF778FD00210220FFF707
:10A8900074FDACE0EE48844208D101210420FFF7AA
:10A8A0006CFD00210420FFF768FDA0E0E948844228
:10A8B00008D101210820FFF760FD00210820FFF7E3
:10A8C0005CFD94E0E448844208D101211020FFF7A8
:10A8D00054FD00211020FFF750FD88E0DF4884423E
:10A8E00008D101212020FFF748FD00212020FFF79B
:10A8F00044FD7CE0DA48844208D101214014FFF78E
:10A900002FFD00216014FFF72BFD70E0D548844235
:10A9100009D10121C804FFF723FD00214FF40020D5
:10A92000FFF71EFD63E0D048844209D101210805EC
:10A93000FFF716FD00214FF48010FFF711FD56E0E0
:10A94000CA48844209D101214805FFF709FD0021C9
:10A950004FF40010FFF704FD49E0C548844208D1D8
:10A9600001214020FFF709FD00214020FFF705FDF0
:10A970003DE0C048844208D101218020FFF7FDFC62
:10A9800000218020FFF7F9FC31E0BB48844208D168
:10A9900001218015FFF7F1FC0021A015FFF7EDFC68
:10A9A00025E0B648844209D101210804FFF7D8FC0C
:10A9B00000214FF48030FFF7D3FC18E0B048844208
:10A9C00009D101214804FFF7CBFC00214FF40030EE
:10A9D000FFF7C6FC0BE0AB48844208D10121880494
:10A9E000FFF7BEFC00214FF48020FFF7B9FC10BD3B
:10A9F00000220288944B98420ED0994B98420BD07B
:10AA0000B0F1804F08D0914B984205D0904B9842BE
:10AA100002D0904B984204D14FF68F731A404B8866
:10AA20001A438D4B984207D08C4B984204D04FF676
:10AA3000FF431A40CB881A4302808B8883850B889A
:10AA40000385814B98420BD0854B984208D08B4BA5
:10AA5000984205D08A4B984202D08A4B984201D145
:10AA60000B7A038601238382704770B5002400228D
:10AA70000023058C4FF6FE7635400584028C8388D2
:10AA8000048B4FF68F752C40B51E2C400D882C433F
:10AA9000751E2A400D892A434D882A436A4DA842D3
:10AAA0000BD06F4DA84208D0744DA84205D0744D0C
:10AAB000A84202D0734DA84213D14FF6F7752A4031
:10AAC0004D892A434FF6FB752A408D882A434FF65D
:10AAD000FF652B404FF6FF552B408D892B43CD89C9
:10AAE0002B4383800483CD888586028470BD70B536
:10AAF000002400220023058C4FF6EF7635400584B4
:10AB0000028C8388048B48F6FF752C404FF6FF4576
:10AB10002C400D884FF6FF7606EA05252C434FF6AC
:10AB2000DF752A400D8906EA05152A434D8806EA95
:10AB300005152A43444DA84202D0494DA8421DD1D3
:10AB40004FF67F752A404D894FF6FF7606EA0515C8
:10AB50002A434FF6BF752A408D8806EA05152A4319
:10AB60004FF6FF352B404FF2FF752B408D8906EADB
:10AB700085052B43CD8906EA85052B438380048315
:10AB8000CD880587028470BD70B5002400220023A3
:10AB9000058C4FF6FF6635400584028C8388848BD4
:10ABA0004FF68F752C404FF6FC752C400D882C43CA
:10ABB0004FF6FF552A400D894FF6FF7606EA052528
:10ABC0002A434D8806EA05252A431F4DA84202D094
:10ABD000234DA8421DD14FF2FF752A404D894FF6F3
:10ABE000FF7606EA05252A434FF6FF352A408D8871
:10ABF00006EA05252A434EF6FF752B404DF6FF75F4
:10AC00002B408D8906EA05152B43CD8906EA0515EB
:10AC10002B4383808483CD888587028470BD70B583
:10AC2000002200230024058C4EF6FF763540058473
:10AC3000038C8488828B48F6FF752A404FF6FF45C7
:10AC40002A400D8820E00000002C01400004004054
:10AC500000080040000C00400010004000140040BC
:10AC600000340140004C01400050014000540140BC
:10AC700000180040001C004000200040004001403F
:10AC800000440140004801404FF6FF7606EA0525E2
:10AC90002A434DF6FF752B400D8906EA05352B43F7
:10ACA0004D8806EA05352B43FA4DA84202D0FA4DED
:10ACB000A84208D14BF6FF752C408D894FF6FF76E0
:10ACC00006EA85152C4384808283CD88A0F8405005
:10ACD000038470BD828B4FF2FF331A408283828BD4
:10ACE0004FF6FF7303EA01231A4382837047F0B5DE
:10ACF0000C461546002200210026078C4EF6FF7CEC
:10AD000007EA0C070784828B018C4FF6FF7707EA6E
:10AD1000043640F6FF473A404FF6FF7707EA05272B
:10AD20003A434FF6FF7707EA03373A43D94FB84221
:10AD30000ED0D94FB8420BD0B0F1804F08D0D74FCA
:10AD4000B84205D0D64FB84202D0D64FB84206D14D
:10AD50004DF6FF77394046F48057394305E047F612
:10AD6000FF57394044F48057394382830184F0BD52
:10AD7000828B4FF6F3731A408283828B0A4382835D
:10AD80007047F0B50C461546002200210026078CBE
:10AD90004FF6FF6C07EA0C070784828B018C4FF695
:10ADA000FF7707EA04264FF60C773A404FF6FF7715
:10ADB00007EA03172F433A43B64FB8420ED0B64FB7
:10ADC000B8420BD0B0F1804F08D0B44FB84205D094
:10ADD000B34FB84202D0B34FB84206D14FF6FF5737
:10ADE000394046F48077394305E04FF2FF57394048
:10ADF00044F48077394382830184F0BD028B4FF2A3
:10AE0000FF331A400283028B4FF6FF7303EA0123DC
:10AE10001A4302837047F0B50C4615460022002104
:10AE20000026078C4FF6EF7C07EA0C070784028B9D
:10AE3000018C4FF6FF7707EA041640F6FF473A40C9
:10AE40004FF6FF7707EA03373A434FF6FF7707EAF3
:10AE500005273A438F4FB8420ED08F4FB8420BD0E0
:10AE6000B0F1804F08D08D4FB84205D08C4FB8421A
:10AE700002D08C4FB84206D14FF6DF77394046F00A
:10AE80001007394305E04FF65F77394044F010076B
:10AE9000394302830184F0BD028B4FF6F3731A40ED
:10AEA0000283028B0A4302837047F0B50C461546B5
:10AEB00000220021068C4FF6FE773E400684028B6E
:10AEC000018C4FF60C7632407E1C06EA03162E43A8
:10AED0003243704EB0420ED06F4EB0420BD0B0F144
:10AEE000804F08D06D4EB04205D06D4EB04202D0BA
:10AEF0006C4EB04206D14FF6FD76314044F001066B
:10AF0000314305E04FF6F576314044F00106314318
:10AF100002830184F0BD70B505460C465D4885424C
:10AF20000ED05D4885420BD0B5F1804F08D05B480C
:10AF3000854205D05A48854202D05A48854200D100
:10AF400000E000BF208850B92389A2886188284684
:10AF5000FFF7ABFFE1882846FFF79EFF25E020883A
:10AF600004280AD12389A28861882846FFF753FF65
:10AF7000E1882846FFF742FF17E0208808280AD119
:10AF80002389A28861882846FFF7FBFEE1882846CE
:10AF9000FFF7EEFE09E02389A28861882846FFF7C3
:10AFA000A6FEE1882846FFF795FE70BD2DE9F04129
:10AFB00005460C4600260127608808B9022600E0F5
:10AFC0000026A088012801D1022700E0012720885F
:10AFD000A0B92389A28861882846FFF766FFE18827
:10AFE0002846FFF759FF23893A4631462846FFF79E
:10AFF00012FFE1882846FFF701FF13E02389A288AA
:10B0000061882846FFF707FFE1882846FFF7F6FE2C
:10B0100023893A4631462846FFF747FFE18828460C
:10B02000FFF73AFFBDE8F0810A884B881A438B8806
:10B030001A43CB881A430B891A434B891A438B89CD
:10B040001A43A0F8442070474FF6FF718180002119
:10B050000180C180418001727047002101804180E0
:10B060008180C180018141818181C181704700213E
:10B0700001804180012181800021C18001817047D0
:10B080000021018041808180C180018141818181D5
:10B0900070470000002C01400034014000040040D3
:10B0A00000080040000C004021B1028842F001027B
:10B0B000028004E002884FF6FE731A400280704757
:10B0C00031B1B0F8442042F40042A0F8442005E039
:10B0D000B0F84420C2F30E02A0F8442070471AB121
:10B0E00083890B43838102E083898B43838170478B
:10B0F0008182704741EA0203A0F8483070471AB1D4
:10B1000083890B43838102E083898B43838170476A
:10B1100001894FF6F8721140018170470A460021FB
:10B1200001894FF68F73194011430181704730B583
:10B1300004460D4629462046FFF7F0FF208940F0DF
:10B140000700208130BD2DE9F04104460D4616462A
:10B150001F46602D06D13B46012231462046FFF7AF
:10B160005AFE05E03B46012231462046FFF79DFE90
:10B1700029462046FFF7D2FF208940F007002081B2
:10B18000BDE8F08130B50C4600210189C9B24FF607
:10B19000FF7505EA0325154325432943018130BD89
:10B1A0002DE9F04105460E461746984600244346D1
:10B1B0003A4631462846FFF7E5FF2C894FF6F870EE
:10B1C000044044F007044FF68F70044044F07004CC
:10B1D0002C81BDE8F081F0B504460D4616461F46A9
:10B1E0003B46324629462046FFF7CCFF208940F4F3
:10B1F00080402081F0BD0185828270470A4600218F
:10B2000001884FF68F731940114301807047F0B5E4
:10B210000C4615461E460021002200230189028BA0
:10B22000038C4FF6F877394021434FF6FC473A40FC
:10B2300040F201173A434FF6DD773B404FF6FF7778
:10B2400007EA06172F433B43018102830384F0BDC5
:10B250000A460021018B4FF68F7319401143018379
:10B2600070470A460021018B48F6FF7319404FF6DC
:10B27000FF7303EA02231943018370470A46002142
:10B28000818B4FF68F7319401143818370470A46B3
:10B290000021818B48F6FF7319404FF6FF7303EAD4
:10B2A000022319438183704721B1028842F0800252
:10B2B000028004E002884FF67F731A4002807047D4
:10B2C00021B1828842F00402828004E082884FF635
:10B2D000FB731A408280704721B1828842F00802D5
:10B2E000828004E082884FF6F7731A4082807047AC
:10B2F00021B1828842F00102828004E082884FF608
:10B30000FE731A40828070470A460021018B4FF677
:10B31000F77319401143018370470A460021018BDE
:10B320004FF2FF7319404FF6FF7303EA02231943EC
:10B33000018370470A460021818B4FF6F77319404D
:10B340001143818370470A460021818B4FF2FF73BE
:10B3500019404FF6FF7303EA0223194381837047B4
:10B360000A460021018B4FF6FB73194011430183FC
:10B3700070470A460021018B4FF6FF3319404FF604
:10B38000FF7303EA02231943018370470A46002131
:10B39000818B4FF6FB7319401143818370470A4636
:10B3A0000021818B4FF6FF3319404FF6FF7303EAFC
:10B3B00002231943818370470A460021018B4FF60F
:10B3C0007F7319401143018370470A460021018BA6
:10B3D000C1F30E014FF6FF7303EA02231943018301
:10B3E00070470A460021818B4FF67F731940114345
:10B3F000818370470A460021818BC1F30E014FF60D
:10B40000FF7303EA02231943818370470A46002130
:10B41000018C4FF6FD7319401143018470470A46B1
:10B420000021018C4FF6F7731940114301847047D6
:10B430000A460021018C4FF6DF7319404FF6FF7367
:10B4400003EA02131943018470470A460021018C64
:10B450004FF67F7319404FF6FF7303EA0213194347
:10B46000018470470A460021018C4FF6FF531940B2
:10B470004FF6FF7303EA02231943018470470A461B
:10B480000021018C4FF2FF7319404FF6FF7303EA5E
:10B4900002231943018470470A460021018C4DF6AE
:10B4A000FF7319404FF6FF7303EA02331943018417
:10B4B000704730B5002301248C40A3B2048C9C4318
:10B4C0000484048C02FA01F5ADB22C43048430BD2F
:10B4D00030B5002304248C40A3B2048C9C43048424
:10B4E000048C02FA01F5ADB22C43048430BD70B572
:10B4F0000346002000241846183001258D40ACB2C8
:10B500001D8CA5431D8409B1082909D100EB6100F8
:10B51000056825F0700505600568154305600EE0B7
:10B520000D1FC5F34E052844056825F4E045056068
:10B5300005684FF6FF7606EA02263543056070BDC2
:10B5400021B1028842F00202028004E002884FF634
:10B55000FD731A400280704721B1028842F0040254
:10B56000028004E002884FF6FB731A4002807047A5
:10B5700021B1828842F08002828004E082884FF606
:10B580007F731A408280704702884FF6F7731A4023
:10B59000028002880A430280704782884FF68F73C8
:10B5A0001A40828082880A438280704702894FF65F
:10B5B000F8731A40028102890A43028170470289A6
:10B5C0004FF67F731A40028102890A430281704755
:10B5D00081847047818570478186704701877047F5
:10B5E00081877047A0F84010704702884FF6FF43EC
:10B5F0001A40028002880A43028070470146888E02
:10B6000070470146088F70470146888F7047014692
:10B61000B1F8400070470146888C70470146088D9C
:10B62000704702460020138A0B400BB1012000E056
:10B6300000207047CA430282704730B5024600209E
:10B6400000230024158A05EA0103958905EA01040F
:10B6500013B10CB1012000E0002030BDCA430282CA
:10B660007047000010B50446FB48844209D101210F
:10B670008803FEF775FE00214FF48040FEF770FE50
:10B6800032E0F648844209D101214804FEF775FEF4
:10B6900000214FF40030FEF770FE25E0F0488442B0
:10B6A00009D101218804FEF768FE00214FF48020B3
:10B6B000FEF763FE18E0EB48844209D10121C8047B
:10B6C000FEF75BFE00214FF40020FEF756FE0BE074
:10B6D000E548844208D101210805FEF74EFE00210D
:10B6E0004FF48010FEF749FE10BD2DE9F04786B0FB
:10B6F00005460E460024A24600BFA1460027B08999
:10B7000000B100BF2F462C8A4CF6FF700440F08831
:10B7100004432C82AC894EF6F3100440B088318982
:10B720000843718908430443AC81AC8A4FF6FF405B
:10B730000440B0890443AC8201A8FEF78AFDC648E4
:10B74000874202D1DDF810A001E0DDF80CA0A88945
:10B7500000F4004040B10AEBCA0000EB0A10316867
:10B760004900B0FBF1F807E00AEBCA0000EB0A1051
:10B7700031688900B0FBF1F86420B8FBF0F00401F7
:10B780002009642101FB1089A88900F4004040B120
:10B79000322000EBC900B0FBF1F000F007000443D9
:10B7A00008E0322000EB09106421B0FBF1F000F05A
:10B7B0000F0004432C8106B0BDE8F0874FF416510A
:10B7C000016000218180C18001810C214181002123
:10B7D0008181704710B502460020108A4FF2FF03A6
:10B7E00018400B884C8823438C882343CC88234300
:10B7F0001843108210BD0021018041808180C180EA
:10B80000704721B1828942F40052828104E082892A
:10B810004DF6FF731A4082817047F0B5034600244D
:10B8200000260025002040F66A17B94200D100BF6B
:10B830001846C1F3421401F01F06012707FA06F566
:10B84000012C01D10C3004E0022C01D1103000E0B9
:10B8500014301AB107682F43076002E00768AF434E
:10B860000760F0BD1AB1838A0B43838202E0838AAA
:10B870008B4383827047028A4FF6F0731A4002822C
:10B88000028A0A430282704782894FF2FF731A408C
:10B89000828182890A438281704721B1828942F084
:10B8A0000202828104E082894FF6FD731A40828190
:10B8B0007047028A4FF6DF731A400282028A0A43F7
:10B8C0000282704721B1028A42F48042028204E07F
:10B8D000028A4BF6FF731A4002827047C1F30802D6
:10B8E0008280704701468888C0F3080070478189CC
:10B8F00041F0010181817047028BD2B20283028B39
:10B9000042EA012202837047028B02F47F420283E3
:10B91000028B0A430283704721B1828A42F02002DF
:10B92000828204E0828A4FF6DF731A408282704777
:10B9300021B1828A42F01002828204E0828A4FF6AC
:10B94000EF731A408282704721B1828A42F0080266
:10B95000828204E0828A4FF6F7731A40828270472F
:10B9600021B1828942F40042828103E08289C2F3DC
:10B970000E028281704721B1828A42F40062828283
:10B9800004E0828A4FF2FF731A4082827047828AF3
:10B990004FF6FB731A408282828A0A438282704782
:10B9A00021B1828A42F00202828204E0828A4FF64A
:10B9B000FD731A408282704702460020B1F5007F75
:10B9C00000D100BF13880B400BB1012000E0002024
:10B9D000704701F40072B2F5007F00D100BFCA4386
:10B9E0000280704770B50246002400230025002025
:10B9F00040F66A16B14200D100BFC1F3421501F012
:10BA00001F03012606FA03F3012D02D19689334064
:10BA100006E0022D02D1168A334001E0968A3340B7
:10BA20000C12012606FA04F41688344013B10CB146
:10BA3000012000E0002070BD10B50022002340F678
:10BA40006A14A14200D100BF0A1201249440A3B29B
:10BA5000DC43048010BD0000003801400044004079
:10BA600000480040004C00400050004010B501204C
:10BA7000FEF790FC0020FEF78DFC10BD2A490860FF
:10BA800070472949091F08607047274984310860B9
:10BA9000704701460020254A10884FF67F4210402B
:10BAA0000843224A10807047014600201F4A108830
:10BAB0004FF68072104008431C4A1080704708B54A
:10BAC00000220092194A2C3A0092009A02440092F5
:10BAD000009A116008BD08B5014600200090134887
:10BAE0002C3800900098084400900098008808BD09
:10BAF0000D489C300068C0B270470C480830008880
:10BB000040F0010009490831088070470648A0301C
:10BB10000068C0B2704705480830008840F0020055
:10BB2000024908310880704704860D422C6C0040A1
:10BB300010B501210807FEF720FC00214FF08050CE
:10BB4000FEF71BFC10BD2A490862704728490861AE
:10BB5000704701460020274A106820F0E0000843A3
:10BB6000106070472249A0310860704710B5024646
:10BB70000020204B186820F00300104318601E4B73
:10BB80001B6843F004031C4C2360012901D130BF22
:10BB900000E020BF184B1B6823F00403164C236001
:10BBA00010BD1448006840F00400124908600846BF
:10BBB000006840F0020008600F48006840F0040090
:10BBC0000D49086000BF00BF30BF7047014600202C
:10BBD000084A52680A400AB1012000E0002070477C
:10BBE0000449096841EA8001024A11607047000077
:10BBF00000000E420070004010ED00E008B5042087
:10BC0000ADF8000048208DF8030069468048FEF733
:10BC1000B1F804217E48FEF75AF908BD08B50420A2
:10BC2000ADF8000010208DF8030003208DF802000D
:10BC300069467748FEF79EF808BD08B50121042043
:10BC4000FEF774FB0C20ADF8000010208DF8030007
:10BC500003208DF8020069466D48FEF78BF80C2131
:10BC60006B48FEF734F908BD10B5FFF7D7FF012088
:10BC7000684908606849C1F88C01042004F0E0FFBD
:10BC8000002064490860042004F0DAFF00206249C3
:10BC9000C1F88C0110BD10B5FFF7C0FF00205D4951
:10BCA000091D08605C49C1F88801042004F0C8FF40
:10BCB00001205849091D08605749C1F8880104202E
:10BCC00004F0BEFF10BD10B50024FFF797FF012060
:10BCD0005049086004F0B4FF01204F49C1F88C01BD
:10BCE00004F0AEFF07E0601CC4B2FA2C03DDFFF7DE
:10BCF000D2FF012010BD4748803800680028F2D1EB
:10BD00004449091D086000BFF4E710B5002041490F
:10BD1000091D0860FFF782FF00203F49C1F8880134
:10BD2000022004F08DFF01203A49091D086002201D
:10BD300004F086FF00203849C1F88C0110BD10B511
:10BD400000203449091D0860FFF768FF01203249CF
:10BD5000C1F88801022004F073FF01202D49091D5C
:10BD60000860022004F06CFF00202B49C1F88C0110
:10BD700010BD70B50446FFF751FF00202549091D8D
:10BD80000860002517E0E009224908606006040EFB
:10BD9000022004F055FF01201F49C1F88C01022048
:10BDA00004F04EFF00201B49091D0860022004F02A
:10BDB00047FF681CC5B2082DE5DB70BD70B50546B0
:10BDC0000024FFF71BFF002617E000201149091D82
:10BDD0000860022004F034FF01200F49C1F88C01F3
:10BDE0006006040E0B488038006808B1601CC4B2BD
:10BDF000012004F025FF701CC6B2082EE5DB15B942
:10BE0000FFF79DFF01E0FFF780FF204670BD0000B7
:10BE100000080140880121420000214270B505461A
:10BE2000002406E0601C84B2B4F5803F01DB0020F2
:10BE300070BD02217F48FEF7D0FC0028F2D02946D1
:10BE40007C48FEF777FC06E0601C84B2B4F5803FC6
:10BE500001DB0020ECE701217648FEF7BEFC00285C
:10BE6000F2D07448FEF768FCC0B2E1E710B50446B2
:10BE7000704800884FF6C77108406E490880084630
:10BE800000882043088001216A48FEF722FC10BD8B
:10BE900000B587B0012141F20800FEF747FA012101
:10BEA0000846FEF738F83820ADF8180018208DF84D
:10BEB0001B0003208DF81A0006A95F48FDF75AFF02
:10BEC000BDF818105C48FEF702F80020ADF8040039
:10BED0004FF48270ADF806000020ADF80800ADF810
:10BEE0000A00ADF80C004FF40070ADF80E003820D9
:10BEF000ADF810000020ADF812000720ADF81400D6
:10BF000001A94C48FEF740FB01214A48FEF7E1FB3E
:10BF1000FF20FFF783FF322004F0BDFE0820FFF76B
:10BF2000A5FFFF20FFF77AFF07B000BD10B504465C
:10BF3000424800884FF6C7710840404908800846CB
:10BF400000882043088001213C48FEF7C2FB10BD59
:10BF500070B50546002406E0601C84B2B4F5803F4D
:10BF600001DB002070BD02213448FEF736FC0028BA
:10BF7000F2D029463148FEF7DDFB06E0601C84B2B2
:10BF8000B4F5803F01DB0020ECE701212B48FEF7F0
:10BF900024FC0028F2D02948FEF7CEFBC0B2E1E72E
:10BFA00000B587B001210820FEF7C0F90121880300
:10BFB000FEF7C9F94FF46040ADF8180018208DF86D
:10BFC0001B0003208DF81A0006A91B48FDF7D2FEBE
:10BFD0004FF460411848FDF77AFF0020ADF80400E7
:10BFE0004FF48270ADF806000020ADF80800022082
:10BFF000ADF80A000120ADF80C004002ADF80E00CB
:10C000001820ADF810000020ADF812000720ADF8A0
:10C01000140001A90948FEF7B7FA01210748FEF705
:10C0200058FBFF20FFF794FF3820FFF77FFF07B092
:10C0300000BD000000300140000C0140003800400D
:10C040008148824948608248486070477F4800695B
:10C0500040F080007D49086170477C48C16801F06C
:10C06000010008B10120704701F0040008B102206E
:10C07000F9E701F0100008B10320F4E70020F2E72F
:10C0800070B5044600BFFFF7E8FF0546012D00D05C
:10C0900006E0012004F0D4FD601E84B2002CF2D131
:10C0A00000BF04B9FF25284670BD70B505460024C1
:10C0B00045F6FF70FFF7E4FF0446C4B96348006922
:10C0C00040F002006149086108464561006940F09E
:10C0D0004000086145F6FF70FFF7D2FF0446012CCF
:10C0E00005D05A48006920F00200584908612046EE
:10C0F00070BD70B505460E46FF20FFF7C1FF044630
:10C1000094B95248006940F00100504908612E80FE
:10C11000FF20FFF7B5FF0446012C05D04B4800690E
:10C1200020F0010049490861204670BD0146088899
:10C130007047014601F0010010B90888C0B270478D
:10C1400031F8010C000AFAE72DE9F04105460E46E8
:10C150001746002407E036F814102846FFF7C9FFF9
:10C16000AD1C601C84B2BC42F5DBBDE8F08130B58B
:10C1700003460C461546002207E01846FFF7D6FF97
:10C1800024F812009B1C501C82B2AA42F5DB30BD81
:10C1900030B503460C461546002206E01846FFF768
:10C1A000C8FFA0545B1C501C82B2AA42F6DB30BD13
:10C1B00070472DE9F04FADF6040D044689469246CE
:10C1C00000252746C846B4F1006F02D321488442B7
:10C1D00003D30DF6040DBDE8F08F00261DE098F89E
:10C1E00001004FEA002B98F8000058441FFA80FB2A
:10C1F00008F102082846691C8DB201A921F810B087
:10C20000B5F5806F07D100254FF480623846FFF7FF
:10C210009BFF07F50067B01C86B25645DFD325B1FA
:10C220002A4601A93846FFF78FFF00BFD1E710B5B6
:10C2300004466068084908602068FBF783FF0648E9
:10C240000068804710BD00002301674500200240C0
:10C25000AB89EFCD000008085400002010B5FFF7AF
:10C26000ECFC10BD70B504460026711E78480068CD
:10C2700004F0DEF901282FD1FFF70DFD0A2004F0AC
:10C28000DFFCFFF7F1FC2546E11704EB1161091211
:10C29000A02202EB4101C8B2FFF76BFDFFF713FDCF
:10C2A000E11704EB11610912A4EB0121C8B2FFF7F9
:10C2B00060FDFFF708FDFFF7D7FCA120FFF759FD50
:10C2C000FFF701FD0020FFF779FD0646FFF7E3FCCD
:10C2D0005F48006804F0E5F8304670BD70B504466C
:10C2E0000E464FF0FF315A48006804F0A1F90128CA
:10C2F0002CD1FFF7D0FC012004F0CDFCFFF7B4FCFB
:10C300002546E11704EB11610912A02202EB41015D
:10C31000C8B2FFF72EFDFFF7D6FCE11704EB116161
:10C320000912A4EB0121C8B2FFF723FDFFF7CBFCF4
:10C330003046FFF71EFDFFF7C6FCFFF7ACFC0520FB
:10C3400004F0A9FC4248006804F0ABF870BD2DE988
:10C35000F04105460E461746002409E0E20026FAA1
:10C3600002F2D1B22A1990B2FFF7B8FF601CC4B232
:10C37000BC42F3DBBDE8F0812DE9F04107460C46F5
:10C380000026002509E036023919491B491E88B2EA
:10C39000FFF768FF0644681CC5B2A542F3DB3046D0
:10C3A000BDE8F08110B5FF20FFF75CFF0446552C77
:10C3B00001D1002010BD5521FF20FFF78FFFFF2086
:10C3C000FFF750FF0446552C01D10020F2E7012071
:10C3D000F0E770B506460C46154608E03046721C7C
:10C3E00096B2FFF73FFF04F8010B681E85B2002DDF
:10C3F000F4D170BD70B505460C46164606E02178AE
:10C400002846FFF76BFF681C85B2641C3000A6F15C
:10C4100001018EB2F3D170BD70B504460D462946B8
:10C420002046FFF75BFF70BD70B504460D462946F8
:10C430002046FFF753FF70BD10B504462046FFF7B6
:10C4400011FF10BD10B504462046FFF70BFF10BDCD
:10C45000E802002010B501217E48FFF7E2F8012133
:10C460007C48FFF7E7F810BD7FB505460C46012173
:10C470000220FDF768FFADF80850ADF80440002039
:10C48000ADF80A00ADF8060001A97248FEF7B0FA4F
:10C490001D208DF8000000208DF8010002208DF88D
:10C4A000020001208DF803006846FDF748F80122DC
:10C4B00011466848FEF713FE01216648FEF7F4FDB9
:10C4C0007FBD10B50024FBF779FE01216248FFF71C
:10C4D000A8F8012804D161480068401C5F49086041
:10C4E0005F480088B0F57A7F05DA5D480088401C17
:10C4F0005B49088002E000205949088059480078CB
:10C50000401C58490870084600780A2801D10020CC
:10C51000087001215048FFF78DF8FBF756FE10BD5B
:10C520007FB505460C4601211020FDF70CFFADF844
:10C530000850ADF804400020ADF80A00ADF8060040
:10C5400001A94548FEF754FA36208DF80000012075
:10C550008DF8010003208DF8020001208DF8030002
:10C560006846FCF7ECFF012211463B48FEF7B7FD99
:10C5700001213948FEF798FD7FBD00B589B0012142
:10C580000420FDF7E0FE01212120FDF7CFFE01216F
:10C590000803FDF7C0FC4FF4E040ADF82000182080
:10C5A0008DF8230003208DF8220008A92E48FDF7FE
:10C5B000E1FB4FF48050ADF818000020ADF81400F6
:10C5C000ADF81A00ADF8160005A92848FEF710FAD4
:10C5D0007020ADF804000120ADF806000220ADF88F
:10C5E0000C0001A92148FEF740FA01A91F48FEF7F7
:10C5F0007EFA01A91D48FEF7C7FA08211B48FEF77D
:10C6000083FE08211948FEF788FE08211748FEF727
:10C6100091FE01211548FEF747FD09B000BD70B538
:10C6200004460D4624B1012C07D0022C0FD109E09D
:10C6300029460E48FEF7D0FF09E029460B48FEF7D1
:10C64000CDFF04E029460948FEF7CAFF00BF00BF3E
:10C6500070BD0000000400400010004058000020A1
:10C66000FC0300205C000020001401400008004092
:10C6700008B501210820FDF759FEC020ADF80000E3
:10C6800010208DF8030003208DF802006946FB4856
:10C69000FDF770FB4FF48070ADF8000048208DF876
:10C6A000030003208DF802006946F448FDF762FBA1
:10C6B00040F2CF216420FFF733FF8021EF48FDF7E0
:10C6C00008FC0A2004F0E7FA8021EC48FDF7FFFBA4
:10C6D0000A2004F0E0FA8021E848FDF7FAFB0A207E
:10C6E00004F0D9FA8021E548FDF7F1FB0A2004F0B7
:10C6F000D2FA8021E148FDF7ECFB0A2004F0CBFAE6
:10C700008021DE48FDF7E3FB0A2004F0C4FA802113
:10C71000DA48FDF7DEFB0A2004F0BDFA8021D74895
:10C72000FDF7D5FB0A2004F0B6FA08BD70B5054642
:10C730000C4600264021D148FDF7CBFB04F01F003A
:10C7400040EA05063046FFF769FBFF20FFF766FB6E
:10C75000064604F0800018B1FF20FFF75FFB064695
:10C760004021C648FDF7B3FB304670BD2DE9F041CE
:10C7700004460D46164600274021C048FDF7A9FB98
:10C7800005F01F0040EA04073846FFF747FB304634
:10C79000FFF744FB4021B948FDF799FBBDE8F08164
:10C7A00070B505460C464021B448FDF792FB3A208F
:10C7B000FFF734FB05E06D1E0020FFF72FFB207014
:10C7C000641C002DF7D1002020704021AB48FDF7FC
:10C7D0007EFB70BD70B504460D464021A748FDF7AD
:10C7E00078FB7A20FFF71AFB04E0641E2878FFF735
:10C7F00015FB6D1C002CF8D14021A048FDF767FB0C
:10C8000070BD10B5044604F060009D490978884267
:10C810000ED003221F21A020FFF7A8FFC4F341126E
:10C820001F218020FFF7A2FF04F0600094490870E8
:10C8300010BD10B504462046FFF7E3FF2146002057
:10C84000FFF774FF10BD70B504460D462046FFF794
:10C85000D8FF2A4621464020FFF788FF70BD70B5FB
:10C8600005460C4600262946D420FFF7ECFFE1B22E
:10C87000D620FFF7E8FFC4F30721D720FFF7E3FF37
:10C8800001E0701C86B2EA20FFF7D3FF00F0010040
:10C8900018B140F6FF708642F3DB70BD70B50446F8
:10C8A0000025FFF7E5FE09E0FF2200211046FFF713
:10C8B0005DFF681C85B20A2004F0EDF91D20FFF72A
:10C8C000B8FF00F0010010B9B5F5FA7FECDBB5F563
:10C8D000FA7F01DB012070BD00206A490860002159
:10C8E0000820FFF7B0FF00210920FFF7ACFF00216F
:10C8F0000C20FFF7A8FF00210D20FFF7A4FF102157
:10C900000A20FFF7A0FF1A210B20FFF79CFF11213F
:10C910000420FFF798FF1A210520FFF794FFFF215D
:10C920000620FFF790FF1F210720FFF78CFFA121B2
:10C930003820FFF788FF3F212820FFF784FF3021B0
:10C940002920FFF780FFF9213020FFF77CFFF72136
:10C950003120FFF778FF0D21C020FFF774FF002181
:10C96000C120FFF770FF3322C2218020FFF7FEFEB7
:10C970001221C620FFF767FF0C21C720FFF763FFD6
:10C980001521C420FFF75FFFEE21CA20FFF75BFFF0
:10C990000521CB20FFF757FF2178E420FFF753FF55
:10C9A0006178E520FFF74FFFA178E220FFF74BFF0A
:10C9B000E178E320FFF747FF2179E020FFF743FF0D
:10C9C0006179E120FFF73FFF4FF480710020FFF70E
:10C9D00046FF4FF480711020FFF741FF1F20FFF743
:10C9E00010FFC0221B218020FFF7C0FE04221F2160
:10C9F0008020FFF7BBFEE420FFF71BFF2178884271
:10CA000001D1002067E7012065E710B57220FFF72C
:10CA100010FF10BD70B504460D4611210220FFF72E
:10CA200012FF1A210320FFF70EFF11202044C1B28C
:10CA30000620FFF708FF41F611202044C0F307212C
:10CA40000720FFF700FF002211467A20FFF78EFE35
:10CA500029462046FFF7BEFE08221F218020FFF74F
:10CA600085FE1C20FFF7E5FE00F0020020B1082241
:10CA70001F21A020FFF77AFE70BD0000000C0140CE
:10CA800060000020640000202DE9F04105460F46BB
:10CA90003920FFF7CEFE10B90020BDE8F08129480B
:10CAA00001780020FFF7CFFE26480088C0F3072159
:10CAB0000120FFF7C8FE00213A20FFF737FE214989
:10CAC000086000213A20FFF731FE1E49096841EA5B
:10CAD00000201C49086000213A20FFF727FE044689
:10CAE00000213A20FFF722FE44EA0024241F0021FF
:10CAF0003A20FFF71BFE064600213A20FFF716FEFC
:10CB000046EA0026681EA04200D26C1E06F0800095
:10CB100008B9002403E039462046FFF741FE0948E2
:10CB200001780C20FFF78FFE06480088C0F307212C
:10CB30000D20FFF788FE40221E218020FFF716FE01
:10CB40002046AAE7640000200022FA4B1A60012266
:10CB5000F94BC3F8B421002117E000F0800222B1A4
:10CB60000122F44B10331A6003E00022F14B103322
:10CB70001A600022EF4B0C331A600122EE4BC3F80F
:10CB8000B8214206100E4A1CD1B20829E5DB012269
:10CB9000E84B1A6070470022E64B1A60E64BC3F878
:10CBA000B421002117E000F0800222B10122E14B04
:10CBB00010331A6003E00022DE4B10331A600022AB
:10CBC000DC4B0C331A600122DB4BC3F8B821420660
:10CBD000100E4A1CD1B20829E5DB0122D54B1A60A0
:10CBE000704730B5044604F13800C5B22846FFF757
:10CBF000D2FF30BD30B504460020FFF7F2FF04F14C
:10CC00004000C5B22846FFF7C6FF30BDF0B5044668
:10CC10000020FFF7E6FF04F00F062411274606F177
:10CC2000E000C5B22846FFF7B6FF07F1F000C5B235
:10CC30002846FFF7B0FFF0BD2DE9F04305460F464B
:10CC400091469846A9F12000C6B207EB470103229E
:10CC500002EB4101C8B2FFF7D9FF6906080EFFF7E2
:10CC6000C9FF002417E0B8F1000F08D106EB460118
:10CC7000B24A02EB8101085DFFF766FF09E006EBAF
:10CC80004601AE4A02EB8101095DC943C8B2FFF714
:10CC90005BFF601CC4B2062CE5DB07EB47010322F7
:10CCA00002EB4101C8B2FFF7B1FF012101EB4501E1
:10CCB000C8B2FFF79FFF002419E0B8F1000F09D1B7
:10CCC00006EB46019D4A02EB8101891D085DFFF7D5
:10CCD0003BFF0AE006EB4601984A02EB8101891D01
:10CCE000095DC943C8B2FFF72FFF601CC4B2062C10
:10CCF000E3DBBDE8F08330B50546002404E02846B8
:10CD0000FFF722FF601C84B242F6A0008442F6DBEB
:10CD100030BD2DE9F04781460C4617461E460025DA
:10CD200030461DF07FFB00F0FF08C4F115004045C0
:10CD300003DAC4F1150000F0FF08002508E0725D79
:10CD40006019C1B23B464846FFF776FF681CC5B282
:10CD50004545F4DBBDE8F08710B5044678A3002212
:10CD600011462046FFF7D5FF10BD70B50B4614469F
:10CD7000002142F2107290FBF2F2EAB342F210721A
:10CD800090FBF2F23032D6B20A464D1CE9B29E5404
:10CD900042F2107290FBF2F502FB150290B24FF4D2
:10CDA0007A7290FBF2F23032D6B20A464D1CE9B2EA
:10CDB0009E544FF47A7290FBF2F502FB150290B28A
:10CDC000642290FBF2F23032D6B20A464D1CE9B230
:10CDD0009E54642290FBF2F502FB150290B20A22E7
:10CDE00090FBF2F23032D6B20A464D1CE9B29E54A4
:10CDF0000A2290FBF2F500E003E002FB150290B27C
:10CE00006BE04FF47A7290FBF2F27AB34FF47A72DD
:10CE100090FBF2F23032D6B20A464D1CE9B29E5473
:10CE20004FF47A7290FBF2F502FB150290B2642285
:10CE300090FBF2F23032D6B20A464D1CE9B29E5453
:10CE4000642290FBF2F502FB150290B20A2290FBDD
:10CE5000F2F23032D6B20A464D1CE9B29E540A2292
:10CE600090FBF2F502FB150290B236E0FFE7642278
:10CE700090FBF2F2F2B1642290FBF2F23032D6B2C1
:10CE80000A464D1CE9B29E54642290FBF2F502FB67
:10CE9000150290B20A2290FBF2F23032D6B20A4664
:10CEA0004D1CE9B29E540A2290FBF2F502FB1502DA
:10CEB00090B212E00A2290FBF2F272B10A2290FBC9
:10CEC000F2F23032D6B20A464D1CE9B29E540A2222
:10CED00090FBF2F502FB150290B200F13002D6B2DF
:10CEE0000A464D1CE9B29E5400225A5404B38C42A7
:10CEF0000EDB4D1CE9B200BF06E08D1A6D1E5D5DB4
:10CF00008E1A9D55551CEAB28A42F6DB30251D70FB
:10CF1000002206E08D1A5E5D8D1A6D1C5E55551C53
:10CF2000EAB2651CAA42F5DB2E250E1B9D5500BFFB
:10CF300070BD0000AC0123420000234218CC02085F
:10CF400020202020202020202020202020202020E1
:10CF500020202020200000002DE9FC5F83460E46A3
:10CF6000174698460FFA87FAB8F1050F02DD002040
:10CF7000BDE8FC9FBBF1050F01DC152E01DD002093
:10CF8000F6E74FF00009BAF1000F08DA4FF0010997
:10CF9000BAF1000001DB014600E041428FB2424697
:10CFA00069463846FFF7E1FE68461DF03BFAC5B218
:10CFB0000C9830BBB9F1000F0ED1002409E01DF828
:10CFC00004203019C1B258460D9BFFF735FE601C96
:10CFD000C4B2AC42F3DB42E02D22314658460D9BF1
:10CFE000FFF72AFE012409E01DF804203019C1B220
:10CFF00058460D9BFFF720FE601CC4B2AC42F3DB29
:10D000002DE00C9801282AD1B9F1000F10D100248D
:10D010000BE0681E001B1DF80020301BC1B25846F3
:10D020000D9BFFF709FE601CC4B2AC42F1DB16E0B9
:10D0300000240BE0681E001B1DF80020301BC1B24D
:10D0400058460D9BFFF7F8FD601CC4B2AC42F1DB03
:10D05000301BC1B22D2258460D9BFFF7EDFD28462F
:10D0600086E700B5F8480079012817D1F74800781D
:10D0700050B9F54B9A78597818780123FFF7DCFD01
:10D080000120F249087009E0EF4BDA7859781878F6
:10D090000123FFF7D1FD0020EC49087000BD30B539
:10D0A000E94C20706170A270E3700124E64D2C7190
:10D0B00030BD0020E449087170470120E449087040
:10D0C00070470020E249087070470EB5E14840788B
:10D0D000E0490978DF4A9279CDE900210290DD48E4
:10D0E0004379B0F80320DCA1E2481EF0E1FB0EBD5D
:10D0F000F8B50020E0490870DE481DF093F9C4B28D
:10D10000DE49DD4A127888182246DA491DF04EF9C8
:10D11000D94800782044D8490870D9481DF082F9D0
:10D12000C4B2D649D44A127888182246D4491DF090
:10D130003DF9D14800782044CF490870D1481DF00E
:10D1400071F9C4B2CD49CC4A127888182246CD492B
:10D150001DF02CF9C84800782044C7490870CA4817
:10D16000007888B1C9481DF05DF9C4B2C349C24A0C
:10D17000127888182246C5491DF018F9BE48007873
:10D180002044BD49087010E0C1481DF04BF9C4B2FD
:10D19000BA49B94A127888182246BD491DF006F9E5
:10D1A000B54800782044B4490870BA481DF03AF9EF
:10D1B000C4B2B249B04A127888182246B5491DF067
:10D1C000F5F8AD4800782044AB490870B2480078C3
:10D1D000B2490978884211D1AC481DF023F9C4B294
:10D1E000A649A54A127888182246A8491DF0DEF8FB
:10D1F000A14800782044A049087055E0002633E09B
:10D2000006EB8600A6490D5CEA1705EB5272D210B8
:10D21000A44B9A5CEB1705EB5373DB10A5EBC3072C
:10D220000123BB401A40EAB92EB99F4A9FA1A048EA
:10D230001EF03EFB05E02B469E4A9FA19C481EF037
:10D2400037FB9B481DF0EEF8C4B28C498A4A12782D
:10D250008818224696491DF0A9F88748007820448E
:10D2600085490870701CC6B28B4800788642C7DBBF
:10D2700081480078401E80490870914A91A18C48ED
:10D280001EF016FB8A481DF0CDF8C4B27B497A4ADD
:10D2900012788818224686491DF088F8764800786A
:10D2A00020447549087000BF08247449724A1278F6
:10D2B0008818224684491DF079F86F480078204488
:10D2C0006D4908708148007820F0800088B9804856
:10D2D0001DF0A8F8C4B26949674A12788818224636
:10D2E0007B491DF063F86448007820446249087067
:10D2F00061E0002551E005EB850069490E5C05BB46
:10D3000074480078012846D17348807A00EBC00049
:10D310006F494318644A71A165481EF0C9FA644810
:10D320001DF080F8C4B25549534A12788818224635
:10D330005F491DF03BF85048007820444E49087082
:10D3400029E0681EC0EBC000664901EB4000807A0E
:10D3500008B3681EC0EBC00001EB4000807A00EB10
:10D36000C0005B4908443346524A5FA100905048D0
:10D370001EF09EFA4E481DF055F8C4B23F493E4A91
:10D380001278881822464A491DF010F83A48007869
:10D39000204439490870681CC5B23F48007885426E
:10D3A000A9DB3648344909780844AFF25841097876
:10D3B00000F8011C00BF032430492F4A1278881856
:10D3C00022464CA11CF0F2FF2B48007820442A4949
:10D3D0000870F8BD2DE9F04F05460F469046994676
:10D3E000DDE909BAABF12000C6B2822F01DBBDE84E
:10D3F000F08F3846FFF70AFC6906080EFFF7FAFBC4
:10D40000444613E0BAF1000F06D13B4901EB061187
:10D41000085DFFF799FB07E0374901EB0611095D4D
:10D42000C943C8B2FFF790FB601CC4B24C45E9DBAE
:10D430003846FFF7EBFB012101EB4501C8B2FFF7CE
:10D44000D9FB444670E00000690000208C000020F9
:10D450008A00002090000020253034642D253032D1
:10D46000642D2530326420253032643A2530326410
:10D47000000000007800002089000020C80600207D
:10D4800088D6020893D6020868000020A7D60208B2
:10D49000AAD602089ED60208F5010020F701002056
:10D4A000888E0020C28F002072F0020825732C00A5
:10D4B0008090002079F00208257325752C0000006B
:10D4C000AFD6020825730000B7D60208D1010020AC
:10D4D000C0D60208D00100209680002025733A258E
:10D4E000732C0000A4800020257325753A25732C29
:10D4F000000000002020200098D00208BAF1000FA0
:10D5000007D1AE4901EB06110831085DFFF71CFB9E
:10D5100008E0AA4901EB06110831095DC943C8B208
:10D52000FFF712FB601CC4B24C45E7DB00BF5EE7AF
:10D530007CB5A348007800B97CBDA2480578284690
:10D54000691CCDB2A0490E5CA048007895FBF0F1B3
:10D5500000FB1150C5B200200823CDE900609C48B3
:10D56000027800210420FFF735FF9948007807284A
:10D570003BDA01241AE02846691CCDB292490E5CC0
:10D580009248007895FBF0F100FB1150C5B20020E5
:10D590008F4ACDE900601278C2EBC400C1B2082303
:10D5A00000220420FFF716FF601CC4B2102CE2DB3F
:10D5B0002846691CCDB284490E5C8448007895FBEE
:10D5C000F0F100FB1150C5B20020CDE900608048A9
:10D5D0000078001DC3B27E4A1278C2EBC400C1B20B
:10D5E00000220420FFF7F6FE3AE001241AE0284664
:10D5F000691CCDB274490E5C7448007895FBF0F15B
:10D6000000FB1150C5B20020714ACDE900601278CC
:10D61000C2EBC400C1B2082300220420FFF7DAFEE7
:10D62000601CC4B2112CE2DB2846691CCDB26649ED
:10D630000E5C6648007895FBF0F100FB1150C5B216
:10D640000020CDE9006062480078801EC3B2604AC5
:10D650001278C2EBC400C1B200220420FFF7BAFE68
:10D660005B480078401C5A49087008460078082832
:10D6700010DB0020087053480078401C51490870A6
:10D68000084600785149097890FBF1F201FB12003D
:10D690004C49087000BF4FE710B5044600204D49C3
:10D6A00008604D48047002F013FC4C49086010BD3E
:10D6B00010B549480078B8B102F00AFC4849086042
:10D6C0000846006845490968401A4349097801EB52
:10D6D0004102C2EBC111B0EBC10F05D301203D499E
:10D6E000086000203C49087010BD08B501214020A9
:10D6F000FCF71CFE4FF47C40ADF8000010208DF8C4
:10D70000030003208DF8020069463648FCF732FB1F
:10D710004FF47C413348FCF7DAFB08BD10B5FFF746
:10D72000E4FF00202B4908310860322003F0B3FAEF
:10D7300001202D49C1F8B0010A2003F0ACFA012004
:10D74000FFF74FFA0A2003F07BFA1120FFF723FAC4
:10D750000A2003F075FAAE20FFF71DFA0A2003F045
:10D760006FFA0820FFF717FA0A2003F069FA002081
:10D77000FFF737FA0A2003F063FA0520FFF70BFAE8
:10D780000C20FFF708FA0020FFF740FA0020FFF70F
:10D7900031FA0A2003F054FA0020FFF7ACFA10BD6A
:10D7A0000A201249087070471048007820B10F48CD
:10D7B0000078401E0D4908707047000098D002089C
:10D7C0008A0000208E000020C8060020890000206A
:10D7D0008D000020A80123428B0000207000002053
:10D7E000740000200018014000002342680000205F
:10D7F00008B503208DF8000004208DF801008DF895
:10D80000020001208DF803006846FBF798FE08BD72
:10D810000146CA1701EB92729210A1EB820292B9F3
:10D82000642091FBF0F200FB121050B94FF4C87065
:10D8300091FBF0F200FB121008B9012070470020A4
:10D84000FCE70120FAE70020F8E7F0B503460C46B4
:10D850001546642093FBF0F0C6B2642093FBF0F70A
:10D8600000FB1730C1B2132E02DD01F16400C1B21A
:10D870000846CF1701EB977701EBA707BAB207204D
:10D8800092FBF0F700FB172082B25719601EDFF8F9
:10D8900058C31CF80000384482B2CF1701EB9777C9
:10D8A000BF10A1EB87071FB9032C01DA501E82B20B
:10D8B000072092FBF0F700FB1720C0B2F0BD2DE966
:10D8C000F05F80460D4617469946DDE90AAB002415
:10D8D00040F2B270804503DB40F63300804502DD44
:10D8E0000120BDE8F09F0C2D01DC012D01DA0120A3
:10D8F000F7E7681EBD49085CB84201DA681E0F5C94
:10D900003046FFF785FF18B1681E08B1012000E01E
:10D910000020012802D11D2F00DD1D27012F01DA73
:10D920000120DEE7B9F1180F01DB0120D9E7BAF1D8
:10D930003C0F01DB0120D4E7BBF13C0F01DB0120F0
:10D94000CFE740F2B2760AE03046FFF761FF10B150
:10D95000A748044401E0A7480444701C86B2464529
:10D96000F2DB681EC5B2002610E0A048805D40F2E0
:10D97000A321484304EBC0144046FFF749FF18B108
:10D98000012E01D19C480444701C86B2AE42ECDBEF
:10D99000781E40F2A321484304EBC014C9EB4910A0
:10D9A000C0EB092004EB0014CAEB0A1004EB80045E
:10D9B0005C4401214FF0C050FCF7C5FC0120FEF78C
:10D9C000C2F8FCF773FD2046FCF73DFDFCF76EFD49
:10D9D000002086E770B5002600240025FCF72AFD0C
:10D9E00006468548B6FBF0F484480088A0423ED045
:10D9F00082490C8040F2B27510E02846FFF708FF1C
:10DA000040B1B4F5B77F02D3A4F5B77404E0681C45
:10DA100085B206E0A4F26D14681C85B2B4F5B67F39
:10DA2000EBD800BF7648A0F80350002517E07449F2
:10DA3000B1F80300FFF7ECFE30B1012D04D11D2C2D
:10DA400001D31D3C09E00CE06848405DA04203D8CA
:10DA50006648405D241A00E003E0681C85B21C2C77
:10DA6000E5D200BF681C66494871601C8871624835
:10DA7000B6FBF0F100FB11644FF46160B4FBF0F011
:10DA80005F4908704FF46160B4FBF0F100FB114096
:10DA90003C21B0FBF1F05A4948704FF46160B4FB8F
:10DAA000F0F100FB11403C21B0FBF1F201FB120050
:10DAB000534988700B469A795979B3F80300FFF7F8
:10DAC000C4FE4F49C871002070BD10B501214FF050
:10DAD000C050FCF738FC0120FEF735F8FDF7C6FF13
